{
	"Users/TracyMichael1/Desktop/approved-experiences/Smart Contracts/BikeChain.sol": {
		"BikeChain": {
			"abi": [
				{
					"inputs": [],
					"stateMutability": "nonpayable",
					"type": "constructor"
				},
				{
					"inputs": [
						{
							"internalType": "address payable",
							"name": "walletAddress",
							"type": "address"
						},
						{
							"internalType": "string",
							"name": "firstName",
							"type": "string"
						},
						{
							"internalType": "string",
							"name": "lastName",
							"type": "string"
						},
						{
							"internalType": "bool",
							"name": "canRent",
							"type": "bool"
						},
						{
							"internalType": "bool",
							"name": "active",
							"type": "bool"
						},
						{
							"internalType": "uint256",
							"name": "balance",
							"type": "uint256"
						},
						{
							"internalType": "uint256",
							"name": "due",
							"type": "uint256"
						},
						{
							"internalType": "uint256",
							"name": "start",
							"type": "uint256"
						},
						{
							"internalType": "uint256",
							"name": "end",
							"type": "uint256"
						}
					],
					"name": "addRenter",
					"outputs": [],
					"stateMutability": "nonpayable",
					"type": "function"
				},
				{
					"inputs": [],
					"name": "balanceOf",
					"outputs": [
						{
							"internalType": "uint256",
							"name": "",
							"type": "uint256"
						}
					],
					"stateMutability": "view",
					"type": "function"
				},
				{
					"inputs": [
						{
							"internalType": "address",
							"name": "walletAddress",
							"type": "address"
						}
					],
					"name": "balanceOfRenter",
					"outputs": [
						{
							"internalType": "uint256",
							"name": "",
							"type": "uint256"
						}
					],
					"stateMutability": "view",
					"type": "function"
				},
				{
					"inputs": [
						{
							"internalType": "address",
							"name": "walletAddress",
							"type": "address"
						}
					],
					"name": "canRentBike",
					"outputs": [
						{
							"internalType": "bool",
							"name": "",
							"type": "bool"
						}
					],
					"stateMutability": "view",
					"type": "function"
				},
				{
					"inputs": [
						{
							"internalType": "address",
							"name": "walletAddress",
							"type": "address"
						}
					],
					"name": "checkIn",
					"outputs": [],
					"stateMutability": "nonpayable",
					"type": "function"
				},
				{
					"inputs": [
						{
							"internalType": "address",
							"name": "walletAddress",
							"type": "address"
						}
					],
					"name": "checkOut",
					"outputs": [],
					"stateMutability": "nonpayable",
					"type": "function"
				},
				{
					"inputs": [
						{
							"internalType": "address",
							"name": "walletAddress",
							"type": "address"
						}
					],
					"name": "deposit",
					"outputs": [],
					"stateMutability": "payable",
					"type": "function"
				},
				{
					"inputs": [
						{
							"internalType": "address",
							"name": "walletAddress",
							"type": "address"
						}
					],
					"name": "getTotalDuration",
					"outputs": [
						{
							"internalType": "uint256",
							"name": "",
							"type": "uint256"
						}
					],
					"stateMutability": "view",
					"type": "function"
				},
				{
					"inputs": [
						{
							"internalType": "address",
							"name": "walletAddress",
							"type": "address"
						}
					],
					"name": "makePayment",
					"outputs": [],
					"stateMutability": "payable",
					"type": "function"
				},
				{
					"inputs": [
						{
							"internalType": "address",
							"name": "",
							"type": "address"
						}
					],
					"name": "renters",
					"outputs": [
						{
							"internalType": "address payable",
							"name": "walletAddress",
							"type": "address"
						},
						{
							"internalType": "string",
							"name": "firstName",
							"type": "string"
						},
						{
							"internalType": "string",
							"name": "lastName",
							"type": "string"
						},
						{
							"internalType": "bool",
							"name": "canRent",
							"type": "bool"
						},
						{
							"internalType": "bool",
							"name": "active",
							"type": "bool"
						},
						{
							"internalType": "uint256",
							"name": "balance",
							"type": "uint256"
						},
						{
							"internalType": "uint256",
							"name": "due",
							"type": "uint256"
						},
						{
							"internalType": "uint256",
							"name": "start",
							"type": "uint256"
						},
						{
							"internalType": "uint256",
							"name": "end",
							"type": "uint256"
						}
					],
					"stateMutability": "view",
					"type": "function"
				}
			],
			"devdoc": {
				"kind": "dev",
				"methods": {},
				"version": 1
			},
			"evm": {
				"assembly": "    /* \"Users/TracyMichael1/Desktop/approved-experiences/Smart Contracts/BikeChain.sol\":59:3808  contract BikeChain {... */\n  mstore(0x40, 0x80)\n    /* \"Users/TracyMichael1/Desktop/approved-experiences/Smart Contracts/BikeChain.sol\":105:155  constructor() {... */\n  callvalue\n  dup1\n  iszero\n  tag_1\n  jumpi\n  0x00\n  dup1\n  revert\ntag_1:\n  pop\n    /* \"Users/TracyMichael1/Desktop/approved-experiences/Smart Contracts/BikeChain.sol\":137:147  msg.sender */\n  caller\n    /* \"Users/TracyMichael1/Desktop/approved-experiences/Smart Contracts/BikeChain.sol\":129:134  owner */\n  0x00\n  dup1\n    /* \"Users/TracyMichael1/Desktop/approved-experiences/Smart Contracts/BikeChain.sol\":129:147  owner = msg.sender */\n  0x0100\n  exp\n  dup2\n  sload\n  dup2\n  0xffffffffffffffffffffffffffffffffffffffff\n  mul\n  not\n  and\n  swap1\n  dup4\n  0xffffffffffffffffffffffffffffffffffffffff\n  and\n  mul\n  or\n  swap1\n  sstore\n  pop\n    /* \"Users/TracyMichael1/Desktop/approved-experiences/Smart Contracts/BikeChain.sol\":59:3808  contract BikeChain {... */\n  dataSize(sub_0)\n  dup1\n  dataOffset(sub_0)\n  0x00\n  codecopy\n  0x00\n  return\nstop\n\nsub_0: assembly {\n        /* \"Users/TracyMichael1/Desktop/approved-experiences/Smart Contracts/BikeChain.sol\":59:3808  contract BikeChain {... */\n      mstore(0x40, 0x80)\n      jumpi(tag_1, lt(calldatasize, 0x04))\n      shr(0xe0, calldataload(0x00))\n      dup1\n      0x722713f7\n      gt\n      tag_12\n      jumpi\n      dup1\n      0x722713f7\n      eq\n      tag_7\n      jumpi\n      dup1\n      0x8d23caa0\n      eq\n      tag_8\n      jumpi\n      dup1\n      0xaad1b617\n      eq\n      tag_9\n      jumpi\n      dup1\n      0xd9a59e33\n      eq\n      tag_10\n      jumpi\n      dup1\n      0xf340fa01\n      eq\n      tag_11\n      jumpi\n      jump(tag_1)\n    tag_12:\n      dup1\n      0x0b88adbe\n      eq\n      tag_2\n      jumpi\n      dup1\n      0x300be4fc\n      eq\n      tag_3\n      jumpi\n      dup1\n      0x41ba6e89\n      eq\n      tag_4\n      jumpi\n      dup1\n      0x5e649727\n      eq\n      tag_5\n      jumpi\n      dup1\n      0x644a1370\n      eq\n      tag_6\n      jumpi\n    tag_1:\n      0x00\n      dup1\n      revert\n        /* \"Users/TracyMichael1/Desktop/approved-experiences/Smart Contracts/BikeChain.sol\":2998:3122  function canRentBike(address walletAddress) public view returns(bool) {... */\n    tag_2:\n      callvalue\n      dup1\n      iszero\n      tag_13\n      jumpi\n      0x00\n      dup1\n      revert\n    tag_13:\n      pop\n      tag_14\n      0x04\n      dup1\n      calldatasize\n      sub\n      dup2\n      add\n      swap1\n      tag_15\n      swap2\n      swap1\n      tag_16\n      jump\t// in\n    tag_15:\n      tag_17\n      jump\t// in\n    tag_14:\n      mload(0x40)\n      tag_18\n      swap2\n      swap1\n      tag_19\n      jump\t// in\n    tag_18:\n      mload(0x40)\n      dup1\n      swap2\n      sub\n      swap1\n      return\n        /* \"Users/TracyMichael1/Desktop/approved-experiences/Smart Contracts/BikeChain.sol\":3284:3804  function makePayment(address walletAddress) payable public {... */\n    tag_3:\n      tag_20\n      0x04\n      dup1\n      calldatasize\n      sub\n      dup2\n      add\n      swap1\n      tag_21\n      swap2\n      swap1\n      tag_16\n      jump\t// in\n    tag_21:\n      tag_22\n      jump\t// in\n    tag_20:\n      stop\n        /* \"Users/TracyMichael1/Desktop/approved-experiences/Smart Contracts/BikeChain.sol\":1843:2288  function getTotalDuration(address walletAddress) public view returns(uint) {... */\n    tag_4:\n      callvalue\n      dup1\n      iszero\n      tag_23\n      jumpi\n      0x00\n      dup1\n      revert\n    tag_23:\n      pop\n      tag_24\n      0x04\n      dup1\n      calldatasize\n      sub\n      dup2\n      add\n      swap1\n      tag_25\n      swap2\n      swap1\n      tag_16\n      jump\t// in\n    tag_25:\n      tag_26\n      jump\t// in\n    tag_24:\n      mload(0x40)\n      tag_27\n      swap2\n      swap1\n      tag_28\n      jump\t// in\n    tag_27:\n      mload(0x40)\n      dup1\n      swap2\n      sub\n      swap1\n      return\n        /* \"Users/TracyMichael1/Desktop/approved-experiences/Smart Contracts/BikeChain.sol\":554:870  function addRenter(address payable walletAddress, string memory firstName, string memory lastName, bool canRent, bool active, uint balance, uint due, uint start, uint end) ... */\n    tag_5:\n      callvalue\n      dup1\n      iszero\n      tag_29\n      jumpi\n      0x00\n      dup1\n      revert\n    tag_29:\n      pop\n      tag_30\n      0x04\n      dup1\n      calldatasize\n      sub\n      dup2\n      add\n      swap1\n      tag_31\n      swap2\n      swap1\n      tag_32\n      jump\t// in\n    tag_31:\n      tag_33\n      jump\t// in\n    tag_30:\n      stop\n        /* \"Users/TracyMichael1/Desktop/approved-experiences/Smart Contracts/BikeChain.sol\":505:547  mapping (address => Renter) public renters */\n    tag_6:\n      callvalue\n      dup1\n      iszero\n      tag_34\n      jumpi\n      0x00\n      dup1\n      revert\n    tag_34:\n      pop\n      tag_35\n      0x04\n      dup1\n      calldatasize\n      sub\n      dup2\n      add\n      swap1\n      tag_36\n      swap2\n      swap1\n      tag_16\n      jump\t// in\n    tag_36:\n      tag_37\n      jump\t// in\n    tag_35:\n      mload(0x40)\n      tag_38\n      swap10\n      swap9\n      swap8\n      swap7\n      swap6\n      swap5\n      swap4\n      swap3\n      swap2\n      swap1\n      tag_39\n      jump\t// in\n    tag_38:\n      mload(0x40)\n      dup1\n      swap2\n      sub\n      swap1\n      return\n        /* \"Users/TracyMichael1/Desktop/approved-experiences/Smart Contracts/BikeChain.sol\":2326:2486  function balanceOf() view public returns(uint) {... */\n    tag_7:\n      callvalue\n      dup1\n      iszero\n      tag_40\n      jumpi\n      0x00\n      dup1\n      revert\n    tag_40:\n      pop\n      tag_41\n      tag_42\n      jump\t// in\n    tag_41:\n      mload(0x40)\n      tag_43\n      swap2\n      swap1\n      tag_28\n      jump\t// in\n    tag_43:\n      mload(0x40)\n      dup1\n      swap2\n      sub\n      swap1\n      return\n        /* \"Users/TracyMichael1/Desktop/approved-experiences/Smart Contracts/BikeChain.sol\":898:1308  function checkOut(address walletAddress) public {... */\n    tag_8:\n      callvalue\n      dup1\n      iszero\n      tag_44\n      jumpi\n      0x00\n      dup1\n      revert\n    tag_44:\n      pop\n      tag_45\n      0x04\n      dup1\n      calldatasize\n      sub\n      dup2\n      add\n      swap1\n      tag_46\n      swap2\n      swap1\n      tag_16\n      jump\t// in\n    tag_46:\n      tag_47\n      jump\t// in\n    tag_45:\n      stop\n        /* \"Users/TracyMichael1/Desktop/approved-experiences/Smart Contracts/BikeChain.sol\":2521:2649  function balanceOfRenter(address walletAddress) public view returns(uint) {... */\n    tag_9:\n      callvalue\n      dup1\n      iszero\n      tag_48\n      jumpi\n      0x00\n      dup1\n      revert\n    tag_48:\n      pop\n      tag_49\n      0x04\n      dup1\n      calldatasize\n      sub\n      dup2\n      add\n      swap1\n      tag_50\n      swap2\n      swap1\n      tag_16\n      jump\t// in\n    tag_50:\n      tag_51\n      jump\t// in\n    tag_49:\n      mload(0x40)\n      tag_52\n      swap2\n      swap1\n      tag_28\n      jump\t// in\n    tag_52:\n      mload(0x40)\n      dup1\n      swap2\n      sub\n      swap1\n      return\n        /* \"Users/TracyMichael1/Desktop/approved-experiences/Smart Contracts/BikeChain.sol\":1337:1618  function checkIn(address walletAddress) public {... */\n    tag_10:\n      callvalue\n      dup1\n      iszero\n      tag_53\n      jumpi\n      0x00\n      dup1\n      revert\n    tag_53:\n      pop\n      tag_54\n      0x04\n      dup1\n      calldatasize\n      sub\n      dup2\n      add\n      swap1\n      tag_55\n      swap2\n      swap1\n      tag_16\n      jump\t// in\n    tag_55:\n      tag_56\n      jump\t// in\n    tag_54:\n      stop\n        /* \"Users/TracyMichael1/Desktop/approved-experiences/Smart Contracts/BikeChain.sol\":3143:3258  function deposit(address walletAddress) payable public {... */\n    tag_11:\n      tag_57\n      0x04\n      dup1\n      calldatasize\n      sub\n      dup2\n      add\n      swap1\n      tag_58\n      swap2\n      swap1\n      tag_16\n      jump\t// in\n    tag_58:\n      tag_59\n      jump\t// in\n    tag_57:\n      stop\n        /* \"Users/TracyMichael1/Desktop/approved-experiences/Smart Contracts/BikeChain.sol\":2998:3122  function canRentBike(address walletAddress) public view returns(bool) {... */\n    tag_17:\n        /* \"Users/TracyMichael1/Desktop/approved-experiences/Smart Contracts/BikeChain.sol\":3062:3066  bool */\n      0x00\n        /* \"Users/TracyMichael1/Desktop/approved-experiences/Smart Contracts/BikeChain.sol\":3085:3092  renters */\n      0x01\n        /* \"Users/TracyMichael1/Desktop/approved-experiences/Smart Contracts/BikeChain.sol\":3085:3107  renters[walletAddress] */\n      0x00\n        /* \"Users/TracyMichael1/Desktop/approved-experiences/Smart Contracts/BikeChain.sol\":3093:3106  walletAddress */\n      dup4\n        /* \"Users/TracyMichael1/Desktop/approved-experiences/Smart Contracts/BikeChain.sol\":3085:3107  renters[walletAddress] */\n      0xffffffffffffffffffffffffffffffffffffffff\n      and\n      0xffffffffffffffffffffffffffffffffffffffff\n      and\n      dup2\n      mstore\n      0x20\n      add\n      swap1\n      dup2\n      mstore\n      0x20\n      add\n      0x00\n      keccak256\n        /* \"Users/TracyMichael1/Desktop/approved-experiences/Smart Contracts/BikeChain.sol\":3085:3115  renters[walletAddress].canRent */\n      0x03\n      add\n      0x00\n      swap1\n      sload\n      swap1\n      0x0100\n      exp\n      swap1\n      div\n      0xff\n      and\n        /* \"Users/TracyMichael1/Desktop/approved-experiences/Smart Contracts/BikeChain.sol\":3078:3115  return renters[walletAddress].canRent */\n      swap1\n      pop\n        /* \"Users/TracyMichael1/Desktop/approved-experiences/Smart Contracts/BikeChain.sol\":2998:3122  function canRentBike(address walletAddress) public view returns(bool) {... */\n      swap2\n      swap1\n      pop\n      jump\t// out\n        /* \"Users/TracyMichael1/Desktop/approved-experiences/Smart Contracts/BikeChain.sol\":3284:3804  function makePayment(address walletAddress) payable public {... */\n    tag_22:\n        /* \"Users/TracyMichael1/Desktop/approved-experiences/Smart Contracts/BikeChain.sol\":3390:3391  0 */\n      0x00\n        /* \"Users/TracyMichael1/Desktop/approved-experiences/Smart Contracts/BikeChain.sol\":3361:3368  renters */\n      0x01\n        /* \"Users/TracyMichael1/Desktop/approved-experiences/Smart Contracts/BikeChain.sol\":3361:3383  renters[walletAddress] */\n      0x00\n        /* \"Users/TracyMichael1/Desktop/approved-experiences/Smart Contracts/BikeChain.sol\":3369:3382  walletAddress */\n      dup4\n        /* \"Users/TracyMichael1/Desktop/approved-experiences/Smart Contracts/BikeChain.sol\":3361:3383  renters[walletAddress] */\n      0xffffffffffffffffffffffffffffffffffffffff\n      and\n      0xffffffffffffffffffffffffffffffffffffffff\n      and\n      dup2\n      mstore\n      0x20\n      add\n      swap1\n      dup2\n      mstore\n      0x20\n      add\n      0x00\n      keccak256\n        /* \"Users/TracyMichael1/Desktop/approved-experiences/Smart Contracts/BikeChain.sol\":3361:3387  renters[walletAddress].due */\n      0x05\n      add\n      sload\n        /* \"Users/TracyMichael1/Desktop/approved-experiences/Smart Contracts/BikeChain.sol\":3361:3391  renters[walletAddress].due > 0 */\n      gt\n        /* \"Users/TracyMichael1/Desktop/approved-experiences/Smart Contracts/BikeChain.sol\":3353:3438  require(renters[walletAddress].due > 0, \"You do not have anything due at this time.\") */\n      tag_62\n      jumpi\n      mload(0x40)\n      0x08c379a000000000000000000000000000000000000000000000000000000000\n      dup2\n      mstore\n      0x04\n      add\n      tag_63\n      swap1\n      tag_64\n      jump\t// in\n    tag_63:\n      mload(0x40)\n      dup1\n      swap2\n      sub\n      swap1\n      revert\n    tag_62:\n        /* \"Users/TracyMichael1/Desktop/approved-experiences/Smart Contracts/BikeChain.sol\":3489:3498  msg.value */\n      callvalue\n        /* \"Users/TracyMichael1/Desktop/approved-experiences/Smart Contracts/BikeChain.sol\":3456:3463  renters */\n      0x01\n        /* \"Users/TracyMichael1/Desktop/approved-experiences/Smart Contracts/BikeChain.sol\":3456:3478  renters[walletAddress] */\n      0x00\n        /* \"Users/TracyMichael1/Desktop/approved-experiences/Smart Contracts/BikeChain.sol\":3464:3477  walletAddress */\n      dup4\n        /* \"Users/TracyMichael1/Desktop/approved-experiences/Smart Contracts/BikeChain.sol\":3456:3478  renters[walletAddress] */\n      0xffffffffffffffffffffffffffffffffffffffff\n      and\n      0xffffffffffffffffffffffffffffffffffffffff\n      and\n      dup2\n      mstore\n      0x20\n      add\n      swap1\n      dup2\n      mstore\n      0x20\n      add\n      0x00\n      keccak256\n        /* \"Users/TracyMichael1/Desktop/approved-experiences/Smart Contracts/BikeChain.sol\":3456:3486  renters[walletAddress].balance */\n      0x04\n      add\n      sload\n        /* \"Users/TracyMichael1/Desktop/approved-experiences/Smart Contracts/BikeChain.sol\":3456:3498  renters[walletAddress].balance > msg.value */\n      gt\n        /* \"Users/TracyMichael1/Desktop/approved-experiences/Smart Contracts/BikeChain.sol\":3448:3571  require(renters[walletAddress].balance > msg.value, \"You do not have enough funds to cover payment. Please make a deposit\") */\n      tag_65\n      jumpi\n      mload(0x40)\n      0x08c379a000000000000000000000000000000000000000000000000000000000\n      dup2\n      mstore\n      0x04\n      add\n      tag_66\n      swap1\n      tag_67\n      jump\t// in\n    tag_66:\n      mload(0x40)\n      dup1\n      swap2\n      sub\n      swap1\n      revert\n    tag_65:\n        /* \"Users/TracyMichael1/Desktop/approved-experiences/Smart Contracts/BikeChain.sol\":3615:3624  msg.value */\n      callvalue\n        /* \"Users/TracyMichael1/Desktop/approved-experiences/Smart Contracts/BikeChain.sol\":3581:3588  renters */\n      0x01\n        /* \"Users/TracyMichael1/Desktop/approved-experiences/Smart Contracts/BikeChain.sol\":3581:3603  renters[walletAddress] */\n      0x00\n        /* \"Users/TracyMichael1/Desktop/approved-experiences/Smart Contracts/BikeChain.sol\":3589:3602  walletAddress */\n      dup4\n        /* \"Users/TracyMichael1/Desktop/approved-experiences/Smart Contracts/BikeChain.sol\":3581:3603  renters[walletAddress] */\n      0xffffffffffffffffffffffffffffffffffffffff\n      and\n      0xffffffffffffffffffffffffffffffffffffffff\n      and\n      dup2\n      mstore\n      0x20\n      add\n      swap1\n      dup2\n      mstore\n      0x20\n      add\n      0x00\n      keccak256\n        /* \"Users/TracyMichael1/Desktop/approved-experiences/Smart Contracts/BikeChain.sol\":3581:3611  renters[walletAddress].balance */\n      0x04\n      add\n      0x00\n        /* \"Users/TracyMichael1/Desktop/approved-experiences/Smart Contracts/BikeChain.sol\":3581:3624  renters[walletAddress].balance -= msg.value */\n      dup3\n      dup3\n      sload\n      tag_68\n      swap2\n      swap1\n      tag_69\n      jump\t// in\n    tag_68:\n      swap3\n      pop\n      pop\n      dup2\n      swap1\n      sstore\n      pop\n        /* \"Users/TracyMichael1/Desktop/approved-experiences/Smart Contracts/BikeChain.sol\":3667:3671  true */\n      0x01\n        /* \"Users/TracyMichael1/Desktop/approved-experiences/Smart Contracts/BikeChain.sol\":3634:3641  renters */\n      dup1\n        /* \"Users/TracyMichael1/Desktop/approved-experiences/Smart Contracts/BikeChain.sol\":3634:3656  renters[walletAddress] */\n      0x00\n        /* \"Users/TracyMichael1/Desktop/approved-experiences/Smart Contracts/BikeChain.sol\":3642:3655  walletAddress */\n      dup4\n        /* \"Users/TracyMichael1/Desktop/approved-experiences/Smart Contracts/BikeChain.sol\":3634:3656  renters[walletAddress] */\n      0xffffffffffffffffffffffffffffffffffffffff\n      and\n      0xffffffffffffffffffffffffffffffffffffffff\n      and\n      dup2\n      mstore\n      0x20\n      add\n      swap1\n      dup2\n      mstore\n      0x20\n      add\n      0x00\n      keccak256\n        /* \"Users/TracyMichael1/Desktop/approved-experiences/Smart Contracts/BikeChain.sol\":3634:3664  renters[walletAddress].canRent */\n      0x03\n      add\n      0x00\n        /* \"Users/TracyMichael1/Desktop/approved-experiences/Smart Contracts/BikeChain.sol\":3634:3671  renters[walletAddress].canRent = true */\n      0x0100\n      exp\n      dup2\n      sload\n      dup2\n      0xff\n      mul\n      not\n      and\n      swap1\n      dup4\n      iszero\n      iszero\n      mul\n      or\n      swap1\n      sstore\n      pop\n        /* \"Users/TracyMichael1/Desktop/approved-experiences/Smart Contracts/BikeChain.sol\":3710:3711  0 */\n      0x00\n        /* \"Users/TracyMichael1/Desktop/approved-experiences/Smart Contracts/BikeChain.sol\":3681:3688  renters */\n      0x01\n        /* \"Users/TracyMichael1/Desktop/approved-experiences/Smart Contracts/BikeChain.sol\":3681:3703  renters[walletAddress] */\n      0x00\n        /* \"Users/TracyMichael1/Desktop/approved-experiences/Smart Contracts/BikeChain.sol\":3689:3702  walletAddress */\n      dup4\n        /* \"Users/TracyMichael1/Desktop/approved-experiences/Smart Contracts/BikeChain.sol\":3681:3703  renters[walletAddress] */\n      0xffffffffffffffffffffffffffffffffffffffff\n      and\n      0xffffffffffffffffffffffffffffffffffffffff\n      and\n      dup2\n      mstore\n      0x20\n      add\n      swap1\n      dup2\n      mstore\n      0x20\n      add\n      0x00\n      keccak256\n        /* \"Users/TracyMichael1/Desktop/approved-experiences/Smart Contracts/BikeChain.sol\":3681:3707  renters[walletAddress].due */\n      0x05\n      add\n        /* \"Users/TracyMichael1/Desktop/approved-experiences/Smart Contracts/BikeChain.sol\":3681:3711  renters[walletAddress].due = 0 */\n      dup2\n      swap1\n      sstore\n      pop\n        /* \"Users/TracyMichael1/Desktop/approved-experiences/Smart Contracts/BikeChain.sol\":3752:3753  0 */\n      0x00\n        /* \"Users/TracyMichael1/Desktop/approved-experiences/Smart Contracts/BikeChain.sol\":3721:3728  renters */\n      0x01\n        /* \"Users/TracyMichael1/Desktop/approved-experiences/Smart Contracts/BikeChain.sol\":3721:3743  renters[walletAddress] */\n      0x00\n        /* \"Users/TracyMichael1/Desktop/approved-experiences/Smart Contracts/BikeChain.sol\":3729:3742  walletAddress */\n      dup4\n        /* \"Users/TracyMichael1/Desktop/approved-experiences/Smart Contracts/BikeChain.sol\":3721:3743  renters[walletAddress] */\n      0xffffffffffffffffffffffffffffffffffffffff\n      and\n      0xffffffffffffffffffffffffffffffffffffffff\n      and\n      dup2\n      mstore\n      0x20\n      add\n      swap1\n      dup2\n      mstore\n      0x20\n      add\n      0x00\n      keccak256\n        /* \"Users/TracyMichael1/Desktop/approved-experiences/Smart Contracts/BikeChain.sol\":3721:3749  renters[walletAddress].start */\n      0x06\n      add\n        /* \"Users/TracyMichael1/Desktop/approved-experiences/Smart Contracts/BikeChain.sol\":3721:3753  renters[walletAddress].start = 0 */\n      dup2\n      swap1\n      sstore\n      pop\n        /* \"Users/TracyMichael1/Desktop/approved-experiences/Smart Contracts/BikeChain.sol\":3792:3793  0 */\n      0x00\n        /* \"Users/TracyMichael1/Desktop/approved-experiences/Smart Contracts/BikeChain.sol\":3763:3770  renters */\n      0x01\n        /* \"Users/TracyMichael1/Desktop/approved-experiences/Smart Contracts/BikeChain.sol\":3763:3785  renters[walletAddress] */\n      0x00\n        /* \"Users/TracyMichael1/Desktop/approved-experiences/Smart Contracts/BikeChain.sol\":3771:3784  walletAddress */\n      dup4\n        /* \"Users/TracyMichael1/Desktop/approved-experiences/Smart Contracts/BikeChain.sol\":3763:3785  renters[walletAddress] */\n      0xffffffffffffffffffffffffffffffffffffffff\n      and\n      0xffffffffffffffffffffffffffffffffffffffff\n      and\n      dup2\n      mstore\n      0x20\n      add\n      swap1\n      dup2\n      mstore\n      0x20\n      add\n      0x00\n      keccak256\n        /* \"Users/TracyMichael1/Desktop/approved-experiences/Smart Contracts/BikeChain.sol\":3763:3789  renters[walletAddress].end */\n      0x07\n      add\n        /* \"Users/TracyMichael1/Desktop/approved-experiences/Smart Contracts/BikeChain.sol\":3763:3793  renters[walletAddress].end = 0 */\n      dup2\n      swap1\n      sstore\n      pop\n        /* \"Users/TracyMichael1/Desktop/approved-experiences/Smart Contracts/BikeChain.sol\":3284:3804  function makePayment(address walletAddress) payable public {... */\n      pop\n      jump\t// out\n        /* \"Users/TracyMichael1/Desktop/approved-experiences/Smart Contracts/BikeChain.sol\":1843:2288  function getTotalDuration(address walletAddress) public view returns(uint) {... */\n    tag_26:\n        /* \"Users/TracyMichael1/Desktop/approved-experiences/Smart Contracts/BikeChain.sol\":1912:1916  uint */\n      0x00\n        /* \"Users/TracyMichael1/Desktop/approved-experiences/Smart Contracts/BikeChain.sol\":1969:1974  false */\n      dup1\n        /* \"Users/TracyMichael1/Desktop/approved-experiences/Smart Contracts/BikeChain.sol\":1936:1974  renters[walletAddress].active == false */\n      iszero\n      iszero\n        /* \"Users/TracyMichael1/Desktop/approved-experiences/Smart Contracts/BikeChain.sol\":1936:1943  renters */\n      0x01\n        /* \"Users/TracyMichael1/Desktop/approved-experiences/Smart Contracts/BikeChain.sol\":1936:1958  renters[walletAddress] */\n      0x00\n        /* \"Users/TracyMichael1/Desktop/approved-experiences/Smart Contracts/BikeChain.sol\":1944:1957  walletAddress */\n      dup5\n        /* \"Users/TracyMichael1/Desktop/approved-experiences/Smart Contracts/BikeChain.sol\":1936:1958  renters[walletAddress] */\n      0xffffffffffffffffffffffffffffffffffffffff\n      and\n      0xffffffffffffffffffffffffffffffffffffffff\n      and\n      dup2\n      mstore\n      0x20\n      add\n      swap1\n      dup2\n      mstore\n      0x20\n      add\n      0x00\n      keccak256\n        /* \"Users/TracyMichael1/Desktop/approved-experiences/Smart Contracts/BikeChain.sol\":1936:1965  renters[walletAddress].active */\n      0x03\n      add\n      0x01\n      swap1\n      sload\n      swap1\n      0x0100\n      exp\n      swap1\n      div\n      0xff\n      and\n        /* \"Users/TracyMichael1/Desktop/approved-experiences/Smart Contracts/BikeChain.sol\":1936:1974  renters[walletAddress].active == false */\n      iszero\n      iszero\n      eq\n        /* \"Users/TracyMichael1/Desktop/approved-experiences/Smart Contracts/BikeChain.sol\":1928:2009  require(renters[walletAddress].active == false, \"Bike is currently checked out.\") */\n      tag_71\n      jumpi\n      mload(0x40)\n      0x08c379a000000000000000000000000000000000000000000000000000000000\n      dup2\n      mstore\n      0x04\n      add\n      tag_72\n      swap1\n      tag_73\n      jump\t// in\n    tag_72:\n      mload(0x40)\n      dup1\n      swap2\n      sub\n      swap1\n      revert\n    tag_71:\n        /* \"Users/TracyMichael1/Desktop/approved-experiences/Smart Contracts/BikeChain.sol\":2280:2281  7 */\n      0x07\n        /* \"Users/TracyMichael1/Desktop/approved-experiences/Smart Contracts/BikeChain.sol\":2273:2281  return 7 */\n      swap1\n      pop\n        /* \"Users/TracyMichael1/Desktop/approved-experiences/Smart Contracts/BikeChain.sol\":1843:2288  function getTotalDuration(address walletAddress) public view returns(uint) {... */\n      swap2\n      swap1\n      pop\n      jump\t// out\n        /* \"Users/TracyMichael1/Desktop/approved-experiences/Smart Contracts/BikeChain.sol\":554:870  function addRenter(address payable walletAddress, string memory firstName, string memory lastName, bool canRent, bool active, uint balance, uint due, uint start, uint end) ... */\n    tag_33:\n        /* \"Users/TracyMichael1/Desktop/approved-experiences/Smart Contracts/BikeChain.sol\":778:863  Renter(walletAddress, firstName, lastName, canRent, active, balance, due, start, end) */\n      mload(0x40)\n      dup1\n      0x0120\n      add\n      0x40\n      mstore\n      dup1\n        /* \"Users/TracyMichael1/Desktop/approved-experiences/Smart Contracts/BikeChain.sol\":785:798  walletAddress */\n      dup11\n        /* \"Users/TracyMichael1/Desktop/approved-experiences/Smart Contracts/BikeChain.sol\":778:863  Renter(walletAddress, firstName, lastName, canRent, active, balance, due, start, end) */\n      0xffffffffffffffffffffffffffffffffffffffff\n      and\n      dup2\n      mstore\n      0x20\n      add\n        /* \"Users/TracyMichael1/Desktop/approved-experiences/Smart Contracts/BikeChain.sol\":800:809  firstName */\n      dup10\n        /* \"Users/TracyMichael1/Desktop/approved-experiences/Smart Contracts/BikeChain.sol\":778:863  Renter(walletAddress, firstName, lastName, canRent, active, balance, due, start, end) */\n      dup2\n      mstore\n      0x20\n      add\n        /* \"Users/TracyMichael1/Desktop/approved-experiences/Smart Contracts/BikeChain.sol\":811:819  lastName */\n      dup9\n        /* \"Users/TracyMichael1/Desktop/approved-experiences/Smart Contracts/BikeChain.sol\":778:863  Renter(walletAddress, firstName, lastName, canRent, active, balance, due, start, end) */\n      dup2\n      mstore\n      0x20\n      add\n        /* \"Users/TracyMichael1/Desktop/approved-experiences/Smart Contracts/BikeChain.sol\":821:828  canRent */\n      dup8\n        /* \"Users/TracyMichael1/Desktop/approved-experiences/Smart Contracts/BikeChain.sol\":778:863  Renter(walletAddress, firstName, lastName, canRent, active, balance, due, start, end) */\n      iszero\n      iszero\n      dup2\n      mstore\n      0x20\n      add\n        /* \"Users/TracyMichael1/Desktop/approved-experiences/Smart Contracts/BikeChain.sol\":830:836  active */\n      dup7\n        /* \"Users/TracyMichael1/Desktop/approved-experiences/Smart Contracts/BikeChain.sol\":778:863  Renter(walletAddress, firstName, lastName, canRent, active, balance, due, start, end) */\n      iszero\n      iszero\n      dup2\n      mstore\n      0x20\n      add\n        /* \"Users/TracyMichael1/Desktop/approved-experiences/Smart Contracts/BikeChain.sol\":838:845  balance */\n      dup6\n        /* \"Users/TracyMichael1/Desktop/approved-experiences/Smart Contracts/BikeChain.sol\":778:863  Renter(walletAddress, firstName, lastName, canRent, active, balance, due, start, end) */\n      dup2\n      mstore\n      0x20\n      add\n        /* \"Users/TracyMichael1/Desktop/approved-experiences/Smart Contracts/BikeChain.sol\":847:850  due */\n      dup5\n        /* \"Users/TracyMichael1/Desktop/approved-experiences/Smart Contracts/BikeChain.sol\":778:863  Renter(walletAddress, firstName, lastName, canRent, active, balance, due, start, end) */\n      dup2\n      mstore\n      0x20\n      add\n        /* \"Users/TracyMichael1/Desktop/approved-experiences/Smart Contracts/BikeChain.sol\":852:857  start */\n      dup4\n        /* \"Users/TracyMichael1/Desktop/approved-experiences/Smart Contracts/BikeChain.sol\":778:863  Renter(walletAddress, firstName, lastName, canRent, active, balance, due, start, end) */\n      dup2\n      mstore\n      0x20\n      add\n        /* \"Users/TracyMichael1/Desktop/approved-experiences/Smart Contracts/BikeChain.sol\":859:862  end */\n      dup3\n        /* \"Users/TracyMichael1/Desktop/approved-experiences/Smart Contracts/BikeChain.sol\":778:863  Renter(walletAddress, firstName, lastName, canRent, active, balance, due, start, end) */\n      dup2\n      mstore\n      pop\n        /* \"Users/TracyMichael1/Desktop/approved-experiences/Smart Contracts/BikeChain.sol\":753:760  renters */\n      0x01\n        /* \"Users/TracyMichael1/Desktop/approved-experiences/Smart Contracts/BikeChain.sol\":753:775  renters[walletAddress] */\n      0x00\n        /* \"Users/TracyMichael1/Desktop/approved-experiences/Smart Contracts/BikeChain.sol\":761:774  walletAddress */\n      dup12\n        /* \"Users/TracyMichael1/Desktop/approved-experiences/Smart Contracts/BikeChain.sol\":753:775  renters[walletAddress] */\n      0xffffffffffffffffffffffffffffffffffffffff\n      and\n      0xffffffffffffffffffffffffffffffffffffffff\n      and\n      dup2\n      mstore\n      0x20\n      add\n      swap1\n      dup2\n      mstore\n      0x20\n      add\n      0x00\n      keccak256\n        /* \"Users/TracyMichael1/Desktop/approved-experiences/Smart Contracts/BikeChain.sol\":753:863  renters[walletAddress] = Renter(walletAddress, firstName, lastName, canRent, active, balance, due, start, end) */\n      0x00\n      dup3\n      add\n      mload\n      dup2\n      0x00\n      add\n      exp(0x0100, 0x00)\n      dup2\n      sload\n      dup2\n      0xffffffffffffffffffffffffffffffffffffffff\n      mul\n      not\n      and\n      swap1\n      dup4\n      0xffffffffffffffffffffffffffffffffffffffff\n      and\n      mul\n      or\n      swap1\n      sstore\n      pop\n      0x20\n      dup3\n      add\n      mload\n      dup2\n      0x01\n      add\n      swap1\n      dup1\n      mload\n      swap1\n      0x20\n      add\n      swap1\n      tag_75\n      swap3\n      swap2\n      swap1\n      tag_76\n      jump\t// in\n    tag_75:\n      pop\n      0x40\n      dup3\n      add\n      mload\n      dup2\n      0x02\n      add\n      swap1\n      dup1\n      mload\n      swap1\n      0x20\n      add\n      swap1\n      tag_77\n      swap3\n      swap2\n      swap1\n      tag_76\n      jump\t// in\n    tag_77:\n      pop\n      0x60\n      dup3\n      add\n      mload\n      dup2\n      0x03\n      add\n      exp(0x0100, 0x00)\n      dup2\n      sload\n      dup2\n      0xff\n      mul\n      not\n      and\n      swap1\n      dup4\n      iszero\n      iszero\n      mul\n      or\n      swap1\n      sstore\n      pop\n      0x80\n      dup3\n      add\n      mload\n      dup2\n      0x03\n      add\n      exp(0x0100, 0x01)\n      dup2\n      sload\n      dup2\n      0xff\n      mul\n      not\n      and\n      swap1\n      dup4\n      iszero\n      iszero\n      mul\n      or\n      swap1\n      sstore\n      pop\n      0xa0\n      dup3\n      add\n      mload\n      dup2\n      0x04\n      add\n      sstore\n      0xc0\n      dup3\n      add\n      mload\n      dup2\n      0x05\n      add\n      sstore\n      0xe0\n      dup3\n      add\n      mload\n      dup2\n      0x06\n      add\n      sstore\n      0x0100\n      dup3\n      add\n      mload\n      dup2\n      0x07\n      add\n      sstore\n      swap1\n      pop\n      pop\n        /* \"Users/TracyMichael1/Desktop/approved-experiences/Smart Contracts/BikeChain.sol\":554:870  function addRenter(address payable walletAddress, string memory firstName, string memory lastName, bool canRent, bool active, uint balance, uint due, uint start, uint end) ... */\n      pop\n      pop\n      pop\n      pop\n      pop\n      pop\n      pop\n      pop\n      pop\n      jump\t// out\n        /* \"Users/TracyMichael1/Desktop/approved-experiences/Smart Contracts/BikeChain.sol\":505:547  mapping (address => Renter) public renters */\n    tag_37:\n      mstore(0x20, 0x01)\n      dup1\n      0x00\n      mstore\n      keccak256(0x00, 0x40)\n      0x00\n      swap2\n      pop\n      swap1\n      pop\n      dup1\n      0x00\n      add\n      0x00\n      swap1\n      sload\n      swap1\n      0x0100\n      exp\n      swap1\n      div\n      0xffffffffffffffffffffffffffffffffffffffff\n      and\n      swap1\n      dup1\n      0x01\n      add\n      dup1\n      sload\n      tag_78\n      swap1\n      tag_79\n      jump\t// in\n    tag_78:\n      dup1\n      0x1f\n      add\n      0x20\n      dup1\n      swap2\n      div\n      mul\n      0x20\n      add\n      mload(0x40)\n      swap1\n      dup2\n      add\n      0x40\n      mstore\n      dup1\n      swap3\n      swap2\n      swap1\n      dup2\n      dup2\n      mstore\n      0x20\n      add\n      dup3\n      dup1\n      sload\n      tag_80\n      swap1\n      tag_79\n      jump\t// in\n    tag_80:\n      dup1\n      iszero\n      tag_81\n      jumpi\n      dup1\n      0x1f\n      lt\n      tag_82\n      jumpi\n      0x0100\n      dup1\n      dup4\n      sload\n      div\n      mul\n      dup4\n      mstore\n      swap2\n      0x20\n      add\n      swap2\n      jump(tag_81)\n    tag_82:\n      dup3\n      add\n      swap2\n      swap1\n      0x00\n      mstore\n      keccak256(0x00, 0x20)\n      swap1\n    tag_83:\n      dup2\n      sload\n      dup2\n      mstore\n      swap1\n      0x01\n      add\n      swap1\n      0x20\n      add\n      dup1\n      dup4\n      gt\n      tag_83\n      jumpi\n      dup3\n      swap1\n      sub\n      0x1f\n      and\n      dup3\n      add\n      swap2\n    tag_81:\n      pop\n      pop\n      pop\n      pop\n      pop\n      swap1\n      dup1\n      0x02\n      add\n      dup1\n      sload\n      tag_84\n      swap1\n      tag_79\n      jump\t// in\n    tag_84:\n      dup1\n      0x1f\n      add\n      0x20\n      dup1\n      swap2\n      div\n      mul\n      0x20\n      add\n      mload(0x40)\n      swap1\n      dup2\n      add\n      0x40\n      mstore\n      dup1\n      swap3\n      swap2\n      swap1\n      dup2\n      dup2\n      mstore\n      0x20\n      add\n      dup3\n      dup1\n      sload\n      tag_85\n      swap1\n      tag_79\n      jump\t// in\n    tag_85:\n      dup1\n      iszero\n      tag_86\n      jumpi\n      dup1\n      0x1f\n      lt\n      tag_87\n      jumpi\n      0x0100\n      dup1\n      dup4\n      sload\n      div\n      mul\n      dup4\n      mstore\n      swap2\n      0x20\n      add\n      swap2\n      jump(tag_86)\n    tag_87:\n      dup3\n      add\n      swap2\n      swap1\n      0x00\n      mstore\n      keccak256(0x00, 0x20)\n      swap1\n    tag_88:\n      dup2\n      sload\n      dup2\n      mstore\n      swap1\n      0x01\n      add\n      swap1\n      0x20\n      add\n      dup1\n      dup4\n      gt\n      tag_88\n      jumpi\n      dup3\n      swap1\n      sub\n      0x1f\n      and\n      dup3\n      add\n      swap2\n    tag_86:\n      pop\n      pop\n      pop\n      pop\n      pop\n      swap1\n      dup1\n      0x03\n      add\n      0x00\n      swap1\n      sload\n      swap1\n      0x0100\n      exp\n      swap1\n      div\n      0xff\n      and\n      swap1\n      dup1\n      0x03\n      add\n      0x01\n      swap1\n      sload\n      swap1\n      0x0100\n      exp\n      swap1\n      div\n      0xff\n      and\n      swap1\n      dup1\n      0x04\n      add\n      sload\n      swap1\n      dup1\n      0x05\n      add\n      sload\n      swap1\n      dup1\n      0x06\n      add\n      sload\n      swap1\n      dup1\n      0x07\n      add\n      sload\n      swap1\n      pop\n      dup10\n      jump\t// out\n        /* \"Users/TracyMichael1/Desktop/approved-experiences/Smart Contracts/BikeChain.sol\":2326:2486  function balanceOf() view public returns(uint) {... */\n    tag_42:\n        /* \"Users/TracyMichael1/Desktop/approved-experiences/Smart Contracts/BikeChain.sol\":2367:2371  uint */\n      0x00\n        /* \"Users/TracyMichael1/Desktop/approved-experiences/Smart Contracts/BikeChain.sol\":2390:2411  address(this).balance */\n      selfbalance\n        /* \"Users/TracyMichael1/Desktop/approved-experiences/Smart Contracts/BikeChain.sol\":2383:2411  return address(this).balance */\n      swap1\n      pop\n        /* \"Users/TracyMichael1/Desktop/approved-experiences/Smart Contracts/BikeChain.sol\":2326:2486  function balanceOf() view public returns(uint) {... */\n      swap1\n      jump\t// out\n        /* \"Users/TracyMichael1/Desktop/approved-experiences/Smart Contracts/BikeChain.sol\":898:1308  function checkOut(address walletAddress) public {... */\n    tag_47:\n        /* \"Users/TracyMichael1/Desktop/approved-experiences/Smart Contracts/BikeChain.sol\":994:995  0 */\n      0x00\n        /* \"Users/TracyMichael1/Desktop/approved-experiences/Smart Contracts/BikeChain.sol\":964:971  renters */\n      0x01\n        /* \"Users/TracyMichael1/Desktop/approved-experiences/Smart Contracts/BikeChain.sol\":964:986  renters[walletAddress] */\n      0x00\n        /* \"Users/TracyMichael1/Desktop/approved-experiences/Smart Contracts/BikeChain.sol\":972:985  walletAddress */\n      dup4\n        /* \"Users/TracyMichael1/Desktop/approved-experiences/Smart Contracts/BikeChain.sol\":964:986  renters[walletAddress] */\n      0xffffffffffffffffffffffffffffffffffffffff\n      and\n      0xffffffffffffffffffffffffffffffffffffffff\n      and\n      dup2\n      mstore\n      0x20\n      add\n      swap1\n      dup2\n      mstore\n      0x20\n      add\n      0x00\n      keccak256\n        /* \"Users/TracyMichael1/Desktop/approved-experiences/Smart Contracts/BikeChain.sol\":964:990  renters[walletAddress].due */\n      0x05\n      add\n      sload\n        /* \"Users/TracyMichael1/Desktop/approved-experiences/Smart Contracts/BikeChain.sol\":964:995  renters[walletAddress].due == 0 */\n      eq\n        /* \"Users/TracyMichael1/Desktop/approved-experiences/Smart Contracts/BikeChain.sol\":956:1027  require(renters[walletAddress].due == 0, \"You have a pending balance.\") */\n      tag_91\n      jumpi\n      mload(0x40)\n      0x08c379a000000000000000000000000000000000000000000000000000000000\n      dup2\n      mstore\n      0x04\n      add\n      tag_92\n      swap1\n      tag_93\n      jump\t// in\n    tag_92:\n      mload(0x40)\n      dup1\n      swap2\n      sub\n      swap1\n      revert\n    tag_91:\n        /* \"Users/TracyMichael1/Desktop/approved-experiences/Smart Contracts/BikeChain.sol\":1079:1083  true */\n      0x01\n        /* \"Users/TracyMichael1/Desktop/approved-experiences/Smart Contracts/BikeChain.sol\":1045:1083  renters[walletAddress].canRent == true */\n      iszero\n      iszero\n        /* \"Users/TracyMichael1/Desktop/approved-experiences/Smart Contracts/BikeChain.sol\":1045:1052  renters */\n      0x01\n        /* \"Users/TracyMichael1/Desktop/approved-experiences/Smart Contracts/BikeChain.sol\":1045:1067  renters[walletAddress] */\n      0x00\n        /* \"Users/TracyMichael1/Desktop/approved-experiences/Smart Contracts/BikeChain.sol\":1053:1066  walletAddress */\n      dup4\n        /* \"Users/TracyMichael1/Desktop/approved-experiences/Smart Contracts/BikeChain.sol\":1045:1067  renters[walletAddress] */\n      0xffffffffffffffffffffffffffffffffffffffff\n      and\n      0xffffffffffffffffffffffffffffffffffffffff\n      and\n      dup2\n      mstore\n      0x20\n      add\n      swap1\n      dup2\n      mstore\n      0x20\n      add\n      0x00\n      keccak256\n        /* \"Users/TracyMichael1/Desktop/approved-experiences/Smart Contracts/BikeChain.sol\":1045:1075  renters[walletAddress].canRent */\n      0x03\n      add\n      0x00\n      swap1\n      sload\n      swap1\n      0x0100\n      exp\n      swap1\n      div\n      0xff\n      and\n        /* \"Users/TracyMichael1/Desktop/approved-experiences/Smart Contracts/BikeChain.sol\":1045:1083  renters[walletAddress].canRent == true */\n      iszero\n      iszero\n      eq\n        /* \"Users/TracyMichael1/Desktop/approved-experiences/Smart Contracts/BikeChain.sol\":1037:1117  require(renters[walletAddress].canRent == true, \"You cannot rent at this time.\") */\n      tag_94\n      jumpi\n      mload(0x40)\n      0x08c379a000000000000000000000000000000000000000000000000000000000\n      dup2\n      mstore\n      0x04\n      add\n      tag_95\n      swap1\n      tag_96\n      jump\t// in\n    tag_95:\n      mload(0x40)\n      dup1\n      swap2\n      sub\n      swap1\n      revert\n    tag_94:\n        /* \"Users/TracyMichael1/Desktop/approved-experiences/Smart Contracts/BikeChain.sol\":1159:1163  true */\n      0x01\n        /* \"Users/TracyMichael1/Desktop/approved-experiences/Smart Contracts/BikeChain.sol\":1127:1134  renters */\n      dup1\n        /* \"Users/TracyMichael1/Desktop/approved-experiences/Smart Contracts/BikeChain.sol\":1127:1149  renters[walletAddress] */\n      0x00\n        /* \"Users/TracyMichael1/Desktop/approved-experiences/Smart Contracts/BikeChain.sol\":1135:1148  walletAddress */\n      dup4\n        /* \"Users/TracyMichael1/Desktop/approved-experiences/Smart Contracts/BikeChain.sol\":1127:1149  renters[walletAddress] */\n      0xffffffffffffffffffffffffffffffffffffffff\n      and\n      0xffffffffffffffffffffffffffffffffffffffff\n      and\n      dup2\n      mstore\n      0x20\n      add\n      swap1\n      dup2\n      mstore\n      0x20\n      add\n      0x00\n      keccak256\n        /* \"Users/TracyMichael1/Desktop/approved-experiences/Smart Contracts/BikeChain.sol\":1127:1156  renters[walletAddress].active */\n      0x03\n      add\n      0x01\n        /* \"Users/TracyMichael1/Desktop/approved-experiences/Smart Contracts/BikeChain.sol\":1127:1163  renters[walletAddress].active = true */\n      0x0100\n      exp\n      dup2\n      sload\n      dup2\n      0xff\n      mul\n      not\n      and\n      swap1\n      dup4\n      iszero\n      iszero\n      mul\n      or\n      swap1\n      sstore\n      pop\n        /* \"Users/TracyMichael1/Desktop/approved-experiences/Smart Contracts/BikeChain.sol\":1204:1219  block.timestamp */\n      timestamp\n        /* \"Users/TracyMichael1/Desktop/approved-experiences/Smart Contracts/BikeChain.sol\":1173:1180  renters */\n      0x01\n        /* \"Users/TracyMichael1/Desktop/approved-experiences/Smart Contracts/BikeChain.sol\":1173:1195  renters[walletAddress] */\n      0x00\n        /* \"Users/TracyMichael1/Desktop/approved-experiences/Smart Contracts/BikeChain.sol\":1181:1194  walletAddress */\n      dup4\n        /* \"Users/TracyMichael1/Desktop/approved-experiences/Smart Contracts/BikeChain.sol\":1173:1195  renters[walletAddress] */\n      0xffffffffffffffffffffffffffffffffffffffff\n      and\n      0xffffffffffffffffffffffffffffffffffffffff\n      and\n      dup2\n      mstore\n      0x20\n      add\n      swap1\n      dup2\n      mstore\n      0x20\n      add\n      0x00\n      keccak256\n        /* \"Users/TracyMichael1/Desktop/approved-experiences/Smart Contracts/BikeChain.sol\":1173:1201  renters[walletAddress].start */\n      0x06\n      add\n        /* \"Users/TracyMichael1/Desktop/approved-experiences/Smart Contracts/BikeChain.sol\":1173:1219  renters[walletAddress].start = block.timestamp */\n      dup2\n      swap1\n      sstore\n      pop\n        /* \"Users/TracyMichael1/Desktop/approved-experiences/Smart Contracts/BikeChain.sol\":1296:1301  false */\n      0x00\n        /* \"Users/TracyMichael1/Desktop/approved-experiences/Smart Contracts/BikeChain.sol\":1263:1270  renters */\n      0x01\n        /* \"Users/TracyMichael1/Desktop/approved-experiences/Smart Contracts/BikeChain.sol\":1263:1285  renters[walletAddress] */\n      0x00\n        /* \"Users/TracyMichael1/Desktop/approved-experiences/Smart Contracts/BikeChain.sol\":1271:1284  walletAddress */\n      dup4\n        /* \"Users/TracyMichael1/Desktop/approved-experiences/Smart Contracts/BikeChain.sol\":1263:1285  renters[walletAddress] */\n      0xffffffffffffffffffffffffffffffffffffffff\n      and\n      0xffffffffffffffffffffffffffffffffffffffff\n      and\n      dup2\n      mstore\n      0x20\n      add\n      swap1\n      dup2\n      mstore\n      0x20\n      add\n      0x00\n      keccak256\n        /* \"Users/TracyMichael1/Desktop/approved-experiences/Smart Contracts/BikeChain.sol\":1263:1293  renters[walletAddress].canRent */\n      0x03\n      add\n      0x00\n        /* \"Users/TracyMichael1/Desktop/approved-experiences/Smart Contracts/BikeChain.sol\":1263:1301  renters[walletAddress].canRent = false */\n      0x0100\n      exp\n      dup2\n      sload\n      dup2\n      0xff\n      mul\n      not\n      and\n      swap1\n      dup4\n      iszero\n      iszero\n      mul\n      or\n      swap1\n      sstore\n      pop\n        /* \"Users/TracyMichael1/Desktop/approved-experiences/Smart Contracts/BikeChain.sol\":898:1308  function checkOut(address walletAddress) public {... */\n      pop\n      jump\t// out\n        /* \"Users/TracyMichael1/Desktop/approved-experiences/Smart Contracts/BikeChain.sol\":2521:2649  function balanceOfRenter(address walletAddress) public view returns(uint) {... */\n    tag_51:\n        /* \"Users/TracyMichael1/Desktop/approved-experiences/Smart Contracts/BikeChain.sol\":2589:2593  uint */\n      0x00\n        /* \"Users/TracyMichael1/Desktop/approved-experiences/Smart Contracts/BikeChain.sol\":2612:2619  renters */\n      0x01\n        /* \"Users/TracyMichael1/Desktop/approved-experiences/Smart Contracts/BikeChain.sol\":2612:2634  renters[walletAddress] */\n      0x00\n        /* \"Users/TracyMichael1/Desktop/approved-experiences/Smart Contracts/BikeChain.sol\":2620:2633  walletAddress */\n      dup4\n        /* \"Users/TracyMichael1/Desktop/approved-experiences/Smart Contracts/BikeChain.sol\":2612:2634  renters[walletAddress] */\n      0xffffffffffffffffffffffffffffffffffffffff\n      and\n      0xffffffffffffffffffffffffffffffffffffffff\n      and\n      dup2\n      mstore\n      0x20\n      add\n      swap1\n      dup2\n      mstore\n      0x20\n      add\n      0x00\n      keccak256\n        /* \"Users/TracyMichael1/Desktop/approved-experiences/Smart Contracts/BikeChain.sol\":2612:2642  renters[walletAddress].balance */\n      0x04\n      add\n      sload\n        /* \"Users/TracyMichael1/Desktop/approved-experiences/Smart Contracts/BikeChain.sol\":2605:2642  return renters[walletAddress].balance */\n      swap1\n      pop\n        /* \"Users/TracyMichael1/Desktop/approved-experiences/Smart Contracts/BikeChain.sol\":2521:2649  function balanceOfRenter(address walletAddress) public view returns(uint) {... */\n      swap2\n      swap1\n      pop\n      jump\t// out\n        /* \"Users/TracyMichael1/Desktop/approved-experiences/Smart Contracts/BikeChain.sol\":1337:1618  function checkIn(address walletAddress) public {... */\n    tag_56:\n        /* \"Users/TracyMichael1/Desktop/approved-experiences/Smart Contracts/BikeChain.sol\":1435:1439  true */\n      0x01\n        /* \"Users/TracyMichael1/Desktop/approved-experiences/Smart Contracts/BikeChain.sol\":1402:1439  renters[walletAddress].active == true */\n      iszero\n      iszero\n        /* \"Users/TracyMichael1/Desktop/approved-experiences/Smart Contracts/BikeChain.sol\":1402:1409  renters */\n      0x01\n        /* \"Users/TracyMichael1/Desktop/approved-experiences/Smart Contracts/BikeChain.sol\":1402:1424  renters[walletAddress] */\n      0x00\n        /* \"Users/TracyMichael1/Desktop/approved-experiences/Smart Contracts/BikeChain.sol\":1410:1423  walletAddress */\n      dup4\n        /* \"Users/TracyMichael1/Desktop/approved-experiences/Smart Contracts/BikeChain.sol\":1402:1424  renters[walletAddress] */\n      0xffffffffffffffffffffffffffffffffffffffff\n      and\n      0xffffffffffffffffffffffffffffffffffffffff\n      and\n      dup2\n      mstore\n      0x20\n      add\n      swap1\n      dup2\n      mstore\n      0x20\n      add\n      0x00\n      keccak256\n        /* \"Users/TracyMichael1/Desktop/approved-experiences/Smart Contracts/BikeChain.sol\":1402:1431  renters[walletAddress].active */\n      0x03\n      add\n      0x01\n      swap1\n      sload\n      swap1\n      0x0100\n      exp\n      swap1\n      div\n      0xff\n      and\n        /* \"Users/TracyMichael1/Desktop/approved-experiences/Smart Contracts/BikeChain.sol\":1402:1439  renters[walletAddress].active == true */\n      iszero\n      iszero\n      eq\n        /* \"Users/TracyMichael1/Desktop/approved-experiences/Smart Contracts/BikeChain.sol\":1394:1474  require(renters[walletAddress].active == true, \"Please check out a bike first.\") */\n      tag_99\n      jumpi\n      mload(0x40)\n      0x08c379a000000000000000000000000000000000000000000000000000000000\n      dup2\n      mstore\n      0x04\n      add\n      tag_100\n      swap1\n      tag_101\n      jump\t// in\n    tag_100:\n      mload(0x40)\n      dup1\n      swap2\n      sub\n      swap1\n      revert\n    tag_99:\n        /* \"Users/TracyMichael1/Desktop/approved-experiences/Smart Contracts/BikeChain.sol\":1516:1521  false */\n      0x00\n        /* \"Users/TracyMichael1/Desktop/approved-experiences/Smart Contracts/BikeChain.sol\":1484:1491  renters */\n      0x01\n        /* \"Users/TracyMichael1/Desktop/approved-experiences/Smart Contracts/BikeChain.sol\":1484:1506  renters[walletAddress] */\n      0x00\n        /* \"Users/TracyMichael1/Desktop/approved-experiences/Smart Contracts/BikeChain.sol\":1492:1505  walletAddress */\n      dup4\n        /* \"Users/TracyMichael1/Desktop/approved-experiences/Smart Contracts/BikeChain.sol\":1484:1506  renters[walletAddress] */\n      0xffffffffffffffffffffffffffffffffffffffff\n      and\n      0xffffffffffffffffffffffffffffffffffffffff\n      and\n      dup2\n      mstore\n      0x20\n      add\n      swap1\n      dup2\n      mstore\n      0x20\n      add\n      0x00\n      keccak256\n        /* \"Users/TracyMichael1/Desktop/approved-experiences/Smart Contracts/BikeChain.sol\":1484:1513  renters[walletAddress].active */\n      0x03\n      add\n      0x01\n        /* \"Users/TracyMichael1/Desktop/approved-experiences/Smart Contracts/BikeChain.sol\":1484:1521  renters[walletAddress].active = false */\n      0x0100\n      exp\n      dup2\n      sload\n      dup2\n      0xff\n      mul\n      not\n      and\n      swap1\n      dup4\n      iszero\n      iszero\n      mul\n      or\n      swap1\n      sstore\n      pop\n        /* \"Users/TracyMichael1/Desktop/approved-experiences/Smart Contracts/BikeChain.sol\":1560:1575  block.timestamp */\n      timestamp\n        /* \"Users/TracyMichael1/Desktop/approved-experiences/Smart Contracts/BikeChain.sol\":1531:1538  renters */\n      0x01\n        /* \"Users/TracyMichael1/Desktop/approved-experiences/Smart Contracts/BikeChain.sol\":1531:1553  renters[walletAddress] */\n      0x00\n        /* \"Users/TracyMichael1/Desktop/approved-experiences/Smart Contracts/BikeChain.sol\":1539:1552  walletAddress */\n      dup4\n        /* \"Users/TracyMichael1/Desktop/approved-experiences/Smart Contracts/BikeChain.sol\":1531:1553  renters[walletAddress] */\n      0xffffffffffffffffffffffffffffffffffffffff\n      and\n      0xffffffffffffffffffffffffffffffffffffffff\n      and\n      dup2\n      mstore\n      0x20\n      add\n      swap1\n      dup2\n      mstore\n      0x20\n      add\n      0x00\n      keccak256\n        /* \"Users/TracyMichael1/Desktop/approved-experiences/Smart Contracts/BikeChain.sol\":1531:1557  renters[walletAddress].end */\n      0x07\n      add\n        /* \"Users/TracyMichael1/Desktop/approved-experiences/Smart Contracts/BikeChain.sol\":1531:1575  renters[walletAddress].end = block.timestamp */\n      dup2\n      swap1\n      sstore\n      pop\n        /* \"Users/TracyMichael1/Desktop/approved-experiences/Smart Contracts/BikeChain.sol\":1585:1606  setDue(walletAddress) */\n      tag_102\n        /* \"Users/TracyMichael1/Desktop/approved-experiences/Smart Contracts/BikeChain.sol\":1592:1605  walletAddress */\n      dup2\n        /* \"Users/TracyMichael1/Desktop/approved-experiences/Smart Contracts/BikeChain.sol\":1585:1591  setDue */\n      tag_103\n        /* \"Users/TracyMichael1/Desktop/approved-experiences/Smart Contracts/BikeChain.sol\":1585:1606  setDue(walletAddress) */\n      jump\t// in\n    tag_102:\n        /* \"Users/TracyMichael1/Desktop/approved-experiences/Smart Contracts/BikeChain.sol\":1337:1618  function checkIn(address walletAddress) public {... */\n      pop\n      jump\t// out\n        /* \"Users/TracyMichael1/Desktop/approved-experiences/Smart Contracts/BikeChain.sol\":3143:3258  function deposit(address walletAddress) payable public {... */\n    tag_59:\n        /* \"Users/TracyMichael1/Desktop/approved-experiences/Smart Contracts/BikeChain.sol\":3242:3251  msg.value */\n      callvalue\n        /* \"Users/TracyMichael1/Desktop/approved-experiences/Smart Contracts/BikeChain.sol\":3208:3215  renters */\n      0x01\n        /* \"Users/TracyMichael1/Desktop/approved-experiences/Smart Contracts/BikeChain.sol\":3208:3230  renters[walletAddress] */\n      0x00\n        /* \"Users/TracyMichael1/Desktop/approved-experiences/Smart Contracts/BikeChain.sol\":3216:3229  walletAddress */\n      dup4\n        /* \"Users/TracyMichael1/Desktop/approved-experiences/Smart Contracts/BikeChain.sol\":3208:3230  renters[walletAddress] */\n      0xffffffffffffffffffffffffffffffffffffffff\n      and\n      0xffffffffffffffffffffffffffffffffffffffff\n      and\n      dup2\n      mstore\n      0x20\n      add\n      swap1\n      dup2\n      mstore\n      0x20\n      add\n      0x00\n      keccak256\n        /* \"Users/TracyMichael1/Desktop/approved-experiences/Smart Contracts/BikeChain.sol\":3208:3238  renters[walletAddress].balance */\n      0x04\n      add\n      0x00\n        /* \"Users/TracyMichael1/Desktop/approved-experiences/Smart Contracts/BikeChain.sol\":3208:3251  renters[walletAddress].balance += msg.value */\n      dup3\n      dup3\n      sload\n      tag_105\n      swap2\n      swap1\n      tag_106\n      jump\t// in\n    tag_105:\n      swap3\n      pop\n      pop\n      dup2\n      swap1\n      sstore\n      pop\n        /* \"Users/TracyMichael1/Desktop/approved-experiences/Smart Contracts/BikeChain.sol\":3143:3258  function deposit(address walletAddress) payable public {... */\n      pop\n      jump\t// out\n        /* \"Users/TracyMichael1/Desktop/approved-experiences/Smart Contracts/BikeChain.sol\":2700:2976  function setDue(address walletAddress) internal {... */\n    tag_103:\n        /* \"Users/TracyMichael1/Desktop/approved-experiences/Smart Contracts/BikeChain.sol\":2758:2778  uint timespanMinutes */\n      0x00\n        /* \"Users/TracyMichael1/Desktop/approved-experiences/Smart Contracts/BikeChain.sol\":2781:2812  getTotalDuration(walletAddress) */\n      tag_108\n        /* \"Users/TracyMichael1/Desktop/approved-experiences/Smart Contracts/BikeChain.sol\":2798:2811  walletAddress */\n      dup3\n        /* \"Users/TracyMichael1/Desktop/approved-experiences/Smart Contracts/BikeChain.sol\":2781:2797  getTotalDuration */\n      tag_26\n        /* \"Users/TracyMichael1/Desktop/approved-experiences/Smart Contracts/BikeChain.sol\":2781:2812  getTotalDuration(walletAddress) */\n      jump\t// in\n    tag_108:\n        /* \"Users/TracyMichael1/Desktop/approved-experiences/Smart Contracts/BikeChain.sol\":2758:2812  uint timespanMinutes = getTotalDuration(walletAddress) */\n      swap1\n      pop\n        /* \"Users/TracyMichael1/Desktop/approved-experiences/Smart Contracts/BikeChain.sol\":2822:2847  uint fiveMinuteIncrements */\n      0x00\n        /* \"Users/TracyMichael1/Desktop/approved-experiences/Smart Contracts/BikeChain.sol\":2868:2869  5 */\n      0x05\n        /* \"Users/TracyMichael1/Desktop/approved-experiences/Smart Contracts/BikeChain.sol\":2850:2865  timespanMinutes */\n      dup3\n        /* \"Users/TracyMichael1/Desktop/approved-experiences/Smart Contracts/BikeChain.sol\":2850:2869  timespanMinutes / 5 */\n      tag_109\n      swap2\n      swap1\n      tag_110\n      jump\t// in\n    tag_109:\n        /* \"Users/TracyMichael1/Desktop/approved-experiences/Smart Contracts/BikeChain.sol\":2822:2869  uint fiveMinuteIncrements = timespanMinutes / 5 */\n      swap1\n      pop\n        /* \"Users/TracyMichael1/Desktop/approved-experiences/Smart Contracts/BikeChain.sol\":2931:2947  5000000000000000 */\n      0x11c37937e08000\n        /* \"Users/TracyMichael1/Desktop/approved-experiences/Smart Contracts/BikeChain.sol\":2908:2928  fiveMinuteIncrements */\n      dup2\n        /* \"Users/TracyMichael1/Desktop/approved-experiences/Smart Contracts/BikeChain.sol\":2908:2947  fiveMinuteIncrements * 5000000000000000 */\n      tag_111\n      swap2\n      swap1\n      tag_112\n      jump\t// in\n    tag_111:\n        /* \"Users/TracyMichael1/Desktop/approved-experiences/Smart Contracts/BikeChain.sol\":2879:2886  renters */\n      0x01\n        /* \"Users/TracyMichael1/Desktop/approved-experiences/Smart Contracts/BikeChain.sol\":2879:2901  renters[walletAddress] */\n      0x00\n        /* \"Users/TracyMichael1/Desktop/approved-experiences/Smart Contracts/BikeChain.sol\":2887:2900  walletAddress */\n      dup6\n        /* \"Users/TracyMichael1/Desktop/approved-experiences/Smart Contracts/BikeChain.sol\":2879:2901  renters[walletAddress] */\n      0xffffffffffffffffffffffffffffffffffffffff\n      and\n      0xffffffffffffffffffffffffffffffffffffffff\n      and\n      dup2\n      mstore\n      0x20\n      add\n      swap1\n      dup2\n      mstore\n      0x20\n      add\n      0x00\n      keccak256\n        /* \"Users/TracyMichael1/Desktop/approved-experiences/Smart Contracts/BikeChain.sol\":2879:2905  renters[walletAddress].due */\n      0x05\n      add\n        /* \"Users/TracyMichael1/Desktop/approved-experiences/Smart Contracts/BikeChain.sol\":2879:2947  renters[walletAddress].due = fiveMinuteIncrements * 5000000000000000 */\n      dup2\n      swap1\n      sstore\n      pop\n        /* \"Users/TracyMichael1/Desktop/approved-experiences/Smart Contracts/BikeChain.sol\":2748:2976  {... */\n      pop\n      pop\n        /* \"Users/TracyMichael1/Desktop/approved-experiences/Smart Contracts/BikeChain.sol\":2700:2976  function setDue(address walletAddress) internal {... */\n      pop\n      jump\t// out\n    tag_76:\n      dup3\n      dup1\n      sload\n      tag_113\n      swap1\n      tag_79\n      jump\t// in\n    tag_113:\n      swap1\n      0x00\n      mstore\n      keccak256(0x00, 0x20)\n      swap1\n      0x1f\n      add\n      0x20\n      swap1\n      div\n      dup2\n      add\n      swap3\n      dup3\n      tag_115\n      jumpi\n      0x00\n      dup6\n      sstore\n      jump(tag_114)\n    tag_115:\n      dup3\n      0x1f\n      lt\n      tag_116\n      jumpi\n      dup1\n      mload\n      not(0xff)\n      and\n      dup4\n      dup1\n      add\n      or\n      dup6\n      sstore\n      jump(tag_114)\n    tag_116:\n      dup3\n      dup1\n      add\n      0x01\n      add\n      dup6\n      sstore\n      dup3\n      iszero\n      tag_114\n      jumpi\n      swap2\n      dup3\n      add\n    tag_117:\n      dup3\n      dup2\n      gt\n      iszero\n      tag_118\n      jumpi\n      dup3\n      mload\n      dup3\n      sstore\n      swap2\n      0x20\n      add\n      swap2\n      swap1\n      0x01\n      add\n      swap1\n      jump(tag_117)\n    tag_118:\n    tag_114:\n      pop\n      swap1\n      pop\n      tag_119\n      swap2\n      swap1\n      tag_120\n      jump\t// in\n    tag_119:\n      pop\n      swap1\n      jump\t// out\n    tag_120:\n    tag_121:\n      dup1\n      dup3\n      gt\n      iszero\n      tag_122\n      jumpi\n      0x00\n      dup2\n      0x00\n      swap1\n      sstore\n      pop\n      0x01\n      add\n      jump(tag_121)\n    tag_122:\n      pop\n      swap1\n      jump\t// out\n        /* \"#utility.yul\":7:419   */\n    tag_124:\n        /* \"#utility.yul\":85:90   */\n      0x00\n        /* \"#utility.yul\":110:176   */\n      tag_126\n        /* \"#utility.yul\":126:175   */\n      tag_127\n        /* \"#utility.yul\":168:174   */\n      dup5\n        /* \"#utility.yul\":126:175   */\n      tag_128\n      jump\t// in\n    tag_127:\n        /* \"#utility.yul\":110:176   */\n      tag_129\n      jump\t// in\n    tag_126:\n        /* \"#utility.yul\":101:176   */\n      swap1\n      pop\n        /* \"#utility.yul\":199:205   */\n      dup3\n        /* \"#utility.yul\":192:197   */\n      dup2\n        /* \"#utility.yul\":185:206   */\n      mstore\n        /* \"#utility.yul\":237:241   */\n      0x20\n        /* \"#utility.yul\":230:235   */\n      dup2\n        /* \"#utility.yul\":226:242   */\n      add\n        /* \"#utility.yul\":275:278   */\n      dup5\n        /* \"#utility.yul\":266:272   */\n      dup5\n        /* \"#utility.yul\":261:264   */\n      dup5\n        /* \"#utility.yul\":257:273   */\n      add\n        /* \"#utility.yul\":254:279   */\n      gt\n        /* \"#utility.yul\":251:363   */\n      iszero\n      tag_130\n      jumpi\n        /* \"#utility.yul\":282:361   */\n      tag_131\n      tag_132\n      jump\t// in\n    tag_131:\n        /* \"#utility.yul\":251:363   */\n    tag_130:\n        /* \"#utility.yul\":372:413   */\n      tag_133\n        /* \"#utility.yul\":406:412   */\n      dup5\n        /* \"#utility.yul\":401:404   */\n      dup3\n        /* \"#utility.yul\":396:399   */\n      dup6\n        /* \"#utility.yul\":372:413   */\n      tag_134\n      jump\t// in\n    tag_133:\n        /* \"#utility.yul\":91:419   */\n      pop\n        /* \"#utility.yul\":7:419   */\n      swap4\n      swap3\n      pop\n      pop\n      pop\n      jump\t// out\n        /* \"#utility.yul\":425:564   */\n    tag_135:\n        /* \"#utility.yul\":471:476   */\n      0x00\n        /* \"#utility.yul\":509:515   */\n      dup2\n        /* \"#utility.yul\":496:516   */\n      calldataload\n        /* \"#utility.yul\":487:516   */\n      swap1\n      pop\n        /* \"#utility.yul\":525:558   */\n      tag_137\n        /* \"#utility.yul\":552:557   */\n      dup2\n        /* \"#utility.yul\":525:558   */\n      tag_138\n      jump\t// in\n    tag_137:\n        /* \"#utility.yul\":425:564   */\n      swap3\n      swap2\n      pop\n      pop\n      jump\t// out\n        /* \"#utility.yul\":570:725   */\n    tag_139:\n        /* \"#utility.yul\":624:629   */\n      0x00\n        /* \"#utility.yul\":662:668   */\n      dup2\n        /* \"#utility.yul\":649:669   */\n      calldataload\n        /* \"#utility.yul\":640:669   */\n      swap1\n      pop\n        /* \"#utility.yul\":678:719   */\n      tag_141\n        /* \"#utility.yul\":713:718   */\n      dup2\n        /* \"#utility.yul\":678:719   */\n      tag_142\n      jump\t// in\n    tag_141:\n        /* \"#utility.yul\":570:725   */\n      swap3\n      swap2\n      pop\n      pop\n      jump\t// out\n        /* \"#utility.yul\":731:864   */\n    tag_143:\n        /* \"#utility.yul\":774:779   */\n      0x00\n        /* \"#utility.yul\":812:818   */\n      dup2\n        /* \"#utility.yul\":799:819   */\n      calldataload\n        /* \"#utility.yul\":790:819   */\n      swap1\n      pop\n        /* \"#utility.yul\":828:858   */\n      tag_145\n        /* \"#utility.yul\":852:857   */\n      dup2\n        /* \"#utility.yul\":828:858   */\n      tag_146\n      jump\t// in\n    tag_145:\n        /* \"#utility.yul\":731:864   */\n      swap3\n      swap2\n      pop\n      pop\n      jump\t// out\n        /* \"#utility.yul\":884:1224   */\n    tag_147:\n        /* \"#utility.yul\":940:945   */\n      0x00\n        /* \"#utility.yul\":989:992   */\n      dup3\n        /* \"#utility.yul\":982:986   */\n      0x1f\n        /* \"#utility.yul\":974:980   */\n      dup4\n        /* \"#utility.yul\":970:987   */\n      add\n        /* \"#utility.yul\":966:993   */\n      slt\n        /* \"#utility.yul\":956:1078   */\n      tag_149\n      jumpi\n        /* \"#utility.yul\":997:1076   */\n      tag_150\n      tag_151\n      jump\t// in\n    tag_150:\n        /* \"#utility.yul\":956:1078   */\n    tag_149:\n        /* \"#utility.yul\":1114:1120   */\n      dup2\n        /* \"#utility.yul\":1101:1121   */\n      calldataload\n        /* \"#utility.yul\":1139:1218   */\n      tag_152\n        /* \"#utility.yul\":1214:1217   */\n      dup5\n        /* \"#utility.yul\":1206:1212   */\n      dup3\n        /* \"#utility.yul\":1199:1203   */\n      0x20\n        /* \"#utility.yul\":1191:1197   */\n      dup7\n        /* \"#utility.yul\":1187:1204   */\n      add\n        /* \"#utility.yul\":1139:1218   */\n      tag_124\n      jump\t// in\n    tag_152:\n        /* \"#utility.yul\":1130:1218   */\n      swap2\n      pop\n        /* \"#utility.yul\":946:1224   */\n      pop\n        /* \"#utility.yul\":884:1224   */\n      swap3\n      swap2\n      pop\n      pop\n      jump\t// out\n        /* \"#utility.yul\":1230:1369   */\n    tag_153:\n        /* \"#utility.yul\":1276:1281   */\n      0x00\n        /* \"#utility.yul\":1314:1320   */\n      dup2\n        /* \"#utility.yul\":1301:1321   */\n      calldataload\n        /* \"#utility.yul\":1292:1321   */\n      swap1\n      pop\n        /* \"#utility.yul\":1330:1363   */\n      tag_155\n        /* \"#utility.yul\":1357:1362   */\n      dup2\n        /* \"#utility.yul\":1330:1363   */\n      tag_156\n      jump\t// in\n    tag_155:\n        /* \"#utility.yul\":1230:1369   */\n      swap3\n      swap2\n      pop\n      pop\n      jump\t// out\n        /* \"#utility.yul\":1375:1704   */\n    tag_16:\n        /* \"#utility.yul\":1434:1440   */\n      0x00\n        /* \"#utility.yul\":1483:1485   */\n      0x20\n        /* \"#utility.yul\":1471:1480   */\n      dup3\n        /* \"#utility.yul\":1462:1469   */\n      dup5\n        /* \"#utility.yul\":1458:1481   */\n      sub\n        /* \"#utility.yul\":1454:1486   */\n      slt\n        /* \"#utility.yul\":1451:1570   */\n      iszero\n      tag_158\n      jumpi\n        /* \"#utility.yul\":1489:1568   */\n      tag_159\n      tag_160\n      jump\t// in\n    tag_159:\n        /* \"#utility.yul\":1451:1570   */\n    tag_158:\n        /* \"#utility.yul\":1609:1610   */\n      0x00\n        /* \"#utility.yul\":1634:1687   */\n      tag_161\n        /* \"#utility.yul\":1679:1686   */\n      dup5\n        /* \"#utility.yul\":1670:1676   */\n      dup3\n        /* \"#utility.yul\":1659:1668   */\n      dup6\n        /* \"#utility.yul\":1655:1677   */\n      add\n        /* \"#utility.yul\":1634:1687   */\n      tag_135\n      jump\t// in\n    tag_161:\n        /* \"#utility.yul\":1624:1687   */\n      swap2\n      pop\n        /* \"#utility.yul\":1580:1697   */\n      pop\n        /* \"#utility.yul\":1375:1704   */\n      swap3\n      swap2\n      pop\n      pop\n      jump\t// out\n        /* \"#utility.yul\":1710:3569   */\n    tag_32:\n        /* \"#utility.yul\":1863:1869   */\n      0x00\n        /* \"#utility.yul\":1871:1877   */\n      dup1\n        /* \"#utility.yul\":1879:1885   */\n      0x00\n        /* \"#utility.yul\":1887:1893   */\n      dup1\n        /* \"#utility.yul\":1895:1901   */\n      0x00\n        /* \"#utility.yul\":1903:1909   */\n      dup1\n        /* \"#utility.yul\":1911:1917   */\n      0x00\n        /* \"#utility.yul\":1919:1925   */\n      dup1\n        /* \"#utility.yul\":1927:1933   */\n      0x00\n        /* \"#utility.yul\":1976:1979   */\n      0x0120\n        /* \"#utility.yul\":1964:1973   */\n      dup11\n        /* \"#utility.yul\":1955:1962   */\n      dup13\n        /* \"#utility.yul\":1951:1974   */\n      sub\n        /* \"#utility.yul\":1947:1980   */\n      slt\n        /* \"#utility.yul\":1944:2064   */\n      iszero\n      tag_163\n      jumpi\n        /* \"#utility.yul\":1983:2062   */\n      tag_164\n      tag_160\n      jump\t// in\n    tag_164:\n        /* \"#utility.yul\":1944:2064   */\n    tag_163:\n        /* \"#utility.yul\":2103:2104   */\n      0x00\n        /* \"#utility.yul\":2128:2189   */\n      tag_165\n        /* \"#utility.yul\":2181:2188   */\n      dup13\n        /* \"#utility.yul\":2172:2178   */\n      dup3\n        /* \"#utility.yul\":2161:2170   */\n      dup14\n        /* \"#utility.yul\":2157:2179   */\n      add\n        /* \"#utility.yul\":2128:2189   */\n      tag_139\n      jump\t// in\n    tag_165:\n        /* \"#utility.yul\":2118:2189   */\n      swap10\n      pop\n        /* \"#utility.yul\":2074:2199   */\n      pop\n        /* \"#utility.yul\":2266:2268   */\n      0x20\n        /* \"#utility.yul\":2255:2264   */\n      dup11\n        /* \"#utility.yul\":2251:2269   */\n      add\n        /* \"#utility.yul\":2238:2270   */\n      calldataload\n        /* \"#utility.yul\":2297:2315   */\n      0xffffffffffffffff\n        /* \"#utility.yul\":2289:2295   */\n      dup2\n        /* \"#utility.yul\":2286:2316   */\n      gt\n        /* \"#utility.yul\":2283:2400   */\n      iszero\n      tag_166\n      jumpi\n        /* \"#utility.yul\":2319:2398   */\n      tag_167\n      tag_168\n      jump\t// in\n    tag_167:\n        /* \"#utility.yul\":2283:2400   */\n    tag_166:\n        /* \"#utility.yul\":2424:2487   */\n      tag_169\n        /* \"#utility.yul\":2479:2486   */\n      dup13\n        /* \"#utility.yul\":2470:2476   */\n      dup3\n        /* \"#utility.yul\":2459:2468   */\n      dup14\n        /* \"#utility.yul\":2455:2477   */\n      add\n        /* \"#utility.yul\":2424:2487   */\n      tag_147\n      jump\t// in\n    tag_169:\n        /* \"#utility.yul\":2414:2487   */\n      swap9\n      pop\n        /* \"#utility.yul\":2209:2497   */\n      pop\n        /* \"#utility.yul\":2564:2566   */\n      0x40\n        /* \"#utility.yul\":2553:2562   */\n      dup11\n        /* \"#utility.yul\":2549:2567   */\n      add\n        /* \"#utility.yul\":2536:2568   */\n      calldataload\n        /* \"#utility.yul\":2595:2613   */\n      0xffffffffffffffff\n        /* \"#utility.yul\":2587:2593   */\n      dup2\n        /* \"#utility.yul\":2584:2614   */\n      gt\n        /* \"#utility.yul\":2581:2698   */\n      iszero\n      tag_170\n      jumpi\n        /* \"#utility.yul\":2617:2696   */\n      tag_171\n      tag_168\n      jump\t// in\n    tag_171:\n        /* \"#utility.yul\":2581:2698   */\n    tag_170:\n        /* \"#utility.yul\":2722:2785   */\n      tag_172\n        /* \"#utility.yul\":2777:2784   */\n      dup13\n        /* \"#utility.yul\":2768:2774   */\n      dup3\n        /* \"#utility.yul\":2757:2766   */\n      dup14\n        /* \"#utility.yul\":2753:2775   */\n      add\n        /* \"#utility.yul\":2722:2785   */\n      tag_147\n      jump\t// in\n    tag_172:\n        /* \"#utility.yul\":2712:2785   */\n      swap8\n      pop\n        /* \"#utility.yul\":2507:2795   */\n      pop\n        /* \"#utility.yul\":2834:2836   */\n      0x60\n        /* \"#utility.yul\":2860:2910   */\n      tag_173\n        /* \"#utility.yul\":2902:2909   */\n      dup13\n        /* \"#utility.yul\":2893:2899   */\n      dup3\n        /* \"#utility.yul\":2882:2891   */\n      dup14\n        /* \"#utility.yul\":2878:2900   */\n      add\n        /* \"#utility.yul\":2860:2910   */\n      tag_143\n      jump\t// in\n    tag_173:\n        /* \"#utility.yul\":2850:2910   */\n      swap7\n      pop\n        /* \"#utility.yul\":2805:2920   */\n      pop\n        /* \"#utility.yul\":2959:2962   */\n      0x80\n        /* \"#utility.yul\":2986:3036   */\n      tag_174\n        /* \"#utility.yul\":3028:3035   */\n      dup13\n        /* \"#utility.yul\":3019:3025   */\n      dup3\n        /* \"#utility.yul\":3008:3017   */\n      dup14\n        /* \"#utility.yul\":3004:3026   */\n      add\n        /* \"#utility.yul\":2986:3036   */\n      tag_143\n      jump\t// in\n    tag_174:\n        /* \"#utility.yul\":2976:3036   */\n      swap6\n      pop\n        /* \"#utility.yul\":2930:3046   */\n      pop\n        /* \"#utility.yul\":3085:3088   */\n      0xa0\n        /* \"#utility.yul\":3112:3165   */\n      tag_175\n        /* \"#utility.yul\":3157:3164   */\n      dup13\n        /* \"#utility.yul\":3148:3154   */\n      dup3\n        /* \"#utility.yul\":3137:3146   */\n      dup14\n        /* \"#utility.yul\":3133:3155   */\n      add\n        /* \"#utility.yul\":3112:3165   */\n      tag_153\n      jump\t// in\n    tag_175:\n        /* \"#utility.yul\":3102:3165   */\n      swap5\n      pop\n        /* \"#utility.yul\":3056:3175   */\n      pop\n        /* \"#utility.yul\":3214:3217   */\n      0xc0\n        /* \"#utility.yul\":3241:3294   */\n      tag_176\n        /* \"#utility.yul\":3286:3293   */\n      dup13\n        /* \"#utility.yul\":3277:3283   */\n      dup3\n        /* \"#utility.yul\":3266:3275   */\n      dup14\n        /* \"#utility.yul\":3262:3284   */\n      add\n        /* \"#utility.yul\":3241:3294   */\n      tag_153\n      jump\t// in\n    tag_176:\n        /* \"#utility.yul\":3231:3294   */\n      swap4\n      pop\n        /* \"#utility.yul\":3185:3304   */\n      pop\n        /* \"#utility.yul\":3343:3346   */\n      0xe0\n        /* \"#utility.yul\":3370:3423   */\n      tag_177\n        /* \"#utility.yul\":3415:3422   */\n      dup13\n        /* \"#utility.yul\":3406:3412   */\n      dup3\n        /* \"#utility.yul\":3395:3404   */\n      dup14\n        /* \"#utility.yul\":3391:3413   */\n      add\n        /* \"#utility.yul\":3370:3423   */\n      tag_153\n      jump\t// in\n    tag_177:\n        /* \"#utility.yul\":3360:3423   */\n      swap3\n      pop\n        /* \"#utility.yul\":3314:3433   */\n      pop\n        /* \"#utility.yul\":3472:3475   */\n      0x0100\n        /* \"#utility.yul\":3499:3552   */\n      tag_178\n        /* \"#utility.yul\":3544:3551   */\n      dup13\n        /* \"#utility.yul\":3535:3541   */\n      dup3\n        /* \"#utility.yul\":3524:3533   */\n      dup14\n        /* \"#utility.yul\":3520:3542   */\n      add\n        /* \"#utility.yul\":3499:3552   */\n      tag_153\n      jump\t// in\n    tag_178:\n        /* \"#utility.yul\":3489:3552   */\n      swap2\n      pop\n        /* \"#utility.yul\":3443:3562   */\n      pop\n        /* \"#utility.yul\":1710:3569   */\n      swap3\n      swap6\n      swap9\n      pop\n      swap3\n      swap6\n      swap9\n      pop\n      swap3\n      swap6\n      swap9\n      jump\t// out\n        /* \"#utility.yul\":3575:3717   */\n    tag_179:\n        /* \"#utility.yul\":3678:3710   */\n      tag_181\n        /* \"#utility.yul\":3704:3709   */\n      dup2\n        /* \"#utility.yul\":3678:3710   */\n      tag_182\n      jump\t// in\n    tag_181:\n        /* \"#utility.yul\":3673:3676   */\n      dup3\n        /* \"#utility.yul\":3666:3711   */\n      mstore\n        /* \"#utility.yul\":3575:3717   */\n      pop\n      pop\n      jump\t// out\n        /* \"#utility.yul\":3723:3832   */\n    tag_183:\n        /* \"#utility.yul\":3804:3825   */\n      tag_185\n        /* \"#utility.yul\":3819:3824   */\n      dup2\n        /* \"#utility.yul\":3804:3825   */\n      tag_186\n      jump\t// in\n    tag_185:\n        /* \"#utility.yul\":3799:3802   */\n      dup3\n        /* \"#utility.yul\":3792:3826   */\n      mstore\n        /* \"#utility.yul\":3723:3832   */\n      pop\n      pop\n      jump\t// out\n        /* \"#utility.yul\":3838:4202   */\n    tag_187:\n        /* \"#utility.yul\":3926:3929   */\n      0x00\n        /* \"#utility.yul\":3954:3993   */\n      tag_189\n        /* \"#utility.yul\":3987:3992   */\n      dup3\n        /* \"#utility.yul\":3954:3993   */\n      tag_190\n      jump\t// in\n    tag_189:\n        /* \"#utility.yul\":4009:4080   */\n      tag_191\n        /* \"#utility.yul\":4073:4079   */\n      dup2\n        /* \"#utility.yul\":4068:4071   */\n      dup6\n        /* \"#utility.yul\":4009:4080   */\n      tag_192\n      jump\t// in\n    tag_191:\n        /* \"#utility.yul\":4002:4080   */\n      swap4\n      pop\n        /* \"#utility.yul\":4089:4141   */\n      tag_193\n        /* \"#utility.yul\":4134:4140   */\n      dup2\n        /* \"#utility.yul\":4129:4132   */\n      dup6\n        /* \"#utility.yul\":4122:4126   */\n      0x20\n        /* \"#utility.yul\":4115:4120   */\n      dup7\n        /* \"#utility.yul\":4111:4127   */\n      add\n        /* \"#utility.yul\":4089:4141   */\n      tag_194\n      jump\t// in\n    tag_193:\n        /* \"#utility.yul\":4166:4195   */\n      tag_195\n        /* \"#utility.yul\":4188:4194   */\n      dup2\n        /* \"#utility.yul\":4166:4195   */\n      tag_196\n      jump\t// in\n    tag_195:\n        /* \"#utility.yul\":4161:4164   */\n      dup5\n        /* \"#utility.yul\":4157:4196   */\n      add\n        /* \"#utility.yul\":4150:4196   */\n      swap2\n      pop\n        /* \"#utility.yul\":3930:4202   */\n      pop\n        /* \"#utility.yul\":3838:4202   */\n      swap3\n      swap2\n      pop\n      pop\n      jump\t// out\n        /* \"#utility.yul\":4208:4574   */\n    tag_197:\n        /* \"#utility.yul\":4350:4353   */\n      0x00\n        /* \"#utility.yul\":4371:4438   */\n      tag_199\n        /* \"#utility.yul\":4435:4437   */\n      0x1e\n        /* \"#utility.yul\":4430:4433   */\n      dup4\n        /* \"#utility.yul\":4371:4438   */\n      tag_192\n      jump\t// in\n    tag_199:\n        /* \"#utility.yul\":4364:4438   */\n      swap2\n      pop\n        /* \"#utility.yul\":4447:4540   */\n      tag_200\n        /* \"#utility.yul\":4536:4539   */\n      dup3\n        /* \"#utility.yul\":4447:4540   */\n      tag_201\n      jump\t// in\n    tag_200:\n        /* \"#utility.yul\":4565:4567   */\n      0x20\n        /* \"#utility.yul\":4560:4563   */\n      dup3\n        /* \"#utility.yul\":4556:4568   */\n      add\n        /* \"#utility.yul\":4549:4568   */\n      swap1\n      pop\n        /* \"#utility.yul\":4208:4574   */\n      swap2\n      swap1\n      pop\n      jump\t// out\n        /* \"#utility.yul\":4580:4946   */\n    tag_202:\n        /* \"#utility.yul\":4722:4725   */\n      0x00\n        /* \"#utility.yul\":4743:4810   */\n      tag_204\n        /* \"#utility.yul\":4807:4809   */\n      0x2a\n        /* \"#utility.yul\":4802:4805   */\n      dup4\n        /* \"#utility.yul\":4743:4810   */\n      tag_192\n      jump\t// in\n    tag_204:\n        /* \"#utility.yul\":4736:4810   */\n      swap2\n      pop\n        /* \"#utility.yul\":4819:4912   */\n      tag_205\n        /* \"#utility.yul\":4908:4911   */\n      dup3\n        /* \"#utility.yul\":4819:4912   */\n      tag_206\n      jump\t// in\n    tag_205:\n        /* \"#utility.yul\":4937:4939   */\n      0x40\n        /* \"#utility.yul\":4932:4935   */\n      dup3\n        /* \"#utility.yul\":4928:4940   */\n      add\n        /* \"#utility.yul\":4921:4940   */\n      swap1\n      pop\n        /* \"#utility.yul\":4580:4946   */\n      swap2\n      swap1\n      pop\n      jump\t// out\n        /* \"#utility.yul\":4952:5318   */\n    tag_207:\n        /* \"#utility.yul\":5094:5097   */\n      0x00\n        /* \"#utility.yul\":5115:5182   */\n      tag_209\n        /* \"#utility.yul\":5179:5181   */\n      0x1d\n        /* \"#utility.yul\":5174:5177   */\n      dup4\n        /* \"#utility.yul\":5115:5182   */\n      tag_192\n      jump\t// in\n    tag_209:\n        /* \"#utility.yul\":5108:5182   */\n      swap2\n      pop\n        /* \"#utility.yul\":5191:5284   */\n      tag_210\n        /* \"#utility.yul\":5280:5283   */\n      dup3\n        /* \"#utility.yul\":5191:5284   */\n      tag_211\n      jump\t// in\n    tag_210:\n        /* \"#utility.yul\":5309:5311   */\n      0x20\n        /* \"#utility.yul\":5304:5307   */\n      dup3\n        /* \"#utility.yul\":5300:5312   */\n      add\n        /* \"#utility.yul\":5293:5312   */\n      swap1\n      pop\n        /* \"#utility.yul\":4952:5318   */\n      swap2\n      swap1\n      pop\n      jump\t// out\n        /* \"#utility.yul\":5324:5690   */\n    tag_212:\n        /* \"#utility.yul\":5466:5469   */\n      0x00\n        /* \"#utility.yul\":5487:5554   */\n      tag_214\n        /* \"#utility.yul\":5551:5553   */\n      0x44\n        /* \"#utility.yul\":5546:5549   */\n      dup4\n        /* \"#utility.yul\":5487:5554   */\n      tag_192\n      jump\t// in\n    tag_214:\n        /* \"#utility.yul\":5480:5554   */\n      swap2\n      pop\n        /* \"#utility.yul\":5563:5656   */\n      tag_215\n        /* \"#utility.yul\":5652:5655   */\n      dup3\n        /* \"#utility.yul\":5563:5656   */\n      tag_216\n      jump\t// in\n    tag_215:\n        /* \"#utility.yul\":5681:5683   */\n      0x60\n        /* \"#utility.yul\":5676:5679   */\n      dup3\n        /* \"#utility.yul\":5672:5684   */\n      add\n        /* \"#utility.yul\":5665:5684   */\n      swap1\n      pop\n        /* \"#utility.yul\":5324:5690   */\n      swap2\n      swap1\n      pop\n      jump\t// out\n        /* \"#utility.yul\":5696:6062   */\n    tag_217:\n        /* \"#utility.yul\":5838:5841   */\n      0x00\n        /* \"#utility.yul\":5859:5926   */\n      tag_219\n        /* \"#utility.yul\":5923:5925   */\n      0x1b\n        /* \"#utility.yul\":5918:5921   */\n      dup4\n        /* \"#utility.yul\":5859:5926   */\n      tag_192\n      jump\t// in\n    tag_219:\n        /* \"#utility.yul\":5852:5926   */\n      swap2\n      pop\n        /* \"#utility.yul\":5935:6028   */\n      tag_220\n        /* \"#utility.yul\":6024:6027   */\n      dup3\n        /* \"#utility.yul\":5935:6028   */\n      tag_221\n      jump\t// in\n    tag_220:\n        /* \"#utility.yul\":6053:6055   */\n      0x20\n        /* \"#utility.yul\":6048:6051   */\n      dup3\n        /* \"#utility.yul\":6044:6056   */\n      add\n        /* \"#utility.yul\":6037:6056   */\n      swap1\n      pop\n        /* \"#utility.yul\":5696:6062   */\n      swap2\n      swap1\n      pop\n      jump\t// out\n        /* \"#utility.yul\":6068:6434   */\n    tag_222:\n        /* \"#utility.yul\":6210:6213   */\n      0x00\n        /* \"#utility.yul\":6231:6298   */\n      tag_224\n        /* \"#utility.yul\":6295:6297   */\n      0x1e\n        /* \"#utility.yul\":6290:6293   */\n      dup4\n        /* \"#utility.yul\":6231:6298   */\n      tag_192\n      jump\t// in\n    tag_224:\n        /* \"#utility.yul\":6224:6298   */\n      swap2\n      pop\n        /* \"#utility.yul\":6307:6400   */\n      tag_225\n        /* \"#utility.yul\":6396:6399   */\n      dup3\n        /* \"#utility.yul\":6307:6400   */\n      tag_226\n      jump\t// in\n    tag_225:\n        /* \"#utility.yul\":6425:6427   */\n      0x20\n        /* \"#utility.yul\":6420:6423   */\n      dup3\n        /* \"#utility.yul\":6416:6428   */\n      add\n        /* \"#utility.yul\":6409:6428   */\n      swap1\n      pop\n        /* \"#utility.yul\":6068:6434   */\n      swap2\n      swap1\n      pop\n      jump\t// out\n        /* \"#utility.yul\":6440:6558   */\n    tag_227:\n        /* \"#utility.yul\":6527:6551   */\n      tag_229\n        /* \"#utility.yul\":6545:6550   */\n      dup2\n        /* \"#utility.yul\":6527:6551   */\n      tag_230\n      jump\t// in\n    tag_229:\n        /* \"#utility.yul\":6522:6525   */\n      dup3\n        /* \"#utility.yul\":6515:6552   */\n      mstore\n        /* \"#utility.yul\":6440:6558   */\n      pop\n      pop\n      jump\t// out\n        /* \"#utility.yul\":6564:7862   */\n    tag_39:\n        /* \"#utility.yul\":6925:6929   */\n      0x00\n        /* \"#utility.yul\":6963:6966   */\n      0x0120\n        /* \"#utility.yul\":6952:6961   */\n      dup3\n        /* \"#utility.yul\":6948:6967   */\n      add\n        /* \"#utility.yul\":6940:6967   */\n      swap1\n      pop\n        /* \"#utility.yul\":6977:7064   */\n      tag_232\n        /* \"#utility.yul\":7061:7062   */\n      0x00\n        /* \"#utility.yul\":7050:7059   */\n      dup4\n        /* \"#utility.yul\":7046:7063   */\n      add\n        /* \"#utility.yul\":7037:7043   */\n      dup13\n        /* \"#utility.yul\":6977:7064   */\n      tag_179\n      jump\t// in\n    tag_232:\n        /* \"#utility.yul\":7111:7120   */\n      dup2\n        /* \"#utility.yul\":7105:7109   */\n      dup2\n        /* \"#utility.yul\":7101:7121   */\n      sub\n        /* \"#utility.yul\":7096:7098   */\n      0x20\n        /* \"#utility.yul\":7085:7094   */\n      dup4\n        /* \"#utility.yul\":7081:7099   */\n      add\n        /* \"#utility.yul\":7074:7122   */\n      mstore\n        /* \"#utility.yul\":7139:7217   */\n      tag_233\n        /* \"#utility.yul\":7212:7216   */\n      dup2\n        /* \"#utility.yul\":7203:7209   */\n      dup12\n        /* \"#utility.yul\":7139:7217   */\n      tag_187\n      jump\t// in\n    tag_233:\n        /* \"#utility.yul\":7131:7217   */\n      swap1\n      pop\n        /* \"#utility.yul\":7264:7273   */\n      dup2\n        /* \"#utility.yul\":7258:7262   */\n      dup2\n        /* \"#utility.yul\":7254:7274   */\n      sub\n        /* \"#utility.yul\":7249:7251   */\n      0x40\n        /* \"#utility.yul\":7238:7247   */\n      dup4\n        /* \"#utility.yul\":7234:7252   */\n      add\n        /* \"#utility.yul\":7227:7275   */\n      mstore\n        /* \"#utility.yul\":7292:7370   */\n      tag_234\n        /* \"#utility.yul\":7365:7369   */\n      dup2\n        /* \"#utility.yul\":7356:7362   */\n      dup11\n        /* \"#utility.yul\":7292:7370   */\n      tag_187\n      jump\t// in\n    tag_234:\n        /* \"#utility.yul\":7284:7370   */\n      swap1\n      pop\n        /* \"#utility.yul\":7380:7446   */\n      tag_235\n        /* \"#utility.yul\":7442:7444   */\n      0x60\n        /* \"#utility.yul\":7431:7440   */\n      dup4\n        /* \"#utility.yul\":7427:7445   */\n      add\n        /* \"#utility.yul\":7418:7424   */\n      dup10\n        /* \"#utility.yul\":7380:7446   */\n      tag_183\n      jump\t// in\n    tag_235:\n        /* \"#utility.yul\":7456:7523   */\n      tag_236\n        /* \"#utility.yul\":7518:7521   */\n      0x80\n        /* \"#utility.yul\":7507:7516   */\n      dup4\n        /* \"#utility.yul\":7503:7522   */\n      add\n        /* \"#utility.yul\":7494:7500   */\n      dup9\n        /* \"#utility.yul\":7456:7523   */\n      tag_183\n      jump\t// in\n    tag_236:\n        /* \"#utility.yul\":7533:7606   */\n      tag_237\n        /* \"#utility.yul\":7601:7604   */\n      0xa0\n        /* \"#utility.yul\":7590:7599   */\n      dup4\n        /* \"#utility.yul\":7586:7605   */\n      add\n        /* \"#utility.yul\":7577:7583   */\n      dup8\n        /* \"#utility.yul\":7533:7606   */\n      tag_227\n      jump\t// in\n    tag_237:\n        /* \"#utility.yul\":7616:7689   */\n      tag_238\n        /* \"#utility.yul\":7684:7687   */\n      0xc0\n        /* \"#utility.yul\":7673:7682   */\n      dup4\n        /* \"#utility.yul\":7669:7688   */\n      add\n        /* \"#utility.yul\":7660:7666   */\n      dup7\n        /* \"#utility.yul\":7616:7689   */\n      tag_227\n      jump\t// in\n    tag_238:\n        /* \"#utility.yul\":7699:7772   */\n      tag_239\n        /* \"#utility.yul\":7767:7770   */\n      0xe0\n        /* \"#utility.yul\":7756:7765   */\n      dup4\n        /* \"#utility.yul\":7752:7771   */\n      add\n        /* \"#utility.yul\":7743:7749   */\n      dup6\n        /* \"#utility.yul\":7699:7772   */\n      tag_227\n      jump\t// in\n    tag_239:\n        /* \"#utility.yul\":7782:7855   */\n      tag_240\n        /* \"#utility.yul\":7850:7853   */\n      0x0100\n        /* \"#utility.yul\":7839:7848   */\n      dup4\n        /* \"#utility.yul\":7835:7854   */\n      add\n        /* \"#utility.yul\":7826:7832   */\n      dup5\n        /* \"#utility.yul\":7782:7855   */\n      tag_227\n      jump\t// in\n    tag_240:\n        /* \"#utility.yul\":6564:7862   */\n      swap11\n      swap10\n      pop\n      pop\n      pop\n      pop\n      pop\n      pop\n      pop\n      pop\n      pop\n      pop\n      jump\t// out\n        /* \"#utility.yul\":7868:8078   */\n    tag_19:\n        /* \"#utility.yul\":7955:7959   */\n      0x00\n        /* \"#utility.yul\":7993:7995   */\n      0x20\n        /* \"#utility.yul\":7982:7991   */\n      dup3\n        /* \"#utility.yul\":7978:7996   */\n      add\n        /* \"#utility.yul\":7970:7996   */\n      swap1\n      pop\n        /* \"#utility.yul\":8006:8071   */\n      tag_242\n        /* \"#utility.yul\":8068:8069   */\n      0x00\n        /* \"#utility.yul\":8057:8066   */\n      dup4\n        /* \"#utility.yul\":8053:8070   */\n      add\n        /* \"#utility.yul\":8044:8050   */\n      dup5\n        /* \"#utility.yul\":8006:8071   */\n      tag_183\n      jump\t// in\n    tag_242:\n        /* \"#utility.yul\":7868:8078   */\n      swap3\n      swap2\n      pop\n      pop\n      jump\t// out\n        /* \"#utility.yul\":8084:8503   */\n    tag_101:\n        /* \"#utility.yul\":8250:8254   */\n      0x00\n        /* \"#utility.yul\":8288:8290   */\n      0x20\n        /* \"#utility.yul\":8277:8286   */\n      dup3\n        /* \"#utility.yul\":8273:8291   */\n      add\n        /* \"#utility.yul\":8265:8291   */\n      swap1\n      pop\n        /* \"#utility.yul\":8337:8346   */\n      dup2\n        /* \"#utility.yul\":8331:8335   */\n      dup2\n        /* \"#utility.yul\":8327:8347   */\n      sub\n        /* \"#utility.yul\":8323:8324   */\n      0x00\n        /* \"#utility.yul\":8312:8321   */\n      dup4\n        /* \"#utility.yul\":8308:8325   */\n      add\n        /* \"#utility.yul\":8301:8348   */\n      mstore\n        /* \"#utility.yul\":8365:8496   */\n      tag_244\n        /* \"#utility.yul\":8491:8495   */\n      dup2\n        /* \"#utility.yul\":8365:8496   */\n      tag_197\n      jump\t// in\n    tag_244:\n        /* \"#utility.yul\":8357:8496   */\n      swap1\n      pop\n        /* \"#utility.yul\":8084:8503   */\n      swap2\n      swap1\n      pop\n      jump\t// out\n        /* \"#utility.yul\":8509:8928   */\n    tag_64:\n        /* \"#utility.yul\":8675:8679   */\n      0x00\n        /* \"#utility.yul\":8713:8715   */\n      0x20\n        /* \"#utility.yul\":8702:8711   */\n      dup3\n        /* \"#utility.yul\":8698:8716   */\n      add\n        /* \"#utility.yul\":8690:8716   */\n      swap1\n      pop\n        /* \"#utility.yul\":8762:8771   */\n      dup2\n        /* \"#utility.yul\":8756:8760   */\n      dup2\n        /* \"#utility.yul\":8752:8772   */\n      sub\n        /* \"#utility.yul\":8748:8749   */\n      0x00\n        /* \"#utility.yul\":8737:8746   */\n      dup4\n        /* \"#utility.yul\":8733:8750   */\n      add\n        /* \"#utility.yul\":8726:8773   */\n      mstore\n        /* \"#utility.yul\":8790:8921   */\n      tag_246\n        /* \"#utility.yul\":8916:8920   */\n      dup2\n        /* \"#utility.yul\":8790:8921   */\n      tag_202\n      jump\t// in\n    tag_246:\n        /* \"#utility.yul\":8782:8921   */\n      swap1\n      pop\n        /* \"#utility.yul\":8509:8928   */\n      swap2\n      swap1\n      pop\n      jump\t// out\n        /* \"#utility.yul\":8934:9353   */\n    tag_96:\n        /* \"#utility.yul\":9100:9104   */\n      0x00\n        /* \"#utility.yul\":9138:9140   */\n      0x20\n        /* \"#utility.yul\":9127:9136   */\n      dup3\n        /* \"#utility.yul\":9123:9141   */\n      add\n        /* \"#utility.yul\":9115:9141   */\n      swap1\n      pop\n        /* \"#utility.yul\":9187:9196   */\n      dup2\n        /* \"#utility.yul\":9181:9185   */\n      dup2\n        /* \"#utility.yul\":9177:9197   */\n      sub\n        /* \"#utility.yul\":9173:9174   */\n      0x00\n        /* \"#utility.yul\":9162:9171   */\n      dup4\n        /* \"#utility.yul\":9158:9175   */\n      add\n        /* \"#utility.yul\":9151:9198   */\n      mstore\n        /* \"#utility.yul\":9215:9346   */\n      tag_248\n        /* \"#utility.yul\":9341:9345   */\n      dup2\n        /* \"#utility.yul\":9215:9346   */\n      tag_207\n      jump\t// in\n    tag_248:\n        /* \"#utility.yul\":9207:9346   */\n      swap1\n      pop\n        /* \"#utility.yul\":8934:9353   */\n      swap2\n      swap1\n      pop\n      jump\t// out\n        /* \"#utility.yul\":9359:9778   */\n    tag_67:\n        /* \"#utility.yul\":9525:9529   */\n      0x00\n        /* \"#utility.yul\":9563:9565   */\n      0x20\n        /* \"#utility.yul\":9552:9561   */\n      dup3\n        /* \"#utility.yul\":9548:9566   */\n      add\n        /* \"#utility.yul\":9540:9566   */\n      swap1\n      pop\n        /* \"#utility.yul\":9612:9621   */\n      dup2\n        /* \"#utility.yul\":9606:9610   */\n      dup2\n        /* \"#utility.yul\":9602:9622   */\n      sub\n        /* \"#utility.yul\":9598:9599   */\n      0x00\n        /* \"#utility.yul\":9587:9596   */\n      dup4\n        /* \"#utility.yul\":9583:9600   */\n      add\n        /* \"#utility.yul\":9576:9623   */\n      mstore\n        /* \"#utility.yul\":9640:9771   */\n      tag_250\n        /* \"#utility.yul\":9766:9770   */\n      dup2\n        /* \"#utility.yul\":9640:9771   */\n      tag_212\n      jump\t// in\n    tag_250:\n        /* \"#utility.yul\":9632:9771   */\n      swap1\n      pop\n        /* \"#utility.yul\":9359:9778   */\n      swap2\n      swap1\n      pop\n      jump\t// out\n        /* \"#utility.yul\":9784:10203   */\n    tag_93:\n        /* \"#utility.yul\":9950:9954   */\n      0x00\n        /* \"#utility.yul\":9988:9990   */\n      0x20\n        /* \"#utility.yul\":9977:9986   */\n      dup3\n        /* \"#utility.yul\":9973:9991   */\n      add\n        /* \"#utility.yul\":9965:9991   */\n      swap1\n      pop\n        /* \"#utility.yul\":10037:10046   */\n      dup2\n        /* \"#utility.yul\":10031:10035   */\n      dup2\n        /* \"#utility.yul\":10027:10047   */\n      sub\n        /* \"#utility.yul\":10023:10024   */\n      0x00\n        /* \"#utility.yul\":10012:10021   */\n      dup4\n        /* \"#utility.yul\":10008:10025   */\n      add\n        /* \"#utility.yul\":10001:10048   */\n      mstore\n        /* \"#utility.yul\":10065:10196   */\n      tag_252\n        /* \"#utility.yul\":10191:10195   */\n      dup2\n        /* \"#utility.yul\":10065:10196   */\n      tag_217\n      jump\t// in\n    tag_252:\n        /* \"#utility.yul\":10057:10196   */\n      swap1\n      pop\n        /* \"#utility.yul\":9784:10203   */\n      swap2\n      swap1\n      pop\n      jump\t// out\n        /* \"#utility.yul\":10209:10628   */\n    tag_73:\n        /* \"#utility.yul\":10375:10379   */\n      0x00\n        /* \"#utility.yul\":10413:10415   */\n      0x20\n        /* \"#utility.yul\":10402:10411   */\n      dup3\n        /* \"#utility.yul\":10398:10416   */\n      add\n        /* \"#utility.yul\":10390:10416   */\n      swap1\n      pop\n        /* \"#utility.yul\":10462:10471   */\n      dup2\n        /* \"#utility.yul\":10456:10460   */\n      dup2\n        /* \"#utility.yul\":10452:10472   */\n      sub\n        /* \"#utility.yul\":10448:10449   */\n      0x00\n        /* \"#utility.yul\":10437:10446   */\n      dup4\n        /* \"#utility.yul\":10433:10450   */\n      add\n        /* \"#utility.yul\":10426:10473   */\n      mstore\n        /* \"#utility.yul\":10490:10621   */\n      tag_254\n        /* \"#utility.yul\":10616:10620   */\n      dup2\n        /* \"#utility.yul\":10490:10621   */\n      tag_222\n      jump\t// in\n    tag_254:\n        /* \"#utility.yul\":10482:10621   */\n      swap1\n      pop\n        /* \"#utility.yul\":10209:10628   */\n      swap2\n      swap1\n      pop\n      jump\t// out\n        /* \"#utility.yul\":10634:10856   */\n    tag_28:\n        /* \"#utility.yul\":10727:10731   */\n      0x00\n        /* \"#utility.yul\":10765:10767   */\n      0x20\n        /* \"#utility.yul\":10754:10763   */\n      dup3\n        /* \"#utility.yul\":10750:10768   */\n      add\n        /* \"#utility.yul\":10742:10768   */\n      swap1\n      pop\n        /* \"#utility.yul\":10778:10849   */\n      tag_256\n        /* \"#utility.yul\":10846:10847   */\n      0x00\n        /* \"#utility.yul\":10835:10844   */\n      dup4\n        /* \"#utility.yul\":10831:10848   */\n      add\n        /* \"#utility.yul\":10822:10828   */\n      dup5\n        /* \"#utility.yul\":10778:10849   */\n      tag_227\n      jump\t// in\n    tag_256:\n        /* \"#utility.yul\":10634:10856   */\n      swap3\n      swap2\n      pop\n      pop\n      jump\t// out\n        /* \"#utility.yul\":10862:10991   */\n    tag_129:\n        /* \"#utility.yul\":10896:10902   */\n      0x00\n        /* \"#utility.yul\":10923:10943   */\n      tag_258\n      tag_259\n      jump\t// in\n    tag_258:\n        /* \"#utility.yul\":10913:10943   */\n      swap1\n      pop\n        /* \"#utility.yul\":10952:10985   */\n      tag_260\n        /* \"#utility.yul\":10980:10984   */\n      dup3\n        /* \"#utility.yul\":10972:10978   */\n      dup3\n        /* \"#utility.yul\":10952:10985   */\n      tag_261\n      jump\t// in\n    tag_260:\n        /* \"#utility.yul\":10862:10991   */\n      swap2\n      swap1\n      pop\n      jump\t// out\n        /* \"#utility.yul\":10997:11072   */\n    tag_259:\n        /* \"#utility.yul\":11030:11036   */\n      0x00\n        /* \"#utility.yul\":11063:11065   */\n      0x40\n        /* \"#utility.yul\":11057:11066   */\n      mload\n        /* \"#utility.yul\":11047:11066   */\n      swap1\n      pop\n        /* \"#utility.yul\":10997:11072   */\n      swap1\n      jump\t// out\n        /* \"#utility.yul\":11078:11386   */\n    tag_128:\n        /* \"#utility.yul\":11140:11144   */\n      0x00\n        /* \"#utility.yul\":11230:11248   */\n      0xffffffffffffffff\n        /* \"#utility.yul\":11222:11228   */\n      dup3\n        /* \"#utility.yul\":11219:11249   */\n      gt\n        /* \"#utility.yul\":11216:11272   */\n      iszero\n      tag_264\n      jumpi\n        /* \"#utility.yul\":11252:11270   */\n      tag_265\n      tag_266\n      jump\t// in\n    tag_265:\n        /* \"#utility.yul\":11216:11272   */\n    tag_264:\n        /* \"#utility.yul\":11290:11319   */\n      tag_267\n        /* \"#utility.yul\":11312:11318   */\n      dup3\n        /* \"#utility.yul\":11290:11319   */\n      tag_196\n      jump\t// in\n    tag_267:\n        /* \"#utility.yul\":11282:11319   */\n      swap1\n      pop\n        /* \"#utility.yul\":11374:11378   */\n      0x20\n        /* \"#utility.yul\":11368:11372   */\n      dup2\n        /* \"#utility.yul\":11364:11379   */\n      add\n        /* \"#utility.yul\":11356:11379   */\n      swap1\n      pop\n        /* \"#utility.yul\":11078:11386   */\n      swap2\n      swap1\n      pop\n      jump\t// out\n        /* \"#utility.yul\":11392:11491   */\n    tag_190:\n        /* \"#utility.yul\":11444:11450   */\n      0x00\n        /* \"#utility.yul\":11478:11483   */\n      dup2\n        /* \"#utility.yul\":11472:11484   */\n      mload\n        /* \"#utility.yul\":11462:11484   */\n      swap1\n      pop\n        /* \"#utility.yul\":11392:11491   */\n      swap2\n      swap1\n      pop\n      jump\t// out\n        /* \"#utility.yul\":11497:11666   */\n    tag_192:\n        /* \"#utility.yul\":11581:11592   */\n      0x00\n        /* \"#utility.yul\":11615:11621   */\n      dup3\n        /* \"#utility.yul\":11610:11613   */\n      dup3\n        /* \"#utility.yul\":11603:11622   */\n      mstore\n        /* \"#utility.yul\":11655:11659   */\n      0x20\n        /* \"#utility.yul\":11650:11653   */\n      dup3\n        /* \"#utility.yul\":11646:11660   */\n      add\n        /* \"#utility.yul\":11631:11660   */\n      swap1\n      pop\n        /* \"#utility.yul\":11497:11666   */\n      swap3\n      swap2\n      pop\n      pop\n      jump\t// out\n        /* \"#utility.yul\":11672:11977   */\n    tag_106:\n        /* \"#utility.yul\":11712:11715   */\n      0x00\n        /* \"#utility.yul\":11731:11751   */\n      tag_271\n        /* \"#utility.yul\":11749:11750   */\n      dup3\n        /* \"#utility.yul\":11731:11751   */\n      tag_230\n      jump\t// in\n    tag_271:\n        /* \"#utility.yul\":11726:11751   */\n      swap2\n      pop\n        /* \"#utility.yul\":11765:11785   */\n      tag_272\n        /* \"#utility.yul\":11783:11784   */\n      dup4\n        /* \"#utility.yul\":11765:11785   */\n      tag_230\n      jump\t// in\n    tag_272:\n        /* \"#utility.yul\":11760:11785   */\n      swap3\n      pop\n        /* \"#utility.yul\":11919:11920   */\n      dup3\n        /* \"#utility.yul\":11851:11917   */\n      0xffffffffffffffffffffffffffffffffffffffffffffffffffffffffffffffff\n        /* \"#utility.yul\":11847:11921   */\n      sub\n        /* \"#utility.yul\":11844:11845   */\n      dup3\n        /* \"#utility.yul\":11841:11922   */\n      gt\n        /* \"#utility.yul\":11838:11945   */\n      iszero\n      tag_273\n      jumpi\n        /* \"#utility.yul\":11925:11943   */\n      tag_274\n      tag_275\n      jump\t// in\n    tag_274:\n        /* \"#utility.yul\":11838:11945   */\n    tag_273:\n        /* \"#utility.yul\":11969:11970   */\n      dup3\n        /* \"#utility.yul\":11966:11967   */\n      dup3\n        /* \"#utility.yul\":11962:11971   */\n      add\n        /* \"#utility.yul\":11955:11971   */\n      swap1\n      pop\n        /* \"#utility.yul\":11672:11977   */\n      swap3\n      swap2\n      pop\n      pop\n      jump\t// out\n        /* \"#utility.yul\":11983:12168   */\n    tag_110:\n        /* \"#utility.yul\":12023:12024   */\n      0x00\n        /* \"#utility.yul\":12040:12060   */\n      tag_277\n        /* \"#utility.yul\":12058:12059   */\n      dup3\n        /* \"#utility.yul\":12040:12060   */\n      tag_230\n      jump\t// in\n    tag_277:\n        /* \"#utility.yul\":12035:12060   */\n      swap2\n      pop\n        /* \"#utility.yul\":12074:12094   */\n      tag_278\n        /* \"#utility.yul\":12092:12093   */\n      dup4\n        /* \"#utility.yul\":12074:12094   */\n      tag_230\n      jump\t// in\n    tag_278:\n        /* \"#utility.yul\":12069:12094   */\n      swap3\n      pop\n        /* \"#utility.yul\":12113:12114   */\n      dup3\n        /* \"#utility.yul\":12103:12138   */\n      tag_279\n      jumpi\n        /* \"#utility.yul\":12118:12136   */\n      tag_280\n      tag_281\n      jump\t// in\n    tag_280:\n        /* \"#utility.yul\":12103:12138   */\n    tag_279:\n        /* \"#utility.yul\":12160:12161   */\n      dup3\n        /* \"#utility.yul\":12157:12158   */\n      dup3\n        /* \"#utility.yul\":12153:12162   */\n      div\n        /* \"#utility.yul\":12148:12162   */\n      swap1\n      pop\n        /* \"#utility.yul\":11983:12168   */\n      swap3\n      swap2\n      pop\n      pop\n      jump\t// out\n        /* \"#utility.yul\":12174:12522   */\n    tag_112:\n        /* \"#utility.yul\":12214:12221   */\n      0x00\n        /* \"#utility.yul\":12237:12257   */\n      tag_283\n        /* \"#utility.yul\":12255:12256   */\n      dup3\n        /* \"#utility.yul\":12237:12257   */\n      tag_230\n      jump\t// in\n    tag_283:\n        /* \"#utility.yul\":12232:12257   */\n      swap2\n      pop\n        /* \"#utility.yul\":12271:12291   */\n      tag_284\n        /* \"#utility.yul\":12289:12290   */\n      dup4\n        /* \"#utility.yul\":12271:12291   */\n      tag_230\n      jump\t// in\n    tag_284:\n        /* \"#utility.yul\":12266:12291   */\n      swap3\n      pop\n        /* \"#utility.yul\":12459:12460   */\n      dup2\n        /* \"#utility.yul\":12391:12457   */\n      0xffffffffffffffffffffffffffffffffffffffffffffffffffffffffffffffff\n        /* \"#utility.yul\":12387:12461   */\n      div\n        /* \"#utility.yul\":12384:12385   */\n      dup4\n        /* \"#utility.yul\":12381:12462   */\n      gt\n        /* \"#utility.yul\":12376:12377   */\n      dup3\n        /* \"#utility.yul\":12369:12378   */\n      iszero\n        /* \"#utility.yul\":12362:12379   */\n      iszero\n        /* \"#utility.yul\":12358:12463   */\n      and\n        /* \"#utility.yul\":12355:12486   */\n      iszero\n      tag_285\n      jumpi\n        /* \"#utility.yul\":12466:12484   */\n      tag_286\n      tag_275\n      jump\t// in\n    tag_286:\n        /* \"#utility.yul\":12355:12486   */\n    tag_285:\n        /* \"#utility.yul\":12514:12515   */\n      dup3\n        /* \"#utility.yul\":12511:12512   */\n      dup3\n        /* \"#utility.yul\":12507:12516   */\n      mul\n        /* \"#utility.yul\":12496:12516   */\n      swap1\n      pop\n        /* \"#utility.yul\":12174:12522   */\n      swap3\n      swap2\n      pop\n      pop\n      jump\t// out\n        /* \"#utility.yul\":12528:12719   */\n    tag_69:\n        /* \"#utility.yul\":12568:12572   */\n      0x00\n        /* \"#utility.yul\":12588:12608   */\n      tag_288\n        /* \"#utility.yul\":12606:12607   */\n      dup3\n        /* \"#utility.yul\":12588:12608   */\n      tag_230\n      jump\t// in\n    tag_288:\n        /* \"#utility.yul\":12583:12608   */\n      swap2\n      pop\n        /* \"#utility.yul\":12622:12642   */\n      tag_289\n        /* \"#utility.yul\":12640:12641   */\n      dup4\n        /* \"#utility.yul\":12622:12642   */\n      tag_230\n      jump\t// in\n    tag_289:\n        /* \"#utility.yul\":12617:12642   */\n      swap3\n      pop\n        /* \"#utility.yul\":12661:12662   */\n      dup3\n        /* \"#utility.yul\":12658:12659   */\n      dup3\n        /* \"#utility.yul\":12655:12663   */\n      lt\n        /* \"#utility.yul\":12652:12686   */\n      iszero\n      tag_290\n      jumpi\n        /* \"#utility.yul\":12666:12684   */\n      tag_291\n      tag_275\n      jump\t// in\n    tag_291:\n        /* \"#utility.yul\":12652:12686   */\n    tag_290:\n        /* \"#utility.yul\":12711:12712   */\n      dup3\n        /* \"#utility.yul\":12708:12709   */\n      dup3\n        /* \"#utility.yul\":12704:12713   */\n      sub\n        /* \"#utility.yul\":12696:12713   */\n      swap1\n      pop\n        /* \"#utility.yul\":12528:12719   */\n      swap3\n      swap2\n      pop\n      pop\n      jump\t// out\n        /* \"#utility.yul\":12725:12821   */\n    tag_292:\n        /* \"#utility.yul\":12762:12769   */\n      0x00\n        /* \"#utility.yul\":12791:12815   */\n      tag_294\n        /* \"#utility.yul\":12809:12814   */\n      dup3\n        /* \"#utility.yul\":12791:12815   */\n      tag_295\n      jump\t// in\n    tag_294:\n        /* \"#utility.yul\":12780:12815   */\n      swap1\n      pop\n        /* \"#utility.yul\":12725:12821   */\n      swap2\n      swap1\n      pop\n      jump\t// out\n        /* \"#utility.yul\":12827:12931   */\n    tag_182:\n        /* \"#utility.yul\":12872:12879   */\n      0x00\n        /* \"#utility.yul\":12901:12925   */\n      tag_297\n        /* \"#utility.yul\":12919:12924   */\n      dup3\n        /* \"#utility.yul\":12901:12925   */\n      tag_295\n      jump\t// in\n    tag_297:\n        /* \"#utility.yul\":12890:12925   */\n      swap1\n      pop\n        /* \"#utility.yul\":12827:12931   */\n      swap2\n      swap1\n      pop\n      jump\t// out\n        /* \"#utility.yul\":12937:13027   */\n    tag_186:\n        /* \"#utility.yul\":12971:12978   */\n      0x00\n        /* \"#utility.yul\":13014:13019   */\n      dup2\n        /* \"#utility.yul\":13007:13020   */\n      iszero\n        /* \"#utility.yul\":13000:13021   */\n      iszero\n        /* \"#utility.yul\":12989:13021   */\n      swap1\n      pop\n        /* \"#utility.yul\":12937:13027   */\n      swap2\n      swap1\n      pop\n      jump\t// out\n        /* \"#utility.yul\":13033:13159   */\n    tag_295:\n        /* \"#utility.yul\":13070:13077   */\n      0x00\n        /* \"#utility.yul\":13110:13152   */\n      0xffffffffffffffffffffffffffffffffffffffff\n        /* \"#utility.yul\":13103:13108   */\n      dup3\n        /* \"#utility.yul\":13099:13153   */\n      and\n        /* \"#utility.yul\":13088:13153   */\n      swap1\n      pop\n        /* \"#utility.yul\":13033:13159   */\n      swap2\n      swap1\n      pop\n      jump\t// out\n        /* \"#utility.yul\":13165:13242   */\n    tag_230:\n        /* \"#utility.yul\":13202:13209   */\n      0x00\n        /* \"#utility.yul\":13231:13236   */\n      dup2\n        /* \"#utility.yul\":13220:13236   */\n      swap1\n      pop\n        /* \"#utility.yul\":13165:13242   */\n      swap2\n      swap1\n      pop\n      jump\t// out\n        /* \"#utility.yul\":13248:13402   */\n    tag_134:\n        /* \"#utility.yul\":13332:13338   */\n      dup3\n        /* \"#utility.yul\":13327:13330   */\n      dup2\n        /* \"#utility.yul\":13322:13325   */\n      dup4\n        /* \"#utility.yul\":13309:13339   */\n      calldatacopy\n        /* \"#utility.yul\":13394:13395   */\n      0x00\n        /* \"#utility.yul\":13385:13391   */\n      dup4\n        /* \"#utility.yul\":13380:13383   */\n      dup4\n        /* \"#utility.yul\":13376:13392   */\n      add\n        /* \"#utility.yul\":13369:13396   */\n      mstore\n        /* \"#utility.yul\":13248:13402   */\n      pop\n      pop\n      pop\n      jump\t// out\n        /* \"#utility.yul\":13408:13715   */\n    tag_194:\n        /* \"#utility.yul\":13476:13477   */\n      0x00\n        /* \"#utility.yul\":13486:13599   */\n    tag_303:\n        /* \"#utility.yul\":13500:13506   */\n      dup4\n        /* \"#utility.yul\":13497:13498   */\n      dup2\n        /* \"#utility.yul\":13494:13507   */\n      lt\n        /* \"#utility.yul\":13486:13599   */\n      iszero\n      tag_305\n      jumpi\n        /* \"#utility.yul\":13585:13586   */\n      dup1\n        /* \"#utility.yul\":13580:13583   */\n      dup3\n        /* \"#utility.yul\":13576:13587   */\n      add\n        /* \"#utility.yul\":13570:13588   */\n      mload\n        /* \"#utility.yul\":13566:13567   */\n      dup2\n        /* \"#utility.yul\":13561:13564   */\n      dup5\n        /* \"#utility.yul\":13557:13568   */\n      add\n        /* \"#utility.yul\":13550:13589   */\n      mstore\n        /* \"#utility.yul\":13522:13524   */\n      0x20\n        /* \"#utility.yul\":13519:13520   */\n      dup2\n        /* \"#utility.yul\":13515:13525   */\n      add\n        /* \"#utility.yul\":13510:13525   */\n      swap1\n      pop\n        /* \"#utility.yul\":13486:13599   */\n      jump(tag_303)\n    tag_305:\n        /* \"#utility.yul\":13617:13623   */\n      dup4\n        /* \"#utility.yul\":13614:13615   */\n      dup2\n        /* \"#utility.yul\":13611:13624   */\n      gt\n        /* \"#utility.yul\":13608:13709   */\n      iszero\n      tag_306\n      jumpi\n        /* \"#utility.yul\":13697:13698   */\n      0x00\n        /* \"#utility.yul\":13688:13694   */\n      dup5\n        /* \"#utility.yul\":13683:13686   */\n      dup5\n        /* \"#utility.yul\":13679:13695   */\n      add\n        /* \"#utility.yul\":13672:13699   */\n      mstore\n        /* \"#utility.yul\":13608:13709   */\n    tag_306:\n        /* \"#utility.yul\":13457:13715   */\n      pop\n        /* \"#utility.yul\":13408:13715   */\n      pop\n      pop\n      pop\n      jump\t// out\n        /* \"#utility.yul\":13721:14041   */\n    tag_79:\n        /* \"#utility.yul\":13765:13771   */\n      0x00\n        /* \"#utility.yul\":13802:13803   */\n      0x02\n        /* \"#utility.yul\":13796:13800   */\n      dup3\n        /* \"#utility.yul\":13792:13804   */\n      div\n        /* \"#utility.yul\":13782:13804   */\n      swap1\n      pop\n        /* \"#utility.yul\":13849:13850   */\n      0x01\n        /* \"#utility.yul\":13843:13847   */\n      dup3\n        /* \"#utility.yul\":13839:13851   */\n      and\n        /* \"#utility.yul\":13870:13888   */\n      dup1\n        /* \"#utility.yul\":13860:13941   */\n      tag_308\n      jumpi\n        /* \"#utility.yul\":13926:13930   */\n      0x7f\n        /* \"#utility.yul\":13918:13924   */\n      dup3\n        /* \"#utility.yul\":13914:13931   */\n      and\n        /* \"#utility.yul\":13904:13931   */\n      swap2\n      pop\n        /* \"#utility.yul\":13860:13941   */\n    tag_308:\n        /* \"#utility.yul\":13988:13990   */\n      0x20\n        /* \"#utility.yul\":13980:13986   */\n      dup3\n        /* \"#utility.yul\":13977:13991   */\n      lt\n        /* \"#utility.yul\":13957:13975   */\n      dup2\n        /* \"#utility.yul\":13954:13992   */\n      eq\n        /* \"#utility.yul\":13951:14035   */\n      iszero\n      tag_309\n      jumpi\n        /* \"#utility.yul\":14007:14025   */\n      tag_310\n      tag_311\n      jump\t// in\n    tag_310:\n        /* \"#utility.yul\":13951:14035   */\n    tag_309:\n        /* \"#utility.yul\":13772:14041   */\n      pop\n        /* \"#utility.yul\":13721:14041   */\n      swap2\n      swap1\n      pop\n      jump\t// out\n        /* \"#utility.yul\":14047:14328   */\n    tag_261:\n        /* \"#utility.yul\":14130:14157   */\n      tag_313\n        /* \"#utility.yul\":14152:14156   */\n      dup3\n        /* \"#utility.yul\":14130:14157   */\n      tag_196\n      jump\t// in\n    tag_313:\n        /* \"#utility.yul\":14122:14128   */\n      dup2\n        /* \"#utility.yul\":14118:14158   */\n      add\n        /* \"#utility.yul\":14260:14266   */\n      dup2\n        /* \"#utility.yul\":14248:14258   */\n      dup2\n        /* \"#utility.yul\":14245:14267   */\n      lt\n        /* \"#utility.yul\":14224:14242   */\n      0xffffffffffffffff\n        /* \"#utility.yul\":14212:14222   */\n      dup3\n        /* \"#utility.yul\":14209:14243   */\n      gt\n        /* \"#utility.yul\":14206:14268   */\n      or\n        /* \"#utility.yul\":14203:14291   */\n      iszero\n      tag_314\n      jumpi\n        /* \"#utility.yul\":14271:14289   */\n      tag_315\n      tag_266\n      jump\t// in\n    tag_315:\n        /* \"#utility.yul\":14203:14291   */\n    tag_314:\n        /* \"#utility.yul\":14311:14321   */\n      dup1\n        /* \"#utility.yul\":14307:14309   */\n      0x40\n        /* \"#utility.yul\":14300:14322   */\n      mstore\n        /* \"#utility.yul\":14090:14328   */\n      pop\n        /* \"#utility.yul\":14047:14328   */\n      pop\n      pop\n      jump\t// out\n        /* \"#utility.yul\":14334:14514   */\n    tag_275:\n        /* \"#utility.yul\":14382:14459   */\n      0x4e487b7100000000000000000000000000000000000000000000000000000000\n        /* \"#utility.yul\":14379:14380   */\n      0x00\n        /* \"#utility.yul\":14372:14460   */\n      mstore\n        /* \"#utility.yul\":14479:14483   */\n      0x11\n        /* \"#utility.yul\":14476:14477   */\n      0x04\n        /* \"#utility.yul\":14469:14484   */\n      mstore\n        /* \"#utility.yul\":14503:14507   */\n      0x24\n        /* \"#utility.yul\":14500:14501   */\n      0x00\n        /* \"#utility.yul\":14493:14508   */\n      revert\n        /* \"#utility.yul\":14520:14700   */\n    tag_281:\n        /* \"#utility.yul\":14568:14645   */\n      0x4e487b7100000000000000000000000000000000000000000000000000000000\n        /* \"#utility.yul\":14565:14566   */\n      0x00\n        /* \"#utility.yul\":14558:14646   */\n      mstore\n        /* \"#utility.yul\":14665:14669   */\n      0x12\n        /* \"#utility.yul\":14662:14663   */\n      0x04\n        /* \"#utility.yul\":14655:14670   */\n      mstore\n        /* \"#utility.yul\":14689:14693   */\n      0x24\n        /* \"#utility.yul\":14686:14687   */\n      0x00\n        /* \"#utility.yul\":14679:14694   */\n      revert\n        /* \"#utility.yul\":14706:14886   */\n    tag_311:\n        /* \"#utility.yul\":14754:14831   */\n      0x4e487b7100000000000000000000000000000000000000000000000000000000\n        /* \"#utility.yul\":14751:14752   */\n      0x00\n        /* \"#utility.yul\":14744:14832   */\n      mstore\n        /* \"#utility.yul\":14851:14855   */\n      0x22\n        /* \"#utility.yul\":14848:14849   */\n      0x04\n        /* \"#utility.yul\":14841:14856   */\n      mstore\n        /* \"#utility.yul\":14875:14879   */\n      0x24\n        /* \"#utility.yul\":14872:14873   */\n      0x00\n        /* \"#utility.yul\":14865:14880   */\n      revert\n        /* \"#utility.yul\":14892:15072   */\n    tag_266:\n        /* \"#utility.yul\":14940:15017   */\n      0x4e487b7100000000000000000000000000000000000000000000000000000000\n        /* \"#utility.yul\":14937:14938   */\n      0x00\n        /* \"#utility.yul\":14930:15018   */\n      mstore\n        /* \"#utility.yul\":15037:15041   */\n      0x41\n        /* \"#utility.yul\":15034:15035   */\n      0x04\n        /* \"#utility.yul\":15027:15042   */\n      mstore\n        /* \"#utility.yul\":15061:15065   */\n      0x24\n        /* \"#utility.yul\":15058:15059   */\n      0x00\n        /* \"#utility.yul\":15051:15066   */\n      revert\n        /* \"#utility.yul\":15078:15195   */\n    tag_151:\n        /* \"#utility.yul\":15187:15188   */\n      0x00\n        /* \"#utility.yul\":15184:15185   */\n      dup1\n        /* \"#utility.yul\":15177:15189   */\n      revert\n        /* \"#utility.yul\":15201:15318   */\n    tag_132:\n        /* \"#utility.yul\":15310:15311   */\n      0x00\n        /* \"#utility.yul\":15307:15308   */\n      dup1\n        /* \"#utility.yul\":15300:15312   */\n      revert\n        /* \"#utility.yul\":15324:15441   */\n    tag_168:\n        /* \"#utility.yul\":15433:15434   */\n      0x00\n        /* \"#utility.yul\":15430:15431   */\n      dup1\n        /* \"#utility.yul\":15423:15435   */\n      revert\n        /* \"#utility.yul\":15447:15564   */\n    tag_160:\n        /* \"#utility.yul\":15556:15557   */\n      0x00\n        /* \"#utility.yul\":15553:15554   */\n      dup1\n        /* \"#utility.yul\":15546:15558   */\n      revert\n        /* \"#utility.yul\":15570:15672   */\n    tag_196:\n        /* \"#utility.yul\":15611:15617   */\n      0x00\n        /* \"#utility.yul\":15662:15664   */\n      0x1f\n        /* \"#utility.yul\":15658:15665   */\n      not\n        /* \"#utility.yul\":15653:15655   */\n      0x1f\n        /* \"#utility.yul\":15646:15651   */\n      dup4\n        /* \"#utility.yul\":15642:15656   */\n      add\n        /* \"#utility.yul\":15638:15666   */\n      and\n        /* \"#utility.yul\":15628:15666   */\n      swap1\n      pop\n        /* \"#utility.yul\":15570:15672   */\n      swap2\n      swap1\n      pop\n      jump\t// out\n        /* \"#utility.yul\":15678:15858   */\n    tag_201:\n        /* \"#utility.yul\":15818:15850   */\n      0x506c6561736520636865636b206f757420612062696b652066697273742e0000\n        /* \"#utility.yul\":15814:15815   */\n      0x00\n        /* \"#utility.yul\":15806:15812   */\n      dup3\n        /* \"#utility.yul\":15802:15816   */\n      add\n        /* \"#utility.yul\":15795:15851   */\n      mstore\n        /* \"#utility.yul\":15678:15858   */\n      pop\n      jump\t// out\n        /* \"#utility.yul\":15864:16093   */\n    tag_206:\n        /* \"#utility.yul\":16004:16038   */\n      0x596f7520646f206e6f74206861766520616e797468696e672064756520617420\n        /* \"#utility.yul\":16000:16001   */\n      0x00\n        /* \"#utility.yul\":15992:15998   */\n      dup3\n        /* \"#utility.yul\":15988:16002   */\n      add\n        /* \"#utility.yul\":15981:16039   */\n      mstore\n        /* \"#utility.yul\":16073:16085   */\n      0x746869732074696d652e00000000000000000000000000000000000000000000\n        /* \"#utility.yul\":16068:16070   */\n      0x20\n        /* \"#utility.yul\":16060:16066   */\n      dup3\n        /* \"#utility.yul\":16056:16071   */\n      add\n        /* \"#utility.yul\":16049:16086   */\n      mstore\n        /* \"#utility.yul\":15864:16093   */\n      pop\n      jump\t// out\n        /* \"#utility.yul\":16099:16278   */\n    tag_211:\n        /* \"#utility.yul\":16239:16270   */\n      0x596f752063616e6e6f742072656e7420617420746869732074696d652e000000\n        /* \"#utility.yul\":16235:16236   */\n      0x00\n        /* \"#utility.yul\":16227:16233   */\n      dup3\n        /* \"#utility.yul\":16223:16237   */\n      add\n        /* \"#utility.yul\":16216:16271   */\n      mstore\n        /* \"#utility.yul\":16099:16278   */\n      pop\n      jump\t// out\n        /* \"#utility.yul\":16284:16576   */\n    tag_216:\n        /* \"#utility.yul\":16424:16458   */\n      0x596f7520646f206e6f74206861766520656e6f7567682066756e647320746f20\n        /* \"#utility.yul\":16420:16421   */\n      0x00\n        /* \"#utility.yul\":16412:16418   */\n      dup3\n        /* \"#utility.yul\":16408:16422   */\n      add\n        /* \"#utility.yul\":16401:16459   */\n      mstore\n        /* \"#utility.yul\":16493:16527   */\n      0x636f766572207061796d656e742e20506c65617365206d616b65206120646570\n        /* \"#utility.yul\":16488:16490   */\n      0x20\n        /* \"#utility.yul\":16480:16486   */\n      dup3\n        /* \"#utility.yul\":16476:16491   */\n      add\n        /* \"#utility.yul\":16469:16528   */\n      mstore\n        /* \"#utility.yul\":16562:16568   */\n      0x6f73697400000000000000000000000000000000000000000000000000000000\n        /* \"#utility.yul\":16557:16559   */\n      0x40\n        /* \"#utility.yul\":16549:16555   */\n      dup3\n        /* \"#utility.yul\":16545:16560   */\n      add\n        /* \"#utility.yul\":16538:16569   */\n      mstore\n        /* \"#utility.yul\":16284:16576   */\n      pop\n      jump\t// out\n        /* \"#utility.yul\":16582:16759   */\n    tag_221:\n        /* \"#utility.yul\":16722:16751   */\n      0x596f75206861766520612070656e64696e672062616c616e63652e0000000000\n        /* \"#utility.yul\":16718:16719   */\n      0x00\n        /* \"#utility.yul\":16710:16716   */\n      dup3\n        /* \"#utility.yul\":16706:16720   */\n      add\n        /* \"#utility.yul\":16699:16752   */\n      mstore\n        /* \"#utility.yul\":16582:16759   */\n      pop\n      jump\t// out\n        /* \"#utility.yul\":16765:16945   */\n    tag_226:\n        /* \"#utility.yul\":16905:16937   */\n      0x42696b652069732063757272656e746c7920636865636b6564206f75742e0000\n        /* \"#utility.yul\":16901:16902   */\n      0x00\n        /* \"#utility.yul\":16893:16899   */\n      dup3\n        /* \"#utility.yul\":16889:16903   */\n      add\n        /* \"#utility.yul\":16882:16938   */\n      mstore\n        /* \"#utility.yul\":16765:16945   */\n      pop\n      jump\t// out\n        /* \"#utility.yul\":16951:17073   */\n    tag_138:\n        /* \"#utility.yul\":17024:17048   */\n      tag_332\n        /* \"#utility.yul\":17042:17047   */\n      dup2\n        /* \"#utility.yul\":17024:17048   */\n      tag_292\n      jump\t// in\n    tag_332:\n        /* \"#utility.yul\":17017:17022   */\n      dup2\n        /* \"#utility.yul\":17014:17049   */\n      eq\n        /* \"#utility.yul\":17004:17067   */\n      tag_333\n      jumpi\n        /* \"#utility.yul\":17063:17064   */\n      0x00\n        /* \"#utility.yul\":17060:17061   */\n      dup1\n        /* \"#utility.yul\":17053:17065   */\n      revert\n        /* \"#utility.yul\":17004:17067   */\n    tag_333:\n        /* \"#utility.yul\":16951:17073   */\n      pop\n      jump\t// out\n        /* \"#utility.yul\":17079:17217   */\n    tag_142:\n        /* \"#utility.yul\":17160:17192   */\n      tag_335\n        /* \"#utility.yul\":17186:17191   */\n      dup2\n        /* \"#utility.yul\":17160:17192   */\n      tag_182\n      jump\t// in\n    tag_335:\n        /* \"#utility.yul\":17153:17158   */\n      dup2\n        /* \"#utility.yul\":17150:17193   */\n      eq\n        /* \"#utility.yul\":17140:17211   */\n      tag_336\n      jumpi\n        /* \"#utility.yul\":17207:17208   */\n      0x00\n        /* \"#utility.yul\":17204:17205   */\n      dup1\n        /* \"#utility.yul\":17197:17209   */\n      revert\n        /* \"#utility.yul\":17140:17211   */\n    tag_336:\n        /* \"#utility.yul\":17079:17217   */\n      pop\n      jump\t// out\n        /* \"#utility.yul\":17223:17339   */\n    tag_146:\n        /* \"#utility.yul\":17293:17314   */\n      tag_338\n        /* \"#utility.yul\":17308:17313   */\n      dup2\n        /* \"#utility.yul\":17293:17314   */\n      tag_186\n      jump\t// in\n    tag_338:\n        /* \"#utility.yul\":17286:17291   */\n      dup2\n        /* \"#utility.yul\":17283:17315   */\n      eq\n        /* \"#utility.yul\":17273:17333   */\n      tag_339\n      jumpi\n        /* \"#utility.yul\":17329:17330   */\n      0x00\n        /* \"#utility.yul\":17326:17327   */\n      dup1\n        /* \"#utility.yul\":17319:17331   */\n      revert\n        /* \"#utility.yul\":17273:17333   */\n    tag_339:\n        /* \"#utility.yul\":17223:17339   */\n      pop\n      jump\t// out\n        /* \"#utility.yul\":17345:17467   */\n    tag_156:\n        /* \"#utility.yul\":17418:17442   */\n      tag_341\n        /* \"#utility.yul\":17436:17441   */\n      dup2\n        /* \"#utility.yul\":17418:17442   */\n      tag_230\n      jump\t// in\n    tag_341:\n        /* \"#utility.yul\":17411:17416   */\n      dup2\n        /* \"#utility.yul\":17408:17443   */\n      eq\n        /* \"#utility.yul\":17398:17461   */\n      tag_342\n      jumpi\n        /* \"#utility.yul\":17457:17458   */\n      0x00\n        /* \"#utility.yul\":17454:17455   */\n      dup1\n        /* \"#utility.yul\":17447:17459   */\n      revert\n        /* \"#utility.yul\":17398:17461   */\n    tag_342:\n        /* \"#utility.yul\":17345:17467   */\n      pop\n      jump\t// out\n\n    auxdata: 0xa264697066735822122059d8db71e8e07ea23540f4e47c264a01e5ff047981cafecd9614b442bff7251664736f6c63430008070033\n}\n",
				"bytecode": {
					"linkReferences": {},
					"object": "608060405234801561001057600080fd5b50336000806101000a81548173ffffffffffffffffffffffffffffffffffffffff021916908373ffffffffffffffffffffffffffffffffffffffff160217905550611873806100606000396000f3fe6080604052600436106100915760003560e01c8063722713f711610059578063722713f71461019a5780638d23caa0146101c5578063aad1b617146101ee578063d9a59e331461022b578063f340fa011461025457610091565b80630b88adbe14610096578063300be4fc146100d357806341ba6e89146100ef5780635e6497271461012c578063644a137014610155575b600080fd5b3480156100a257600080fd5b506100bd60048036038101906100b89190610f1a565b610270565b6040516100ca919061121c565b60405180910390f35b6100ed60048036038101906100e89190610f1a565b6102c9565b005b3480156100fb57600080fd5b5061011660048036038101906101119190610f1a565b610560565b60405161012391906112f7565b60405180910390f35b34801561013857600080fd5b50610153600480360381019061014e9190610f47565b610600565b005b34801561016157600080fd5b5061017c60048036038101906101779190610f1a565b610791565b60405161019199989796959493929190611181565b60405180910390f35b3480156101a657600080fd5b506101af610929565b6040516101bc91906112f7565b60405180910390f35b3480156101d157600080fd5b506101ec60048036038101906101e79190610f1a565b610931565b005b3480156101fa57600080fd5b5061021560048036038101906102109190610f1a565b610b4b565b60405161022291906112f7565b60405180910390f35b34801561023757600080fd5b50610252600480360381019061024d9190610f1a565b610b97565b005b61026e60048036038101906102699190610f1a565b610cdb565b005b6000600160008373ffffffffffffffffffffffffffffffffffffffff1673ffffffffffffffffffffffffffffffffffffffff16815260200190815260200160002060030160009054906101000a900460ff169050919050565b6000600160008373ffffffffffffffffffffffffffffffffffffffff1673ffffffffffffffffffffffffffffffffffffffff168152602001908152602001600020600501541161034e576040517f08c379a000000000000000000000000000000000000000000000000000000000815260040161034590611257565b60405180910390fd5b34600160008373ffffffffffffffffffffffffffffffffffffffff1673ffffffffffffffffffffffffffffffffffffffff16815260200190815260200160002060040154116103d2576040517f08c379a00000000000000000000000000000000000000000000000000000000081526004016103c990611297565b60405180910390fd5b34600160008373ffffffffffffffffffffffffffffffffffffffff1673ffffffffffffffffffffffffffffffffffffffff16815260200190815260200160002060040160008282546104249190611465565b9250508190555060018060008373ffffffffffffffffffffffffffffffffffffffff1673ffffffffffffffffffffffffffffffffffffffff16815260200190815260200160002060030160006101000a81548160ff0219169083151502179055506000600160008373ffffffffffffffffffffffffffffffffffffffff1673ffffffffffffffffffffffffffffffffffffffff168152602001908152602001600020600501819055506000600160008373ffffffffffffffffffffffffffffffffffffffff1673ffffffffffffffffffffffffffffffffffffffff168152602001908152602001600020600601819055506000600160008373ffffffffffffffffffffffffffffffffffffffff1673ffffffffffffffffffffffffffffffffffffffff1681526020019081526020016000206007018190555050565b6000801515600160008473ffffffffffffffffffffffffffffffffffffffff1673ffffffffffffffffffffffffffffffffffffffff16815260200190815260200160002060030160019054906101000a900460ff161515146105f7576040517f08c379a00000000000000000000000000000000000000000000000000000000081526004016105ee906112d7565b60405180910390fd5b60079050919050565b6040518061012001604052808a73ffffffffffffffffffffffffffffffffffffffff1681526020018981526020018881526020018715158152602001861515815260200185815260200184815260200183815260200182815250600160008b73ffffffffffffffffffffffffffffffffffffffff1673ffffffffffffffffffffffffffffffffffffffff16815260200190815260200160002060008201518160000160006101000a81548173ffffffffffffffffffffffffffffffffffffffff021916908373ffffffffffffffffffffffffffffffffffffffff16021790555060208201518160010190805190602001906106fc929190610db3565b506040820151816002019080519060200190610719929190610db3565b5060608201518160030160006101000a81548160ff02191690831515021790555060808201518160030160016101000a81548160ff02191690831515021790555060a0820151816004015560c0820151816005015560e082015181600601556101008201518160070155905050505050505050505050565b60016020528060005260406000206000915090508060000160009054906101000a900473ffffffffffffffffffffffffffffffffffffffff16908060010180546107da90611535565b80601f016020809104026020016040519081016040528092919081815260200182805461080690611535565b80156108535780601f1061082857610100808354040283529160200191610853565b820191906000526020600020905b81548152906001019060200180831161083657829003601f168201915b50505050509080600201805461086890611535565b80601f016020809104026020016040519081016040528092919081815260200182805461089490611535565b80156108e15780601f106108b6576101008083540402835291602001916108e1565b820191906000526020600020905b8154815290600101906020018083116108c457829003601f168201915b5050505050908060030160009054906101000a900460ff16908060030160019054906101000a900460ff16908060040154908060050154908060060154908060070154905089565b600047905090565b6000600160008373ffffffffffffffffffffffffffffffffffffffff1673ffffffffffffffffffffffffffffffffffffffff16815260200190815260200160002060050154146109b6576040517f08c379a00000000000000000000000000000000000000000000000000000000081526004016109ad906112b7565b60405180910390fd5b60011515600160008373ffffffffffffffffffffffffffffffffffffffff1673ffffffffffffffffffffffffffffffffffffffff16815260200190815260200160002060030160009054906101000a900460ff16151514610a4c576040517f08c379a0000000000000000000000000000000000000000000000000000000008152600401610a4390611277565b60405180910390fd5b60018060008373ffffffffffffffffffffffffffffffffffffffff1673ffffffffffffffffffffffffffffffffffffffff16815260200190815260200160002060030160016101000a81548160ff02191690831515021790555042600160008373ffffffffffffffffffffffffffffffffffffffff1673ffffffffffffffffffffffffffffffffffffffff168152602001908152602001600020600601819055506000600160008373ffffffffffffffffffffffffffffffffffffffff1673ffffffffffffffffffffffffffffffffffffffff16815260200190815260200160002060030160006101000a81548160ff02191690831515021790555050565b6000600160008373ffffffffffffffffffffffffffffffffffffffff1673ffffffffffffffffffffffffffffffffffffffff168152602001908152602001600020600401549050919050565b60011515600160008373ffffffffffffffffffffffffffffffffffffffff1673ffffffffffffffffffffffffffffffffffffffff16815260200190815260200160002060030160019054906101000a900460ff16151514610c2d576040517f08c379a0000000000000000000000000000000000000000000000000000000008152600401610c2490611237565b60405180910390fd5b6000600160008373ffffffffffffffffffffffffffffffffffffffff1673ffffffffffffffffffffffffffffffffffffffff16815260200190815260200160002060030160016101000a81548160ff02191690831515021790555042600160008373ffffffffffffffffffffffffffffffffffffffff1673ffffffffffffffffffffffffffffffffffffffff16815260200190815260200160002060070181905550610cd881610d37565b50565b34600160008373ffffffffffffffffffffffffffffffffffffffff1673ffffffffffffffffffffffffffffffffffffffff1681526020019081526020016000206004016000828254610d2d9190611384565b9250508190555050565b6000610d4282610560565b90506000600582610d5391906113da565b90506611c37937e0800081610d68919061140b565b600160008573ffffffffffffffffffffffffffffffffffffffff1673ffffffffffffffffffffffffffffffffffffffff16815260200190815260200160002060050181905550505050565b828054610dbf90611535565b90600052602060002090601f016020900481019282610de15760008555610e28565b82601f10610dfa57805160ff1916838001178555610e28565b82800160010185558215610e28579182015b82811115610e27578251825591602001919060010190610e0c565b5b509050610e359190610e39565b5090565b5b80821115610e52576000816000905550600101610e3a565b5090565b6000610e69610e6484611337565b611312565b905082815260208101848484011115610e8557610e84611659565b5b610e908482856114f3565b509392505050565b600081359050610ea7816117e1565b92915050565b600081359050610ebc816117f8565b92915050565b600081359050610ed18161180f565b92915050565b600082601f830112610eec57610eeb611654565b5b8135610efc848260208601610e56565b91505092915050565b600081359050610f1481611826565b92915050565b600060208284031215610f3057610f2f611663565b5b6000610f3e84828501610e98565b91505092915050565b60008060008060008060008060006101208a8c031215610f6a57610f69611663565b5b6000610f788c828d01610ead565b99505060208a013567ffffffffffffffff811115610f9957610f9861165e565b5b610fa58c828d01610ed7565b98505060408a013567ffffffffffffffff811115610fc657610fc561165e565b5b610fd28c828d01610ed7565b9750506060610fe38c828d01610ec2565b9650506080610ff48c828d01610ec2565b95505060a06110058c828d01610f05565b94505060c06110168c828d01610f05565b93505060e06110278c828d01610f05565b9250506101006110398c828d01610f05565b9150509295985092959850929598565b611052816114ab565b82525050565b611061816114bd565b82525050565b600061107282611368565b61107c8185611373565b935061108c818560208601611502565b61109581611668565b840191505092915050565b60006110ad601e83611373565b91506110b882611679565b602082019050919050565b60006110d0602a83611373565b91506110db826116a2565b604082019050919050565b60006110f3601d83611373565b91506110fe826116f1565b602082019050919050565b6000611116604483611373565b91506111218261171a565b606082019050919050565b6000611139601b83611373565b91506111448261178f565b602082019050919050565b600061115c601e83611373565b9150611167826117b8565b602082019050919050565b61117b816114e9565b82525050565b600061012082019050611197600083018c611049565b81810360208301526111a9818b611067565b905081810360408301526111bd818a611067565b90506111cc6060830189611058565b6111d96080830188611058565b6111e660a0830187611172565b6111f360c0830186611172565b61120060e0830185611172565b61120e610100830184611172565b9a9950505050505050505050565b60006020820190506112316000830184611058565b92915050565b60006020820190508181036000830152611250816110a0565b9050919050565b60006020820190508181036000830152611270816110c3565b9050919050565b60006020820190508181036000830152611290816110e6565b9050919050565b600060208201905081810360008301526112b081611109565b9050919050565b600060208201905081810360008301526112d08161112c565b9050919050565b600060208201905081810360008301526112f08161114f565b9050919050565b600060208201905061130c6000830184611172565b92915050565b600061131c61132d565b90506113288282611567565b919050565b6000604051905090565b600067ffffffffffffffff82111561135257611351611625565b5b61135b82611668565b9050602081019050919050565b600081519050919050565b600082825260208201905092915050565b600061138f826114e9565b915061139a836114e9565b9250827fffffffffffffffffffffffffffffffffffffffffffffffffffffffffffffffff038211156113cf576113ce611598565b5b828201905092915050565b60006113e5826114e9565b91506113f0836114e9565b925082611400576113ff6115c7565b5b828204905092915050565b6000611416826114e9565b9150611421836114e9565b9250817fffffffffffffffffffffffffffffffffffffffffffffffffffffffffffffffff048311821515161561145a57611459611598565b5b828202905092915050565b6000611470826114e9565b915061147b836114e9565b92508282101561148e5761148d611598565b5b828203905092915050565b60006114a4826114c9565b9050919050565b60006114b6826114c9565b9050919050565b60008115159050919050565b600073ffffffffffffffffffffffffffffffffffffffff82169050919050565b6000819050919050565b82818337600083830152505050565b60005b83811015611520578082015181840152602081019050611505565b8381111561152f576000848401525b50505050565b6000600282049050600182168061154d57607f821691505b60208210811415611561576115606115f6565b5b50919050565b61157082611668565b810181811067ffffffffffffffff8211171561158f5761158e611625565b5b80604052505050565b7f4e487b7100000000000000000000000000000000000000000000000000000000600052601160045260246000fd5b7f4e487b7100000000000000000000000000000000000000000000000000000000600052601260045260246000fd5b7f4e487b7100000000000000000000000000000000000000000000000000000000600052602260045260246000fd5b7f4e487b7100000000000000000000000000000000000000000000000000000000600052604160045260246000fd5b600080fd5b600080fd5b600080fd5b600080fd5b6000601f19601f8301169050919050565b7f506c6561736520636865636b206f757420612062696b652066697273742e0000600082015250565b7f596f7520646f206e6f74206861766520616e797468696e67206475652061742060008201527f746869732074696d652e00000000000000000000000000000000000000000000602082015250565b7f596f752063616e6e6f742072656e7420617420746869732074696d652e000000600082015250565b7f596f7520646f206e6f74206861766520656e6f7567682066756e647320746f2060008201527f636f766572207061796d656e742e20506c65617365206d616b6520612064657060208201527f6f73697400000000000000000000000000000000000000000000000000000000604082015250565b7f596f75206861766520612070656e64696e672062616c616e63652e0000000000600082015250565b7f42696b652069732063757272656e746c7920636865636b6564206f75742e0000600082015250565b6117ea81611499565b81146117f557600080fd5b50565b611801816114ab565b811461180c57600080fd5b50565b611818816114bd565b811461182357600080fd5b50565b61182f816114e9565b811461183a57600080fd5b5056fea264697066735822122059d8db71e8e07ea23540f4e47c264a01e5ff047981cafecd9614b442bff7251664736f6c63430008070033",
					"opcodes": "PUSH1 0x80 PUSH1 0x40 MSTORE CALLVALUE DUP1 ISZERO PUSH2 0x10 JUMPI PUSH1 0x0 DUP1 REVERT JUMPDEST POP CALLER PUSH1 0x0 DUP1 PUSH2 0x100 EXP DUP2 SLOAD DUP2 PUSH20 0xFFFFFFFFFFFFFFFFFFFFFFFFFFFFFFFFFFFFFFFF MUL NOT AND SWAP1 DUP4 PUSH20 0xFFFFFFFFFFFFFFFFFFFFFFFFFFFFFFFFFFFFFFFF AND MUL OR SWAP1 SSTORE POP PUSH2 0x1873 DUP1 PUSH2 0x60 PUSH1 0x0 CODECOPY PUSH1 0x0 RETURN INVALID PUSH1 0x80 PUSH1 0x40 MSTORE PUSH1 0x4 CALLDATASIZE LT PUSH2 0x91 JUMPI PUSH1 0x0 CALLDATALOAD PUSH1 0xE0 SHR DUP1 PUSH4 0x722713F7 GT PUSH2 0x59 JUMPI DUP1 PUSH4 0x722713F7 EQ PUSH2 0x19A JUMPI DUP1 PUSH4 0x8D23CAA0 EQ PUSH2 0x1C5 JUMPI DUP1 PUSH4 0xAAD1B617 EQ PUSH2 0x1EE JUMPI DUP1 PUSH4 0xD9A59E33 EQ PUSH2 0x22B JUMPI DUP1 PUSH4 0xF340FA01 EQ PUSH2 0x254 JUMPI PUSH2 0x91 JUMP JUMPDEST DUP1 PUSH4 0xB88ADBE EQ PUSH2 0x96 JUMPI DUP1 PUSH4 0x300BE4FC EQ PUSH2 0xD3 JUMPI DUP1 PUSH4 0x41BA6E89 EQ PUSH2 0xEF JUMPI DUP1 PUSH4 0x5E649727 EQ PUSH2 0x12C JUMPI DUP1 PUSH4 0x644A1370 EQ PUSH2 0x155 JUMPI JUMPDEST PUSH1 0x0 DUP1 REVERT JUMPDEST CALLVALUE DUP1 ISZERO PUSH2 0xA2 JUMPI PUSH1 0x0 DUP1 REVERT JUMPDEST POP PUSH2 0xBD PUSH1 0x4 DUP1 CALLDATASIZE SUB DUP2 ADD SWAP1 PUSH2 0xB8 SWAP2 SWAP1 PUSH2 0xF1A JUMP JUMPDEST PUSH2 0x270 JUMP JUMPDEST PUSH1 0x40 MLOAD PUSH2 0xCA SWAP2 SWAP1 PUSH2 0x121C JUMP JUMPDEST PUSH1 0x40 MLOAD DUP1 SWAP2 SUB SWAP1 RETURN JUMPDEST PUSH2 0xED PUSH1 0x4 DUP1 CALLDATASIZE SUB DUP2 ADD SWAP1 PUSH2 0xE8 SWAP2 SWAP1 PUSH2 0xF1A JUMP JUMPDEST PUSH2 0x2C9 JUMP JUMPDEST STOP JUMPDEST CALLVALUE DUP1 ISZERO PUSH2 0xFB JUMPI PUSH1 0x0 DUP1 REVERT JUMPDEST POP PUSH2 0x116 PUSH1 0x4 DUP1 CALLDATASIZE SUB DUP2 ADD SWAP1 PUSH2 0x111 SWAP2 SWAP1 PUSH2 0xF1A JUMP JUMPDEST PUSH2 0x560 JUMP JUMPDEST PUSH1 0x40 MLOAD PUSH2 0x123 SWAP2 SWAP1 PUSH2 0x12F7 JUMP JUMPDEST PUSH1 0x40 MLOAD DUP1 SWAP2 SUB SWAP1 RETURN JUMPDEST CALLVALUE DUP1 ISZERO PUSH2 0x138 JUMPI PUSH1 0x0 DUP1 REVERT JUMPDEST POP PUSH2 0x153 PUSH1 0x4 DUP1 CALLDATASIZE SUB DUP2 ADD SWAP1 PUSH2 0x14E SWAP2 SWAP1 PUSH2 0xF47 JUMP JUMPDEST PUSH2 0x600 JUMP JUMPDEST STOP JUMPDEST CALLVALUE DUP1 ISZERO PUSH2 0x161 JUMPI PUSH1 0x0 DUP1 REVERT JUMPDEST POP PUSH2 0x17C PUSH1 0x4 DUP1 CALLDATASIZE SUB DUP2 ADD SWAP1 PUSH2 0x177 SWAP2 SWAP1 PUSH2 0xF1A JUMP JUMPDEST PUSH2 0x791 JUMP JUMPDEST PUSH1 0x40 MLOAD PUSH2 0x191 SWAP10 SWAP9 SWAP8 SWAP7 SWAP6 SWAP5 SWAP4 SWAP3 SWAP2 SWAP1 PUSH2 0x1181 JUMP JUMPDEST PUSH1 0x40 MLOAD DUP1 SWAP2 SUB SWAP1 RETURN JUMPDEST CALLVALUE DUP1 ISZERO PUSH2 0x1A6 JUMPI PUSH1 0x0 DUP1 REVERT JUMPDEST POP PUSH2 0x1AF PUSH2 0x929 JUMP JUMPDEST PUSH1 0x40 MLOAD PUSH2 0x1BC SWAP2 SWAP1 PUSH2 0x12F7 JUMP JUMPDEST PUSH1 0x40 MLOAD DUP1 SWAP2 SUB SWAP1 RETURN JUMPDEST CALLVALUE DUP1 ISZERO PUSH2 0x1D1 JUMPI PUSH1 0x0 DUP1 REVERT JUMPDEST POP PUSH2 0x1EC PUSH1 0x4 DUP1 CALLDATASIZE SUB DUP2 ADD SWAP1 PUSH2 0x1E7 SWAP2 SWAP1 PUSH2 0xF1A JUMP JUMPDEST PUSH2 0x931 JUMP JUMPDEST STOP JUMPDEST CALLVALUE DUP1 ISZERO PUSH2 0x1FA JUMPI PUSH1 0x0 DUP1 REVERT JUMPDEST POP PUSH2 0x215 PUSH1 0x4 DUP1 CALLDATASIZE SUB DUP2 ADD SWAP1 PUSH2 0x210 SWAP2 SWAP1 PUSH2 0xF1A JUMP JUMPDEST PUSH2 0xB4B JUMP JUMPDEST PUSH1 0x40 MLOAD PUSH2 0x222 SWAP2 SWAP1 PUSH2 0x12F7 JUMP JUMPDEST PUSH1 0x40 MLOAD DUP1 SWAP2 SUB SWAP1 RETURN JUMPDEST CALLVALUE DUP1 ISZERO PUSH2 0x237 JUMPI PUSH1 0x0 DUP1 REVERT JUMPDEST POP PUSH2 0x252 PUSH1 0x4 DUP1 CALLDATASIZE SUB DUP2 ADD SWAP1 PUSH2 0x24D SWAP2 SWAP1 PUSH2 0xF1A JUMP JUMPDEST PUSH2 0xB97 JUMP JUMPDEST STOP JUMPDEST PUSH2 0x26E PUSH1 0x4 DUP1 CALLDATASIZE SUB DUP2 ADD SWAP1 PUSH2 0x269 SWAP2 SWAP1 PUSH2 0xF1A JUMP JUMPDEST PUSH2 0xCDB JUMP JUMPDEST STOP JUMPDEST PUSH1 0x0 PUSH1 0x1 PUSH1 0x0 DUP4 PUSH20 0xFFFFFFFFFFFFFFFFFFFFFFFFFFFFFFFFFFFFFFFF AND PUSH20 0xFFFFFFFFFFFFFFFFFFFFFFFFFFFFFFFFFFFFFFFF AND DUP2 MSTORE PUSH1 0x20 ADD SWAP1 DUP2 MSTORE PUSH1 0x20 ADD PUSH1 0x0 KECCAK256 PUSH1 0x3 ADD PUSH1 0x0 SWAP1 SLOAD SWAP1 PUSH2 0x100 EXP SWAP1 DIV PUSH1 0xFF AND SWAP1 POP SWAP2 SWAP1 POP JUMP JUMPDEST PUSH1 0x0 PUSH1 0x1 PUSH1 0x0 DUP4 PUSH20 0xFFFFFFFFFFFFFFFFFFFFFFFFFFFFFFFFFFFFFFFF AND PUSH20 0xFFFFFFFFFFFFFFFFFFFFFFFFFFFFFFFFFFFFFFFF AND DUP2 MSTORE PUSH1 0x20 ADD SWAP1 DUP2 MSTORE PUSH1 0x20 ADD PUSH1 0x0 KECCAK256 PUSH1 0x5 ADD SLOAD GT PUSH2 0x34E JUMPI PUSH1 0x40 MLOAD PUSH32 0x8C379A000000000000000000000000000000000000000000000000000000000 DUP2 MSTORE PUSH1 0x4 ADD PUSH2 0x345 SWAP1 PUSH2 0x1257 JUMP JUMPDEST PUSH1 0x40 MLOAD DUP1 SWAP2 SUB SWAP1 REVERT JUMPDEST CALLVALUE PUSH1 0x1 PUSH1 0x0 DUP4 PUSH20 0xFFFFFFFFFFFFFFFFFFFFFFFFFFFFFFFFFFFFFFFF AND PUSH20 0xFFFFFFFFFFFFFFFFFFFFFFFFFFFFFFFFFFFFFFFF AND DUP2 MSTORE PUSH1 0x20 ADD SWAP1 DUP2 MSTORE PUSH1 0x20 ADD PUSH1 0x0 KECCAK256 PUSH1 0x4 ADD SLOAD GT PUSH2 0x3D2 JUMPI PUSH1 0x40 MLOAD PUSH32 0x8C379A000000000000000000000000000000000000000000000000000000000 DUP2 MSTORE PUSH1 0x4 ADD PUSH2 0x3C9 SWAP1 PUSH2 0x1297 JUMP JUMPDEST PUSH1 0x40 MLOAD DUP1 SWAP2 SUB SWAP1 REVERT JUMPDEST CALLVALUE PUSH1 0x1 PUSH1 0x0 DUP4 PUSH20 0xFFFFFFFFFFFFFFFFFFFFFFFFFFFFFFFFFFFFFFFF AND PUSH20 0xFFFFFFFFFFFFFFFFFFFFFFFFFFFFFFFFFFFFFFFF AND DUP2 MSTORE PUSH1 0x20 ADD SWAP1 DUP2 MSTORE PUSH1 0x20 ADD PUSH1 0x0 KECCAK256 PUSH1 0x4 ADD PUSH1 0x0 DUP3 DUP3 SLOAD PUSH2 0x424 SWAP2 SWAP1 PUSH2 0x1465 JUMP JUMPDEST SWAP3 POP POP DUP2 SWAP1 SSTORE POP PUSH1 0x1 DUP1 PUSH1 0x0 DUP4 PUSH20 0xFFFFFFFFFFFFFFFFFFFFFFFFFFFFFFFFFFFFFFFF AND PUSH20 0xFFFFFFFFFFFFFFFFFFFFFFFFFFFFFFFFFFFFFFFF AND DUP2 MSTORE PUSH1 0x20 ADD SWAP1 DUP2 MSTORE PUSH1 0x20 ADD PUSH1 0x0 KECCAK256 PUSH1 0x3 ADD PUSH1 0x0 PUSH2 0x100 EXP DUP2 SLOAD DUP2 PUSH1 0xFF MUL NOT AND SWAP1 DUP4 ISZERO ISZERO MUL OR SWAP1 SSTORE POP PUSH1 0x0 PUSH1 0x1 PUSH1 0x0 DUP4 PUSH20 0xFFFFFFFFFFFFFFFFFFFFFFFFFFFFFFFFFFFFFFFF AND PUSH20 0xFFFFFFFFFFFFFFFFFFFFFFFFFFFFFFFFFFFFFFFF AND DUP2 MSTORE PUSH1 0x20 ADD SWAP1 DUP2 MSTORE PUSH1 0x20 ADD PUSH1 0x0 KECCAK256 PUSH1 0x5 ADD DUP2 SWAP1 SSTORE POP PUSH1 0x0 PUSH1 0x1 PUSH1 0x0 DUP4 PUSH20 0xFFFFFFFFFFFFFFFFFFFFFFFFFFFFFFFFFFFFFFFF AND PUSH20 0xFFFFFFFFFFFFFFFFFFFFFFFFFFFFFFFFFFFFFFFF AND DUP2 MSTORE PUSH1 0x20 ADD SWAP1 DUP2 MSTORE PUSH1 0x20 ADD PUSH1 0x0 KECCAK256 PUSH1 0x6 ADD DUP2 SWAP1 SSTORE POP PUSH1 0x0 PUSH1 0x1 PUSH1 0x0 DUP4 PUSH20 0xFFFFFFFFFFFFFFFFFFFFFFFFFFFFFFFFFFFFFFFF AND PUSH20 0xFFFFFFFFFFFFFFFFFFFFFFFFFFFFFFFFFFFFFFFF AND DUP2 MSTORE PUSH1 0x20 ADD SWAP1 DUP2 MSTORE PUSH1 0x20 ADD PUSH1 0x0 KECCAK256 PUSH1 0x7 ADD DUP2 SWAP1 SSTORE POP POP JUMP JUMPDEST PUSH1 0x0 DUP1 ISZERO ISZERO PUSH1 0x1 PUSH1 0x0 DUP5 PUSH20 0xFFFFFFFFFFFFFFFFFFFFFFFFFFFFFFFFFFFFFFFF AND PUSH20 0xFFFFFFFFFFFFFFFFFFFFFFFFFFFFFFFFFFFFFFFF AND DUP2 MSTORE PUSH1 0x20 ADD SWAP1 DUP2 MSTORE PUSH1 0x20 ADD PUSH1 0x0 KECCAK256 PUSH1 0x3 ADD PUSH1 0x1 SWAP1 SLOAD SWAP1 PUSH2 0x100 EXP SWAP1 DIV PUSH1 0xFF AND ISZERO ISZERO EQ PUSH2 0x5F7 JUMPI PUSH1 0x40 MLOAD PUSH32 0x8C379A000000000000000000000000000000000000000000000000000000000 DUP2 MSTORE PUSH1 0x4 ADD PUSH2 0x5EE SWAP1 PUSH2 0x12D7 JUMP JUMPDEST PUSH1 0x40 MLOAD DUP1 SWAP2 SUB SWAP1 REVERT JUMPDEST PUSH1 0x7 SWAP1 POP SWAP2 SWAP1 POP JUMP JUMPDEST PUSH1 0x40 MLOAD DUP1 PUSH2 0x120 ADD PUSH1 0x40 MSTORE DUP1 DUP11 PUSH20 0xFFFFFFFFFFFFFFFFFFFFFFFFFFFFFFFFFFFFFFFF AND DUP2 MSTORE PUSH1 0x20 ADD DUP10 DUP2 MSTORE PUSH1 0x20 ADD DUP9 DUP2 MSTORE PUSH1 0x20 ADD DUP8 ISZERO ISZERO DUP2 MSTORE PUSH1 0x20 ADD DUP7 ISZERO ISZERO DUP2 MSTORE PUSH1 0x20 ADD DUP6 DUP2 MSTORE PUSH1 0x20 ADD DUP5 DUP2 MSTORE PUSH1 0x20 ADD DUP4 DUP2 MSTORE PUSH1 0x20 ADD DUP3 DUP2 MSTORE POP PUSH1 0x1 PUSH1 0x0 DUP12 PUSH20 0xFFFFFFFFFFFFFFFFFFFFFFFFFFFFFFFFFFFFFFFF AND PUSH20 0xFFFFFFFFFFFFFFFFFFFFFFFFFFFFFFFFFFFFFFFF AND DUP2 MSTORE PUSH1 0x20 ADD SWAP1 DUP2 MSTORE PUSH1 0x20 ADD PUSH1 0x0 KECCAK256 PUSH1 0x0 DUP3 ADD MLOAD DUP2 PUSH1 0x0 ADD PUSH1 0x0 PUSH2 0x100 EXP DUP2 SLOAD DUP2 PUSH20 0xFFFFFFFFFFFFFFFFFFFFFFFFFFFFFFFFFFFFFFFF MUL NOT AND SWAP1 DUP4 PUSH20 0xFFFFFFFFFFFFFFFFFFFFFFFFFFFFFFFFFFFFFFFF AND MUL OR SWAP1 SSTORE POP PUSH1 0x20 DUP3 ADD MLOAD DUP2 PUSH1 0x1 ADD SWAP1 DUP1 MLOAD SWAP1 PUSH1 0x20 ADD SWAP1 PUSH2 0x6FC SWAP3 SWAP2 SWAP1 PUSH2 0xDB3 JUMP JUMPDEST POP PUSH1 0x40 DUP3 ADD MLOAD DUP2 PUSH1 0x2 ADD SWAP1 DUP1 MLOAD SWAP1 PUSH1 0x20 ADD SWAP1 PUSH2 0x719 SWAP3 SWAP2 SWAP1 PUSH2 0xDB3 JUMP JUMPDEST POP PUSH1 0x60 DUP3 ADD MLOAD DUP2 PUSH1 0x3 ADD PUSH1 0x0 PUSH2 0x100 EXP DUP2 SLOAD DUP2 PUSH1 0xFF MUL NOT AND SWAP1 DUP4 ISZERO ISZERO MUL OR SWAP1 SSTORE POP PUSH1 0x80 DUP3 ADD MLOAD DUP2 PUSH1 0x3 ADD PUSH1 0x1 PUSH2 0x100 EXP DUP2 SLOAD DUP2 PUSH1 0xFF MUL NOT AND SWAP1 DUP4 ISZERO ISZERO MUL OR SWAP1 SSTORE POP PUSH1 0xA0 DUP3 ADD MLOAD DUP2 PUSH1 0x4 ADD SSTORE PUSH1 0xC0 DUP3 ADD MLOAD DUP2 PUSH1 0x5 ADD SSTORE PUSH1 0xE0 DUP3 ADD MLOAD DUP2 PUSH1 0x6 ADD SSTORE PUSH2 0x100 DUP3 ADD MLOAD DUP2 PUSH1 0x7 ADD SSTORE SWAP1 POP POP POP POP POP POP POP POP POP POP POP JUMP JUMPDEST PUSH1 0x1 PUSH1 0x20 MSTORE DUP1 PUSH1 0x0 MSTORE PUSH1 0x40 PUSH1 0x0 KECCAK256 PUSH1 0x0 SWAP2 POP SWAP1 POP DUP1 PUSH1 0x0 ADD PUSH1 0x0 SWAP1 SLOAD SWAP1 PUSH2 0x100 EXP SWAP1 DIV PUSH20 0xFFFFFFFFFFFFFFFFFFFFFFFFFFFFFFFFFFFFFFFF AND SWAP1 DUP1 PUSH1 0x1 ADD DUP1 SLOAD PUSH2 0x7DA SWAP1 PUSH2 0x1535 JUMP JUMPDEST DUP1 PUSH1 0x1F ADD PUSH1 0x20 DUP1 SWAP2 DIV MUL PUSH1 0x20 ADD PUSH1 0x40 MLOAD SWAP1 DUP2 ADD PUSH1 0x40 MSTORE DUP1 SWAP3 SWAP2 SWAP1 DUP2 DUP2 MSTORE PUSH1 0x20 ADD DUP3 DUP1 SLOAD PUSH2 0x806 SWAP1 PUSH2 0x1535 JUMP JUMPDEST DUP1 ISZERO PUSH2 0x853 JUMPI DUP1 PUSH1 0x1F LT PUSH2 0x828 JUMPI PUSH2 0x100 DUP1 DUP4 SLOAD DIV MUL DUP4 MSTORE SWAP2 PUSH1 0x20 ADD SWAP2 PUSH2 0x853 JUMP JUMPDEST DUP3 ADD SWAP2 SWAP1 PUSH1 0x0 MSTORE PUSH1 0x20 PUSH1 0x0 KECCAK256 SWAP1 JUMPDEST DUP2 SLOAD DUP2 MSTORE SWAP1 PUSH1 0x1 ADD SWAP1 PUSH1 0x20 ADD DUP1 DUP4 GT PUSH2 0x836 JUMPI DUP3 SWAP1 SUB PUSH1 0x1F AND DUP3 ADD SWAP2 JUMPDEST POP POP POP POP POP SWAP1 DUP1 PUSH1 0x2 ADD DUP1 SLOAD PUSH2 0x868 SWAP1 PUSH2 0x1535 JUMP JUMPDEST DUP1 PUSH1 0x1F ADD PUSH1 0x20 DUP1 SWAP2 DIV MUL PUSH1 0x20 ADD PUSH1 0x40 MLOAD SWAP1 DUP2 ADD PUSH1 0x40 MSTORE DUP1 SWAP3 SWAP2 SWAP1 DUP2 DUP2 MSTORE PUSH1 0x20 ADD DUP3 DUP1 SLOAD PUSH2 0x894 SWAP1 PUSH2 0x1535 JUMP JUMPDEST DUP1 ISZERO PUSH2 0x8E1 JUMPI DUP1 PUSH1 0x1F LT PUSH2 0x8B6 JUMPI PUSH2 0x100 DUP1 DUP4 SLOAD DIV MUL DUP4 MSTORE SWAP2 PUSH1 0x20 ADD SWAP2 PUSH2 0x8E1 JUMP JUMPDEST DUP3 ADD SWAP2 SWAP1 PUSH1 0x0 MSTORE PUSH1 0x20 PUSH1 0x0 KECCAK256 SWAP1 JUMPDEST DUP2 SLOAD DUP2 MSTORE SWAP1 PUSH1 0x1 ADD SWAP1 PUSH1 0x20 ADD DUP1 DUP4 GT PUSH2 0x8C4 JUMPI DUP3 SWAP1 SUB PUSH1 0x1F AND DUP3 ADD SWAP2 JUMPDEST POP POP POP POP POP SWAP1 DUP1 PUSH1 0x3 ADD PUSH1 0x0 SWAP1 SLOAD SWAP1 PUSH2 0x100 EXP SWAP1 DIV PUSH1 0xFF AND SWAP1 DUP1 PUSH1 0x3 ADD PUSH1 0x1 SWAP1 SLOAD SWAP1 PUSH2 0x100 EXP SWAP1 DIV PUSH1 0xFF AND SWAP1 DUP1 PUSH1 0x4 ADD SLOAD SWAP1 DUP1 PUSH1 0x5 ADD SLOAD SWAP1 DUP1 PUSH1 0x6 ADD SLOAD SWAP1 DUP1 PUSH1 0x7 ADD SLOAD SWAP1 POP DUP10 JUMP JUMPDEST PUSH1 0x0 SELFBALANCE SWAP1 POP SWAP1 JUMP JUMPDEST PUSH1 0x0 PUSH1 0x1 PUSH1 0x0 DUP4 PUSH20 0xFFFFFFFFFFFFFFFFFFFFFFFFFFFFFFFFFFFFFFFF AND PUSH20 0xFFFFFFFFFFFFFFFFFFFFFFFFFFFFFFFFFFFFFFFF AND DUP2 MSTORE PUSH1 0x20 ADD SWAP1 DUP2 MSTORE PUSH1 0x20 ADD PUSH1 0x0 KECCAK256 PUSH1 0x5 ADD SLOAD EQ PUSH2 0x9B6 JUMPI PUSH1 0x40 MLOAD PUSH32 0x8C379A000000000000000000000000000000000000000000000000000000000 DUP2 MSTORE PUSH1 0x4 ADD PUSH2 0x9AD SWAP1 PUSH2 0x12B7 JUMP JUMPDEST PUSH1 0x40 MLOAD DUP1 SWAP2 SUB SWAP1 REVERT JUMPDEST PUSH1 0x1 ISZERO ISZERO PUSH1 0x1 PUSH1 0x0 DUP4 PUSH20 0xFFFFFFFFFFFFFFFFFFFFFFFFFFFFFFFFFFFFFFFF AND PUSH20 0xFFFFFFFFFFFFFFFFFFFFFFFFFFFFFFFFFFFFFFFF AND DUP2 MSTORE PUSH1 0x20 ADD SWAP1 DUP2 MSTORE PUSH1 0x20 ADD PUSH1 0x0 KECCAK256 PUSH1 0x3 ADD PUSH1 0x0 SWAP1 SLOAD SWAP1 PUSH2 0x100 EXP SWAP1 DIV PUSH1 0xFF AND ISZERO ISZERO EQ PUSH2 0xA4C JUMPI PUSH1 0x40 MLOAD PUSH32 0x8C379A000000000000000000000000000000000000000000000000000000000 DUP2 MSTORE PUSH1 0x4 ADD PUSH2 0xA43 SWAP1 PUSH2 0x1277 JUMP JUMPDEST PUSH1 0x40 MLOAD DUP1 SWAP2 SUB SWAP1 REVERT JUMPDEST PUSH1 0x1 DUP1 PUSH1 0x0 DUP4 PUSH20 0xFFFFFFFFFFFFFFFFFFFFFFFFFFFFFFFFFFFFFFFF AND PUSH20 0xFFFFFFFFFFFFFFFFFFFFFFFFFFFFFFFFFFFFFFFF AND DUP2 MSTORE PUSH1 0x20 ADD SWAP1 DUP2 MSTORE PUSH1 0x20 ADD PUSH1 0x0 KECCAK256 PUSH1 0x3 ADD PUSH1 0x1 PUSH2 0x100 EXP DUP2 SLOAD DUP2 PUSH1 0xFF MUL NOT AND SWAP1 DUP4 ISZERO ISZERO MUL OR SWAP1 SSTORE POP TIMESTAMP PUSH1 0x1 PUSH1 0x0 DUP4 PUSH20 0xFFFFFFFFFFFFFFFFFFFFFFFFFFFFFFFFFFFFFFFF AND PUSH20 0xFFFFFFFFFFFFFFFFFFFFFFFFFFFFFFFFFFFFFFFF AND DUP2 MSTORE PUSH1 0x20 ADD SWAP1 DUP2 MSTORE PUSH1 0x20 ADD PUSH1 0x0 KECCAK256 PUSH1 0x6 ADD DUP2 SWAP1 SSTORE POP PUSH1 0x0 PUSH1 0x1 PUSH1 0x0 DUP4 PUSH20 0xFFFFFFFFFFFFFFFFFFFFFFFFFFFFFFFFFFFFFFFF AND PUSH20 0xFFFFFFFFFFFFFFFFFFFFFFFFFFFFFFFFFFFFFFFF AND DUP2 MSTORE PUSH1 0x20 ADD SWAP1 DUP2 MSTORE PUSH1 0x20 ADD PUSH1 0x0 KECCAK256 PUSH1 0x3 ADD PUSH1 0x0 PUSH2 0x100 EXP DUP2 SLOAD DUP2 PUSH1 0xFF MUL NOT AND SWAP1 DUP4 ISZERO ISZERO MUL OR SWAP1 SSTORE POP POP JUMP JUMPDEST PUSH1 0x0 PUSH1 0x1 PUSH1 0x0 DUP4 PUSH20 0xFFFFFFFFFFFFFFFFFFFFFFFFFFFFFFFFFFFFFFFF AND PUSH20 0xFFFFFFFFFFFFFFFFFFFFFFFFFFFFFFFFFFFFFFFF AND DUP2 MSTORE PUSH1 0x20 ADD SWAP1 DUP2 MSTORE PUSH1 0x20 ADD PUSH1 0x0 KECCAK256 PUSH1 0x4 ADD SLOAD SWAP1 POP SWAP2 SWAP1 POP JUMP JUMPDEST PUSH1 0x1 ISZERO ISZERO PUSH1 0x1 PUSH1 0x0 DUP4 PUSH20 0xFFFFFFFFFFFFFFFFFFFFFFFFFFFFFFFFFFFFFFFF AND PUSH20 0xFFFFFFFFFFFFFFFFFFFFFFFFFFFFFFFFFFFFFFFF AND DUP2 MSTORE PUSH1 0x20 ADD SWAP1 DUP2 MSTORE PUSH1 0x20 ADD PUSH1 0x0 KECCAK256 PUSH1 0x3 ADD PUSH1 0x1 SWAP1 SLOAD SWAP1 PUSH2 0x100 EXP SWAP1 DIV PUSH1 0xFF AND ISZERO ISZERO EQ PUSH2 0xC2D JUMPI PUSH1 0x40 MLOAD PUSH32 0x8C379A000000000000000000000000000000000000000000000000000000000 DUP2 MSTORE PUSH1 0x4 ADD PUSH2 0xC24 SWAP1 PUSH2 0x1237 JUMP JUMPDEST PUSH1 0x40 MLOAD DUP1 SWAP2 SUB SWAP1 REVERT JUMPDEST PUSH1 0x0 PUSH1 0x1 PUSH1 0x0 DUP4 PUSH20 0xFFFFFFFFFFFFFFFFFFFFFFFFFFFFFFFFFFFFFFFF AND PUSH20 0xFFFFFFFFFFFFFFFFFFFFFFFFFFFFFFFFFFFFFFFF AND DUP2 MSTORE PUSH1 0x20 ADD SWAP1 DUP2 MSTORE PUSH1 0x20 ADD PUSH1 0x0 KECCAK256 PUSH1 0x3 ADD PUSH1 0x1 PUSH2 0x100 EXP DUP2 SLOAD DUP2 PUSH1 0xFF MUL NOT AND SWAP1 DUP4 ISZERO ISZERO MUL OR SWAP1 SSTORE POP TIMESTAMP PUSH1 0x1 PUSH1 0x0 DUP4 PUSH20 0xFFFFFFFFFFFFFFFFFFFFFFFFFFFFFFFFFFFFFFFF AND PUSH20 0xFFFFFFFFFFFFFFFFFFFFFFFFFFFFFFFFFFFFFFFF AND DUP2 MSTORE PUSH1 0x20 ADD SWAP1 DUP2 MSTORE PUSH1 0x20 ADD PUSH1 0x0 KECCAK256 PUSH1 0x7 ADD DUP2 SWAP1 SSTORE POP PUSH2 0xCD8 DUP2 PUSH2 0xD37 JUMP JUMPDEST POP JUMP JUMPDEST CALLVALUE PUSH1 0x1 PUSH1 0x0 DUP4 PUSH20 0xFFFFFFFFFFFFFFFFFFFFFFFFFFFFFFFFFFFFFFFF AND PUSH20 0xFFFFFFFFFFFFFFFFFFFFFFFFFFFFFFFFFFFFFFFF AND DUP2 MSTORE PUSH1 0x20 ADD SWAP1 DUP2 MSTORE PUSH1 0x20 ADD PUSH1 0x0 KECCAK256 PUSH1 0x4 ADD PUSH1 0x0 DUP3 DUP3 SLOAD PUSH2 0xD2D SWAP2 SWAP1 PUSH2 0x1384 JUMP JUMPDEST SWAP3 POP POP DUP2 SWAP1 SSTORE POP POP JUMP JUMPDEST PUSH1 0x0 PUSH2 0xD42 DUP3 PUSH2 0x560 JUMP JUMPDEST SWAP1 POP PUSH1 0x0 PUSH1 0x5 DUP3 PUSH2 0xD53 SWAP2 SWAP1 PUSH2 0x13DA JUMP JUMPDEST SWAP1 POP PUSH7 0x11C37937E08000 DUP2 PUSH2 0xD68 SWAP2 SWAP1 PUSH2 0x140B JUMP JUMPDEST PUSH1 0x1 PUSH1 0x0 DUP6 PUSH20 0xFFFFFFFFFFFFFFFFFFFFFFFFFFFFFFFFFFFFFFFF AND PUSH20 0xFFFFFFFFFFFFFFFFFFFFFFFFFFFFFFFFFFFFFFFF AND DUP2 MSTORE PUSH1 0x20 ADD SWAP1 DUP2 MSTORE PUSH1 0x20 ADD PUSH1 0x0 KECCAK256 PUSH1 0x5 ADD DUP2 SWAP1 SSTORE POP POP POP POP JUMP JUMPDEST DUP3 DUP1 SLOAD PUSH2 0xDBF SWAP1 PUSH2 0x1535 JUMP JUMPDEST SWAP1 PUSH1 0x0 MSTORE PUSH1 0x20 PUSH1 0x0 KECCAK256 SWAP1 PUSH1 0x1F ADD PUSH1 0x20 SWAP1 DIV DUP2 ADD SWAP3 DUP3 PUSH2 0xDE1 JUMPI PUSH1 0x0 DUP6 SSTORE PUSH2 0xE28 JUMP JUMPDEST DUP3 PUSH1 0x1F LT PUSH2 0xDFA JUMPI DUP1 MLOAD PUSH1 0xFF NOT AND DUP4 DUP1 ADD OR DUP6 SSTORE PUSH2 0xE28 JUMP JUMPDEST DUP3 DUP1 ADD PUSH1 0x1 ADD DUP6 SSTORE DUP3 ISZERO PUSH2 0xE28 JUMPI SWAP2 DUP3 ADD JUMPDEST DUP3 DUP2 GT ISZERO PUSH2 0xE27 JUMPI DUP3 MLOAD DUP3 SSTORE SWAP2 PUSH1 0x20 ADD SWAP2 SWAP1 PUSH1 0x1 ADD SWAP1 PUSH2 0xE0C JUMP JUMPDEST JUMPDEST POP SWAP1 POP PUSH2 0xE35 SWAP2 SWAP1 PUSH2 0xE39 JUMP JUMPDEST POP SWAP1 JUMP JUMPDEST JUMPDEST DUP1 DUP3 GT ISZERO PUSH2 0xE52 JUMPI PUSH1 0x0 DUP2 PUSH1 0x0 SWAP1 SSTORE POP PUSH1 0x1 ADD PUSH2 0xE3A JUMP JUMPDEST POP SWAP1 JUMP JUMPDEST PUSH1 0x0 PUSH2 0xE69 PUSH2 0xE64 DUP5 PUSH2 0x1337 JUMP JUMPDEST PUSH2 0x1312 JUMP JUMPDEST SWAP1 POP DUP3 DUP2 MSTORE PUSH1 0x20 DUP2 ADD DUP5 DUP5 DUP5 ADD GT ISZERO PUSH2 0xE85 JUMPI PUSH2 0xE84 PUSH2 0x1659 JUMP JUMPDEST JUMPDEST PUSH2 0xE90 DUP5 DUP3 DUP6 PUSH2 0x14F3 JUMP JUMPDEST POP SWAP4 SWAP3 POP POP POP JUMP JUMPDEST PUSH1 0x0 DUP2 CALLDATALOAD SWAP1 POP PUSH2 0xEA7 DUP2 PUSH2 0x17E1 JUMP JUMPDEST SWAP3 SWAP2 POP POP JUMP JUMPDEST PUSH1 0x0 DUP2 CALLDATALOAD SWAP1 POP PUSH2 0xEBC DUP2 PUSH2 0x17F8 JUMP JUMPDEST SWAP3 SWAP2 POP POP JUMP JUMPDEST PUSH1 0x0 DUP2 CALLDATALOAD SWAP1 POP PUSH2 0xED1 DUP2 PUSH2 0x180F JUMP JUMPDEST SWAP3 SWAP2 POP POP JUMP JUMPDEST PUSH1 0x0 DUP3 PUSH1 0x1F DUP4 ADD SLT PUSH2 0xEEC JUMPI PUSH2 0xEEB PUSH2 0x1654 JUMP JUMPDEST JUMPDEST DUP2 CALLDATALOAD PUSH2 0xEFC DUP5 DUP3 PUSH1 0x20 DUP7 ADD PUSH2 0xE56 JUMP JUMPDEST SWAP2 POP POP SWAP3 SWAP2 POP POP JUMP JUMPDEST PUSH1 0x0 DUP2 CALLDATALOAD SWAP1 POP PUSH2 0xF14 DUP2 PUSH2 0x1826 JUMP JUMPDEST SWAP3 SWAP2 POP POP JUMP JUMPDEST PUSH1 0x0 PUSH1 0x20 DUP3 DUP5 SUB SLT ISZERO PUSH2 0xF30 JUMPI PUSH2 0xF2F PUSH2 0x1663 JUMP JUMPDEST JUMPDEST PUSH1 0x0 PUSH2 0xF3E DUP5 DUP3 DUP6 ADD PUSH2 0xE98 JUMP JUMPDEST SWAP2 POP POP SWAP3 SWAP2 POP POP JUMP JUMPDEST PUSH1 0x0 DUP1 PUSH1 0x0 DUP1 PUSH1 0x0 DUP1 PUSH1 0x0 DUP1 PUSH1 0x0 PUSH2 0x120 DUP11 DUP13 SUB SLT ISZERO PUSH2 0xF6A JUMPI PUSH2 0xF69 PUSH2 0x1663 JUMP JUMPDEST JUMPDEST PUSH1 0x0 PUSH2 0xF78 DUP13 DUP3 DUP14 ADD PUSH2 0xEAD JUMP JUMPDEST SWAP10 POP POP PUSH1 0x20 DUP11 ADD CALLDATALOAD PUSH8 0xFFFFFFFFFFFFFFFF DUP2 GT ISZERO PUSH2 0xF99 JUMPI PUSH2 0xF98 PUSH2 0x165E JUMP JUMPDEST JUMPDEST PUSH2 0xFA5 DUP13 DUP3 DUP14 ADD PUSH2 0xED7 JUMP JUMPDEST SWAP9 POP POP PUSH1 0x40 DUP11 ADD CALLDATALOAD PUSH8 0xFFFFFFFFFFFFFFFF DUP2 GT ISZERO PUSH2 0xFC6 JUMPI PUSH2 0xFC5 PUSH2 0x165E JUMP JUMPDEST JUMPDEST PUSH2 0xFD2 DUP13 DUP3 DUP14 ADD PUSH2 0xED7 JUMP JUMPDEST SWAP8 POP POP PUSH1 0x60 PUSH2 0xFE3 DUP13 DUP3 DUP14 ADD PUSH2 0xEC2 JUMP JUMPDEST SWAP7 POP POP PUSH1 0x80 PUSH2 0xFF4 DUP13 DUP3 DUP14 ADD PUSH2 0xEC2 JUMP JUMPDEST SWAP6 POP POP PUSH1 0xA0 PUSH2 0x1005 DUP13 DUP3 DUP14 ADD PUSH2 0xF05 JUMP JUMPDEST SWAP5 POP POP PUSH1 0xC0 PUSH2 0x1016 DUP13 DUP3 DUP14 ADD PUSH2 0xF05 JUMP JUMPDEST SWAP4 POP POP PUSH1 0xE0 PUSH2 0x1027 DUP13 DUP3 DUP14 ADD PUSH2 0xF05 JUMP JUMPDEST SWAP3 POP POP PUSH2 0x100 PUSH2 0x1039 DUP13 DUP3 DUP14 ADD PUSH2 0xF05 JUMP JUMPDEST SWAP2 POP POP SWAP3 SWAP6 SWAP9 POP SWAP3 SWAP6 SWAP9 POP SWAP3 SWAP6 SWAP9 JUMP JUMPDEST PUSH2 0x1052 DUP2 PUSH2 0x14AB JUMP JUMPDEST DUP3 MSTORE POP POP JUMP JUMPDEST PUSH2 0x1061 DUP2 PUSH2 0x14BD JUMP JUMPDEST DUP3 MSTORE POP POP JUMP JUMPDEST PUSH1 0x0 PUSH2 0x1072 DUP3 PUSH2 0x1368 JUMP JUMPDEST PUSH2 0x107C DUP2 DUP6 PUSH2 0x1373 JUMP JUMPDEST SWAP4 POP PUSH2 0x108C DUP2 DUP6 PUSH1 0x20 DUP7 ADD PUSH2 0x1502 JUMP JUMPDEST PUSH2 0x1095 DUP2 PUSH2 0x1668 JUMP JUMPDEST DUP5 ADD SWAP2 POP POP SWAP3 SWAP2 POP POP JUMP JUMPDEST PUSH1 0x0 PUSH2 0x10AD PUSH1 0x1E DUP4 PUSH2 0x1373 JUMP JUMPDEST SWAP2 POP PUSH2 0x10B8 DUP3 PUSH2 0x1679 JUMP JUMPDEST PUSH1 0x20 DUP3 ADD SWAP1 POP SWAP2 SWAP1 POP JUMP JUMPDEST PUSH1 0x0 PUSH2 0x10D0 PUSH1 0x2A DUP4 PUSH2 0x1373 JUMP JUMPDEST SWAP2 POP PUSH2 0x10DB DUP3 PUSH2 0x16A2 JUMP JUMPDEST PUSH1 0x40 DUP3 ADD SWAP1 POP SWAP2 SWAP1 POP JUMP JUMPDEST PUSH1 0x0 PUSH2 0x10F3 PUSH1 0x1D DUP4 PUSH2 0x1373 JUMP JUMPDEST SWAP2 POP PUSH2 0x10FE DUP3 PUSH2 0x16F1 JUMP JUMPDEST PUSH1 0x20 DUP3 ADD SWAP1 POP SWAP2 SWAP1 POP JUMP JUMPDEST PUSH1 0x0 PUSH2 0x1116 PUSH1 0x44 DUP4 PUSH2 0x1373 JUMP JUMPDEST SWAP2 POP PUSH2 0x1121 DUP3 PUSH2 0x171A JUMP JUMPDEST PUSH1 0x60 DUP3 ADD SWAP1 POP SWAP2 SWAP1 POP JUMP JUMPDEST PUSH1 0x0 PUSH2 0x1139 PUSH1 0x1B DUP4 PUSH2 0x1373 JUMP JUMPDEST SWAP2 POP PUSH2 0x1144 DUP3 PUSH2 0x178F JUMP JUMPDEST PUSH1 0x20 DUP3 ADD SWAP1 POP SWAP2 SWAP1 POP JUMP JUMPDEST PUSH1 0x0 PUSH2 0x115C PUSH1 0x1E DUP4 PUSH2 0x1373 JUMP JUMPDEST SWAP2 POP PUSH2 0x1167 DUP3 PUSH2 0x17B8 JUMP JUMPDEST PUSH1 0x20 DUP3 ADD SWAP1 POP SWAP2 SWAP1 POP JUMP JUMPDEST PUSH2 0x117B DUP2 PUSH2 0x14E9 JUMP JUMPDEST DUP3 MSTORE POP POP JUMP JUMPDEST PUSH1 0x0 PUSH2 0x120 DUP3 ADD SWAP1 POP PUSH2 0x1197 PUSH1 0x0 DUP4 ADD DUP13 PUSH2 0x1049 JUMP JUMPDEST DUP2 DUP2 SUB PUSH1 0x20 DUP4 ADD MSTORE PUSH2 0x11A9 DUP2 DUP12 PUSH2 0x1067 JUMP JUMPDEST SWAP1 POP DUP2 DUP2 SUB PUSH1 0x40 DUP4 ADD MSTORE PUSH2 0x11BD DUP2 DUP11 PUSH2 0x1067 JUMP JUMPDEST SWAP1 POP PUSH2 0x11CC PUSH1 0x60 DUP4 ADD DUP10 PUSH2 0x1058 JUMP JUMPDEST PUSH2 0x11D9 PUSH1 0x80 DUP4 ADD DUP9 PUSH2 0x1058 JUMP JUMPDEST PUSH2 0x11E6 PUSH1 0xA0 DUP4 ADD DUP8 PUSH2 0x1172 JUMP JUMPDEST PUSH2 0x11F3 PUSH1 0xC0 DUP4 ADD DUP7 PUSH2 0x1172 JUMP JUMPDEST PUSH2 0x1200 PUSH1 0xE0 DUP4 ADD DUP6 PUSH2 0x1172 JUMP JUMPDEST PUSH2 0x120E PUSH2 0x100 DUP4 ADD DUP5 PUSH2 0x1172 JUMP JUMPDEST SWAP11 SWAP10 POP POP POP POP POP POP POP POP POP POP JUMP JUMPDEST PUSH1 0x0 PUSH1 0x20 DUP3 ADD SWAP1 POP PUSH2 0x1231 PUSH1 0x0 DUP4 ADD DUP5 PUSH2 0x1058 JUMP JUMPDEST SWAP3 SWAP2 POP POP JUMP JUMPDEST PUSH1 0x0 PUSH1 0x20 DUP3 ADD SWAP1 POP DUP2 DUP2 SUB PUSH1 0x0 DUP4 ADD MSTORE PUSH2 0x1250 DUP2 PUSH2 0x10A0 JUMP JUMPDEST SWAP1 POP SWAP2 SWAP1 POP JUMP JUMPDEST PUSH1 0x0 PUSH1 0x20 DUP3 ADD SWAP1 POP DUP2 DUP2 SUB PUSH1 0x0 DUP4 ADD MSTORE PUSH2 0x1270 DUP2 PUSH2 0x10C3 JUMP JUMPDEST SWAP1 POP SWAP2 SWAP1 POP JUMP JUMPDEST PUSH1 0x0 PUSH1 0x20 DUP3 ADD SWAP1 POP DUP2 DUP2 SUB PUSH1 0x0 DUP4 ADD MSTORE PUSH2 0x1290 DUP2 PUSH2 0x10E6 JUMP JUMPDEST SWAP1 POP SWAP2 SWAP1 POP JUMP JUMPDEST PUSH1 0x0 PUSH1 0x20 DUP3 ADD SWAP1 POP DUP2 DUP2 SUB PUSH1 0x0 DUP4 ADD MSTORE PUSH2 0x12B0 DUP2 PUSH2 0x1109 JUMP JUMPDEST SWAP1 POP SWAP2 SWAP1 POP JUMP JUMPDEST PUSH1 0x0 PUSH1 0x20 DUP3 ADD SWAP1 POP DUP2 DUP2 SUB PUSH1 0x0 DUP4 ADD MSTORE PUSH2 0x12D0 DUP2 PUSH2 0x112C JUMP JUMPDEST SWAP1 POP SWAP2 SWAP1 POP JUMP JUMPDEST PUSH1 0x0 PUSH1 0x20 DUP3 ADD SWAP1 POP DUP2 DUP2 SUB PUSH1 0x0 DUP4 ADD MSTORE PUSH2 0x12F0 DUP2 PUSH2 0x114F JUMP JUMPDEST SWAP1 POP SWAP2 SWAP1 POP JUMP JUMPDEST PUSH1 0x0 PUSH1 0x20 DUP3 ADD SWAP1 POP PUSH2 0x130C PUSH1 0x0 DUP4 ADD DUP5 PUSH2 0x1172 JUMP JUMPDEST SWAP3 SWAP2 POP POP JUMP JUMPDEST PUSH1 0x0 PUSH2 0x131C PUSH2 0x132D JUMP JUMPDEST SWAP1 POP PUSH2 0x1328 DUP3 DUP3 PUSH2 0x1567 JUMP JUMPDEST SWAP2 SWAP1 POP JUMP JUMPDEST PUSH1 0x0 PUSH1 0x40 MLOAD SWAP1 POP SWAP1 JUMP JUMPDEST PUSH1 0x0 PUSH8 0xFFFFFFFFFFFFFFFF DUP3 GT ISZERO PUSH2 0x1352 JUMPI PUSH2 0x1351 PUSH2 0x1625 JUMP JUMPDEST JUMPDEST PUSH2 0x135B DUP3 PUSH2 0x1668 JUMP JUMPDEST SWAP1 POP PUSH1 0x20 DUP2 ADD SWAP1 POP SWAP2 SWAP1 POP JUMP JUMPDEST PUSH1 0x0 DUP2 MLOAD SWAP1 POP SWAP2 SWAP1 POP JUMP JUMPDEST PUSH1 0x0 DUP3 DUP3 MSTORE PUSH1 0x20 DUP3 ADD SWAP1 POP SWAP3 SWAP2 POP POP JUMP JUMPDEST PUSH1 0x0 PUSH2 0x138F DUP3 PUSH2 0x14E9 JUMP JUMPDEST SWAP2 POP PUSH2 0x139A DUP4 PUSH2 0x14E9 JUMP JUMPDEST SWAP3 POP DUP3 PUSH32 0xFFFFFFFFFFFFFFFFFFFFFFFFFFFFFFFFFFFFFFFFFFFFFFFFFFFFFFFFFFFFFFFF SUB DUP3 GT ISZERO PUSH2 0x13CF JUMPI PUSH2 0x13CE PUSH2 0x1598 JUMP JUMPDEST JUMPDEST DUP3 DUP3 ADD SWAP1 POP SWAP3 SWAP2 POP POP JUMP JUMPDEST PUSH1 0x0 PUSH2 0x13E5 DUP3 PUSH2 0x14E9 JUMP JUMPDEST SWAP2 POP PUSH2 0x13F0 DUP4 PUSH2 0x14E9 JUMP JUMPDEST SWAP3 POP DUP3 PUSH2 0x1400 JUMPI PUSH2 0x13FF PUSH2 0x15C7 JUMP JUMPDEST JUMPDEST DUP3 DUP3 DIV SWAP1 POP SWAP3 SWAP2 POP POP JUMP JUMPDEST PUSH1 0x0 PUSH2 0x1416 DUP3 PUSH2 0x14E9 JUMP JUMPDEST SWAP2 POP PUSH2 0x1421 DUP4 PUSH2 0x14E9 JUMP JUMPDEST SWAP3 POP DUP2 PUSH32 0xFFFFFFFFFFFFFFFFFFFFFFFFFFFFFFFFFFFFFFFFFFFFFFFFFFFFFFFFFFFFFFFF DIV DUP4 GT DUP3 ISZERO ISZERO AND ISZERO PUSH2 0x145A JUMPI PUSH2 0x1459 PUSH2 0x1598 JUMP JUMPDEST JUMPDEST DUP3 DUP3 MUL SWAP1 POP SWAP3 SWAP2 POP POP JUMP JUMPDEST PUSH1 0x0 PUSH2 0x1470 DUP3 PUSH2 0x14E9 JUMP JUMPDEST SWAP2 POP PUSH2 0x147B DUP4 PUSH2 0x14E9 JUMP JUMPDEST SWAP3 POP DUP3 DUP3 LT ISZERO PUSH2 0x148E JUMPI PUSH2 0x148D PUSH2 0x1598 JUMP JUMPDEST JUMPDEST DUP3 DUP3 SUB SWAP1 POP SWAP3 SWAP2 POP POP JUMP JUMPDEST PUSH1 0x0 PUSH2 0x14A4 DUP3 PUSH2 0x14C9 JUMP JUMPDEST SWAP1 POP SWAP2 SWAP1 POP JUMP JUMPDEST PUSH1 0x0 PUSH2 0x14B6 DUP3 PUSH2 0x14C9 JUMP JUMPDEST SWAP1 POP SWAP2 SWAP1 POP JUMP JUMPDEST PUSH1 0x0 DUP2 ISZERO ISZERO SWAP1 POP SWAP2 SWAP1 POP JUMP JUMPDEST PUSH1 0x0 PUSH20 0xFFFFFFFFFFFFFFFFFFFFFFFFFFFFFFFFFFFFFFFF DUP3 AND SWAP1 POP SWAP2 SWAP1 POP JUMP JUMPDEST PUSH1 0x0 DUP2 SWAP1 POP SWAP2 SWAP1 POP JUMP JUMPDEST DUP3 DUP2 DUP4 CALLDATACOPY PUSH1 0x0 DUP4 DUP4 ADD MSTORE POP POP POP JUMP JUMPDEST PUSH1 0x0 JUMPDEST DUP4 DUP2 LT ISZERO PUSH2 0x1520 JUMPI DUP1 DUP3 ADD MLOAD DUP2 DUP5 ADD MSTORE PUSH1 0x20 DUP2 ADD SWAP1 POP PUSH2 0x1505 JUMP JUMPDEST DUP4 DUP2 GT ISZERO PUSH2 0x152F JUMPI PUSH1 0x0 DUP5 DUP5 ADD MSTORE JUMPDEST POP POP POP POP JUMP JUMPDEST PUSH1 0x0 PUSH1 0x2 DUP3 DIV SWAP1 POP PUSH1 0x1 DUP3 AND DUP1 PUSH2 0x154D JUMPI PUSH1 0x7F DUP3 AND SWAP2 POP JUMPDEST PUSH1 0x20 DUP3 LT DUP2 EQ ISZERO PUSH2 0x1561 JUMPI PUSH2 0x1560 PUSH2 0x15F6 JUMP JUMPDEST JUMPDEST POP SWAP2 SWAP1 POP JUMP JUMPDEST PUSH2 0x1570 DUP3 PUSH2 0x1668 JUMP JUMPDEST DUP2 ADD DUP2 DUP2 LT PUSH8 0xFFFFFFFFFFFFFFFF DUP3 GT OR ISZERO PUSH2 0x158F JUMPI PUSH2 0x158E PUSH2 0x1625 JUMP JUMPDEST JUMPDEST DUP1 PUSH1 0x40 MSTORE POP POP POP JUMP JUMPDEST PUSH32 0x4E487B7100000000000000000000000000000000000000000000000000000000 PUSH1 0x0 MSTORE PUSH1 0x11 PUSH1 0x4 MSTORE PUSH1 0x24 PUSH1 0x0 REVERT JUMPDEST PUSH32 0x4E487B7100000000000000000000000000000000000000000000000000000000 PUSH1 0x0 MSTORE PUSH1 0x12 PUSH1 0x4 MSTORE PUSH1 0x24 PUSH1 0x0 REVERT JUMPDEST PUSH32 0x4E487B7100000000000000000000000000000000000000000000000000000000 PUSH1 0x0 MSTORE PUSH1 0x22 PUSH1 0x4 MSTORE PUSH1 0x24 PUSH1 0x0 REVERT JUMPDEST PUSH32 0x4E487B7100000000000000000000000000000000000000000000000000000000 PUSH1 0x0 MSTORE PUSH1 0x41 PUSH1 0x4 MSTORE PUSH1 0x24 PUSH1 0x0 REVERT JUMPDEST PUSH1 0x0 DUP1 REVERT JUMPDEST PUSH1 0x0 DUP1 REVERT JUMPDEST PUSH1 0x0 DUP1 REVERT JUMPDEST PUSH1 0x0 DUP1 REVERT JUMPDEST PUSH1 0x0 PUSH1 0x1F NOT PUSH1 0x1F DUP4 ADD AND SWAP1 POP SWAP2 SWAP1 POP JUMP JUMPDEST PUSH32 0x506C6561736520636865636B206F757420612062696B652066697273742E0000 PUSH1 0x0 DUP3 ADD MSTORE POP JUMP JUMPDEST PUSH32 0x596F7520646F206E6F74206861766520616E797468696E672064756520617420 PUSH1 0x0 DUP3 ADD MSTORE PUSH32 0x746869732074696D652E00000000000000000000000000000000000000000000 PUSH1 0x20 DUP3 ADD MSTORE POP JUMP JUMPDEST PUSH32 0x596F752063616E6E6F742072656E7420617420746869732074696D652E000000 PUSH1 0x0 DUP3 ADD MSTORE POP JUMP JUMPDEST PUSH32 0x596F7520646F206E6F74206861766520656E6F7567682066756E647320746F20 PUSH1 0x0 DUP3 ADD MSTORE PUSH32 0x636F766572207061796D656E742E20506C65617365206D616B65206120646570 PUSH1 0x20 DUP3 ADD MSTORE PUSH32 0x6F73697400000000000000000000000000000000000000000000000000000000 PUSH1 0x40 DUP3 ADD MSTORE POP JUMP JUMPDEST PUSH32 0x596F75206861766520612070656E64696E672062616C616E63652E0000000000 PUSH1 0x0 DUP3 ADD MSTORE POP JUMP JUMPDEST PUSH32 0x42696B652069732063757272656E746C7920636865636B6564206F75742E0000 PUSH1 0x0 DUP3 ADD MSTORE POP JUMP JUMPDEST PUSH2 0x17EA DUP2 PUSH2 0x1499 JUMP JUMPDEST DUP2 EQ PUSH2 0x17F5 JUMPI PUSH1 0x0 DUP1 REVERT JUMPDEST POP JUMP JUMPDEST PUSH2 0x1801 DUP2 PUSH2 0x14AB JUMP JUMPDEST DUP2 EQ PUSH2 0x180C JUMPI PUSH1 0x0 DUP1 REVERT JUMPDEST POP JUMP JUMPDEST PUSH2 0x1818 DUP2 PUSH2 0x14BD JUMP JUMPDEST DUP2 EQ PUSH2 0x1823 JUMPI PUSH1 0x0 DUP1 REVERT JUMPDEST POP JUMP JUMPDEST PUSH2 0x182F DUP2 PUSH2 0x14E9 JUMP JUMPDEST DUP2 EQ PUSH2 0x183A JUMPI PUSH1 0x0 DUP1 REVERT JUMPDEST POP JUMP INVALID LOG2 PUSH5 0x6970667358 0x22 SLT KECCAK256 MSIZE 0xD8 0xDB PUSH18 0xE8E07EA23540F4E47C264A01E5FF047981CA INVALID 0xCD SWAP7 EQ 0xB4 TIMESTAMP 0xBF 0xF7 0x25 AND PUSH5 0x736F6C6343 STOP ADDMOD SMOD STOP CALLER "
				},
				"gasEstimates": {
					"creation": {
						"codeDepositCost": "1251800",
						"executionCost": "25568",
						"totalCost": "1277368"
					},
					"external": {
						"addRenter(address,string,string,bool,bool,uint256,uint256,uint256,uint256)": "infinite",
						"balanceOf()": "339",
						"balanceOfRenter(address)": "2891",
						"canRentBike(address)": "2890",
						"checkIn(address)": "infinite",
						"checkOut(address)": "75948",
						"deposit(address)": "infinite",
						"getTotalDuration(address)": "3107",
						"makePayment(address)": "infinite",
						"renters(address)": "infinite"
					},
					"internal": {
						"renterTimespan(uint256,uint256)": "infinite",
						"setDue(address)": "infinite"
					}
				},
				"methodIdentifiers": {
					"addRenter(address,string,string,bool,bool,uint256,uint256,uint256,uint256)": "5e649727",
					"balanceOf()": "722713f7",
					"balanceOfRenter(address)": "aad1b617",
					"canRentBike(address)": "0b88adbe",
					"checkIn(address)": "d9a59e33",
					"checkOut(address)": "8d23caa0",
					"deposit(address)": "f340fa01",
					"getTotalDuration(address)": "41ba6e89",
					"makePayment(address)": "300be4fc",
					"renters(address)": "644a1370"
				}
			},
			"storageLayout": {
				"storage": [
					{
						"astId": 3,
						"contract": "Users/TracyMichael1/Desktop/approved-experiences/Smart Contracts/BikeChain.sol:BikeChain",
						"label": "owner",
						"offset": 0,
						"slot": "0",
						"type": "t_address"
					},
					{
						"astId": 36,
						"contract": "Users/TracyMichael1/Desktop/approved-experiences/Smart Contracts/BikeChain.sol:BikeChain",
						"label": "renters",
						"offset": 0,
						"slot": "1",
						"type": "t_mapping(t_address,t_struct(Renter)31_storage)"
					}
				],
				"types": {
					"t_address": {
						"encoding": "inplace",
						"label": "address",
						"numberOfBytes": "20"
					},
					"t_address_payable": {
						"encoding": "inplace",
						"label": "address payable",
						"numberOfBytes": "20"
					},
					"t_bool": {
						"encoding": "inplace",
						"label": "bool",
						"numberOfBytes": "1"
					},
					"t_mapping(t_address,t_struct(Renter)31_storage)": {
						"encoding": "mapping",
						"key": "t_address",
						"label": "mapping(address => struct BikeChain.Renter)",
						"numberOfBytes": "32",
						"value": "t_struct(Renter)31_storage"
					},
					"t_string_storage": {
						"encoding": "bytes",
						"label": "string",
						"numberOfBytes": "32"
					},
					"t_struct(Renter)31_storage": {
						"encoding": "inplace",
						"label": "struct BikeChain.Renter",
						"members": [
							{
								"astId": 14,
								"contract": "Users/TracyMichael1/Desktop/approved-experiences/Smart Contracts/BikeChain.sol:BikeChain",
								"label": "walletAddress",
								"offset": 0,
								"slot": "0",
								"type": "t_address_payable"
							},
							{
								"astId": 16,
								"contract": "Users/TracyMichael1/Desktop/approved-experiences/Smart Contracts/BikeChain.sol:BikeChain",
								"label": "firstName",
								"offset": 0,
								"slot": "1",
								"type": "t_string_storage"
							},
							{
								"astId": 18,
								"contract": "Users/TracyMichael1/Desktop/approved-experiences/Smart Contracts/BikeChain.sol:BikeChain",
								"label": "lastName",
								"offset": 0,
								"slot": "2",
								"type": "t_string_storage"
							},
							{
								"astId": 20,
								"contract": "Users/TracyMichael1/Desktop/approved-experiences/Smart Contracts/BikeChain.sol:BikeChain",
								"label": "canRent",
								"offset": 0,
								"slot": "3",
								"type": "t_bool"
							},
							{
								"astId": 22,
								"contract": "Users/TracyMichael1/Desktop/approved-experiences/Smart Contracts/BikeChain.sol:BikeChain",
								"label": "active",
								"offset": 1,
								"slot": "3",
								"type": "t_bool"
							},
							{
								"astId": 24,
								"contract": "Users/TracyMichael1/Desktop/approved-experiences/Smart Contracts/BikeChain.sol:BikeChain",
								"label": "balance",
								"offset": 0,
								"slot": "4",
								"type": "t_uint256"
							},
							{
								"astId": 26,
								"contract": "Users/TracyMichael1/Desktop/approved-experiences/Smart Contracts/BikeChain.sol:BikeChain",
								"label": "due",
								"offset": 0,
								"slot": "5",
								"type": "t_uint256"
							},
							{
								"astId": 28,
								"contract": "Users/TracyMichael1/Desktop/approved-experiences/Smart Contracts/BikeChain.sol:BikeChain",
								"label": "start",
								"offset": 0,
								"slot": "6",
								"type": "t_uint256"
							},
							{
								"astId": 30,
								"contract": "Users/TracyMichael1/Desktop/approved-experiences/Smart Contracts/BikeChain.sol:BikeChain",
								"label": "end",
								"offset": 0,
								"slot": "7",
								"type": "t_uint256"
							}
						],
						"numberOfBytes": "256"
					},
					"t_uint256": {
						"encoding": "inplace",
						"label": "uint256",
						"numberOfBytes": "32"
					}
				}
			},
			"userdoc": {
				"kind": "user",
				"methods": {},
				"version": 1
			}
		}
	}
}